:1000000061C200007CC200007AC2000078C2000019
:1000100076C2000074C2000072C2000070C200000C
:100020006EC200006CC200006AC2000068C200001C
:1000300066C2000064C200000C944F090C94780959
:100040000C94A1090C94CA090C94F3090C941C0A91
:100050000C94450A0C946E0A0C94970A0C94C00AEE
:100060004EC200004CC200004AC2000048C200005C
:1000700046C2000044C2000042C2000040C200006C
:100080003EC200003CC200003AC2000038C200007C
:1000900036C2000034C2000032C2000030C200008C
:1000A0002EC200002CC200002AC2000028C200009C
:1000B00026C2000024C2000022C200000C94830C5F
:1000C0000C94AC0C0C94D50C0C94FE0C0C94270DD9
:1000D0000C94500D14C2000012C2000010C20000A7
:1000E0000EC200000CC200000AC2000008C20000DC
:1000F00006C2000004C2000002C2000000C20000EC
:10010000FEC10000FCC10000FAC10000F8C10000FF
:10011000F6C10000F4C10000F2C10000F0C100000F
:10012000EEC10000ECC10000EAC10000E8C100001F
:10013000E6C100000C94E90A0C94120B0C943B0BE2
:100140000C94640B0C948D0B0C94B60B0C94DF0B7D
:100150000C94080C0C94310C0C945A0CD0C1000077
:10016000CEC10000CCC10000CAC10000C8C100005F
:10017000C6C10000C4C10000C2C10000C0C100006F
:10018000BEC10000BCC10000BAC10000B8C100007F
:10019000B6C10000B4C10000B2C10000B0C100008F
:1001A000AEC10000ACC10000AAC10000A8C100009F
:1001B000A6C10000A4C10000A2C10000A0C10000AF
:1001C0009EC100009CC100009AC1000098C10000BF
:1001D00096C1000094C1000092C1000090C10000CF
:1001E0008EC100008CC100008AC1000088C10000DF
:1001F00086C100000C9452120C94FD1223204D6F06
:1002000064756C6520506F776572204F6E210D0A02
:100210000023204D6F64756C6520506F77657220E8
:100220004F6666210D0A00232053657269616C3A9E
:10023000202530327825303278253032782530321A
:1002400078253032782530327825303278253032B2
:10025000782530327825303278253032780D0A0012
:10026000232056657273696F6E3A2025642E2564CB
:100270000D0A002320466C6F74696C6C61207265F6
:1002800061647920746F20736574207361696C2ECA
:100290002E0D0A002320446F636B3A2025730D0A4C
:1002A000002320557365723A2025730D0A006420DF
:1002B00025642F25730D0A00632025642F25730DF7
:1002C0000A00642025642F25730D0A00632025642D
:1002D0002F25730D0A00752025642F2573202564B2
:1002E0002C25642C25642C25640D0A0075202564BA
:1002F0002F25732025640D0A00752025642F257392
:100300002025642C25642C25640D0A0064202564B6
:100310002F25730D0A00642025642F25730D0A0014
:10032000632025642F25730D0A00632025642F2583
:10033000730D0A00752025642F25732025642C2554
:10034000642C256C750D0A00752025642F257320FB
:1003500025642C25642C25640D0A00752025642F46
:1003600025732025642C25642C25640D0A00752036
:1003700025642F25732025640D0A00752025642F20
:1003800025732025642C25642C25642C25640D0AF6
:1003900000752025642F257320256C642C256C7531
:1003A0000D0A00766163616E740D0A0025732028C2
:1003B000307825303278290D0A0023202020202093
:1003C00020202564202D2000232020202043686148
:1003D0006E6E656C733A0D0A0023202020202020C9
:1003E000204D61696E206C6F6F70206379636C655E
:1003F0007320706572207365636F6E642028667069
:1004000073293A2025640D0A002320202020202073
:10041000204D61696E206C6F6F702064757261741D
:10042000696F6E3A2025646D7320282564757329E1
:100430000D0A0023202020204C6F61643A0D0A0031
:1004400023202020202020205352414D2066726519
:10045000653A2025642062797465730D0A002320B3
:100460002020205265736F75726365733A0D0A0020
:100470002320446562756720696E666F726D6174D2
:10048000696F6E3A0D0A0023205265636F766572BC
:1004900065642066726F6D206F7665722D6375726C
:1004A00072656E740D0A0023204F7665722D637598
:1004B0007272656E742064657465637465642E2E53
:1004C0002E0D0A0011241FBECFEFCDBFDFE2DEBF2D
:1004D00013E2A0E0B0E2EAE2F0E602C005900D927D
:1004E000A032B107D9F72AE2A0E2B3E201C01D921F
:1004F000AF37B207E1F70E94AB280C94133080CDE0
:10050000CF93809121238F5F8093212320912223F9
:1005100030E0E3E2F3E280E090E0C0E041E050E070
:10052000B901082E02C0759567950A94E2F760FF3D
:1005300006C0A081B0E0A255BE4D6C9101C060E044
:1005400070912123761718F06081673938F0BA016D
:10055000082E01C0660F0A94EAF7C62B0196319661
:1005600088309105E9F6C0930406E091202380913C
:100570002123E695EF73F0E0E259FE4DE081E69528
:10058000F0E0E255FE4D968D891720F481E08093CE
:10059000850603C081E080938606809121238733FE
:1005A00020F482E08093850603C082E08093860673
:1005B00080912123873320F484E08093850603C053
:1005C00084E08093860680912123811114C0E3E2A8
:1005D000F3E296E480818A3418F08350808301C06E
:1005E0009083319683E2EB32F807A1F780912023C4
:1005F0008F5F80932023CF91089580914024815074
:1006000080934024089580E0089580E008956EE48A
:1006100074E280E00C94812980913F248150809382
:100620003F2480913F240E94842910923E24089503
:100630001092402410924C2410924D2481EA809311
:10064000422480E280934324109244241092452453
:10065000109246241092472482E090E08093482430
:100660009093492410924A2410924B2480E895E2FA
:10067000A0E0B0E080934E2490934F24A0935024A8
:10068000B0935124109252241092532488E0809306
:1006900054246EE474E280E00E94812980E00E948C
:1006A0008229882329F0909140249F5F90934024D1
:1006B0000895FF920F931F93CF93DF9380912E2382
:1006C00081118BC00E94F710C0912F23D09130234D
:1006D0008823A9F00E940411C817D90709F47DC026
:1006E000DFB7F894C0913123EC2FF0E0EE0FFF1F3D
:1006F000EE5CFC4D80819181892B29F503C00E941D
:10070000FF10EACF80912B2390912C2301968093A8
:100710002B2390932C230E94F710811109C0809104
:100720002B2390912C238436910510F4DFBF55C004
:100730000E94F710882339F080912B2390912C236D
:100740008032934098F310922B2310922C238091A7
:100750002D23811106C081E0C11180E080933123F7
:1007600004C081E0C11180E0C82F81E080932E2376
:10077000DFBFD0E08E01000F111FF801EE5CFC4DD1
:10078000FF24F394808191818034910531F4F12C20
:1007900010922F23109230230DC00E94F71088234F
:1007A00019F00E94041102C00E94FF1080932F23B1
:1007B00090933023F801EE5CFC4D20813181AE0135
:1007C00086E0440F551F8A95E1F74A5C5C4D04EFC3
:1007D00013E06F2D81E80E948B11DF91CF911F9163
:1007E0000F91FF90089565CF811113C0809131233F
:1007F000E1E0F0E0882311F0E0E0F0E0EE0FFF1F11
:10080000EE5CFC4D1082118210922D2310922E234B
:1008100050CF089590915227892F807697FF0EC070
:100820008032F1F5809153278132D1F5809158279C
:10083000909159278730910599F526C0803281F52E
:1008400080915327803299F0823251F5609154277C
:10085000617080E00E94852960915427709155272E
:1008600076956795617080E00E94862917C0809117
:100870005827909159278730910591F427E033E06C
:1008800020935E2730935F272EE434E220935A278B
:1008900030935B2780935C2790935D2781E00895D8
:1008A00080E008954FB7F8942091B7233091B82392
:1008B000E091B923F0E0EE0FFF1FE654FC4D80817C
:1008C0009181821B930B4FBF0895ECDF21E0892BB0
:1008D00009F420E0822F08950F931F93CF93DF93A5
:1008E0004FB7F8945091B9238091B623811110C06D
:1008F0002091B7233091B823C52FD0E0FE01EE0F31
:10090000FF1FE654FC4D808191812817390718F4A8
:100910004FBF80E024C01092B7231092B82381E02B
:10092000511180E08093B92381E08093B6234FBFBB
:1009300080E0CBDF882319F080E00E948729AE0198
:1009400066E0440F551F6A95E1F742545C4D04EE92
:1009500014E020E430E061E082E00E948B11DF913E
:10096000CF911F910F91089510923F2410922E2342
:1009700010922D23109231231092322310923323A0
:10098000109234231092352310922F23109230238B
:1009900090DE1092B6231092B9231092BA231092CF
:1009A000BB231092B7231092B82396DF882359F007
:1009B00090913F249F5F90933F2490913F249130EA
:1009C00011F490933E2408950F931F93942F811157
:1009D00025C08091B923E1E08111E0E0F0E06115EC
:1009E000710589F4AF01B6E0440F551FBA95E1F7E0
:1009F00042545C4D04EE14E020E430E061E0892FC5
:100A00000E948B110BC0EE0FFF1FE654FC4D60835C
:100A100071831092B6231F910F915ECF1F910F919A
:100A2000089580E052CF1F93CF93DF9311E0809120
:100A30005424893009F010E0C0E0D0E02FB7F894DA
:100A40008091B7239091B823E091B9232FBFF0E0B4
:100A5000DF01AA0FBB1FA654BC4D2D913C918217FC
:100A6000930730F080913E248111E8CF90E018C0C8
:100A700026E0EE0FFF1F2A95E1F7E80FF91FE25479
:100A8000FC4D2081C22B01968093B7239093B8230D
:100A900023DF112321F0DC2FCC2710E0CFCFCE01B4
:100AA000DF91CF911F91089580E0BDCF4FB7F894AB
:100AB00090913123E92FF0E0EE0FFF1FEE5CFC4D2B
:100AC000208131812034310589F480912E238111D8
:100AD0000DC080912D23811109C081E080932D23C9
:100AE000911180E08093312320E030E04FBF80E41B
:100AF00090E0821B930B0895D9DF21E0892B09F444
:100B000020E0822F089580E0F7CF1F93CF93DF93EB
:100B100000D0CDB7DEB711E080915424893009F0C0
:100B200010E080E069837A83E7DF69817A8181114F
:100B300007C080913E248111F4CF80E090E025C071
:100B40004FB7F894E0913123F0E0DF01AA0FBB1F0B
:100B5000AE5CBC4D8D919C9111979C012F5F3F4FD6
:100B60002D933C9326E0EE0FFF1F2A95E1F7E80F47
:100B7000F91FEA5CFC4D60834FBF112321F0672F02
:100B8000770F770BCDCF81E090E00F900F90DF9142
:100B9000CF911F910895BC0180E0B7CF8091542779
:100BA0008F770C94F91090915D24992361F1E09175
:100BB0005B24F0915C240190F081E02D94818917F1
:100BC00010F5E0935924F0935A24228133812E0F9B
:100BD0003F1FE217F30798F49181943061F49281FA
:100BE000891309C09381691306C0E0935924F093D7
:100BF0005A2481E008959081E90FF11DEACFE09336
:100C00005924F0935A2480E00895E0915B24F091F8
:100C10005C240190F081E02D228133812E0F3F1F53
:100C2000FC014081E40FF11DE217F30748F48181D4
:100C3000843031F0853039F08081E80FF11DF4CF38
:100C400080E090E00895CF0108951F93CF93DF9344
:100C5000182FA9DF882341F1C0915924D0915A243B
:100C6000CE01D3DFEC01009749F04C815D816B81AF
:100C70008A810E9410118111F3CF16C0E0915B248C
:100C8000F0915C2492818381E92FF82FE10FF11D0F
:100C9000E10FF11D0190F081E02D0190F081E02D38
:100CA000DF91CF911F91099480E0DF91CF911F9147
:100CB0000895FF920F931F93CF93DF93C82F60E0A7
:100CC00072DFF82E882369F1E0915B24F0915C24B7
:100CD00092818381E92FF82FEC0FF11DEC0FF11DAC
:100CE00000811181D8011696ED91FC911797099515
:100CF000682F8C2F58DFF82E882399F0C091592443
:100D0000D0915A24CE0181DFEC01009721F08A8135
:100D10000E943912F7CFD8011296ED91FC911397EA
:100D200009958F2DDF91CF911F910F91FF9008951D
:100D30000C948310CF9380915D24811108C0109290
:100D40005D2410925E2410925F24CF910895C0E03C
:100D5000E0915B24F0915C240190F081E02D84818E
:100D6000C81768F78C2FA5DFCF5FF2CFCF938091A4
:100D70005D248823F1F0C0E0E0915B24F0915C24D5
:100D8000A081B18114968C91C81798F492818381C7
:100D9000E92FF82FEC0FF11DEC0FF11D0190F08100
:100DA000E02D0084F185E02D309709F00995CF5FA3
:100DB000E3CFCF910895CF92DF92FF920F931F93CD
:100DC000CF93DF931F92CDB7DEB710925C271092BE
:100DD0005D2710925E2710925F2710926027109275
:100DE00061272091522727FF07C0809158279091B3
:100DF0005927892B09F449C2822F807609F0D6C180
:100E000027FF00C18091582790915927009709F436
:100E1000CDC12F7109F09DC020915327263069F074
:100E2000283009F48EC02111C1C1029709F0BEC15A
:100E300062E070E08EE594E2E2C0209154273091A8
:100E40005527832F99278230910591F05CF4019703
:100E500009F0ACC180910A2190910B21DC016C91C9
:100E600070E05CC08330910589F10F9711F19EC14C
:100E7000E0910A21F0910B218189281708F096C191
:100E80003327220F331F220F331FE0910C21F091E3
:100E90000D21E20FF31F80819181FC01628173813A
:100EA0000E940711E0915A27F0915B2782E081832D
:100EB00037C080910E2190910F21009709F476C1DF
:100EC000DC0112966D917C91139728C03327213055
:100ED000310529F040F02230310551F067C16CE056
:100EE00084E490E208C064E070E082E590E216C01D
:100EF0006DE086E390E2282FACE1B0E2FC01819145
:100F000090E08D939D938E2F821B8617C0F3660F02
:100F10006E5F60931A2070E08AE190E20E940711F0
:100F2000809158279091592720915C2730915D2717
:100F30008217930708F038C180935C2790935D2750
:100F400033C1019709F032C161E070E08DE594E2B0
:100F500056C02130E9F5209153272A3009F026C1E7
:100F6000019709F023C180915D24882309F41EC1F3
:100F7000C0905627D090572700915B2410915C2495
:100F8000D801ED91FC918481C81608F00FC160E092
:100F90008C2D09DEF82E882309F408C1DD24CC0C41
:100FA000DD1CD8011296ED91FC911397EC0DFD1DFF
:100FB0000190F081E02D0680F781E02D0995809366
:100FC000582461E070E088E594E20E940711EAC0CD
:100FD000223009F0EBC0209153272111E7C002977E
:100FE00009F0E4C0809156270E946B1190E0809335
:100FF00056249093572462E070E086E594E20E94C4
:101000000711D2C02F7109F07EC080915327833021
:1010100009F4CCC018F48130A1F0C8C0853019F0B3
:10102000893039F1C3C08091582790915927892B75
:1010300009F0BCC08EEC95E080935E2790935F270B
:10104000B3C08091582790915927892B09F0AEC0E1
:101050008091542790915527019709F0A7C080915E
:101060005E2490915F248D7F80935E2490935F2413
:101070009BC08091582790915927892B09F096C0E1
:101080000E94FC10882309F491C08091542790910C
:1010900055279927E0910A21F0910B21218930E011
:1010A0002817390708F482C045DE20915427309173
:1010B000552720935D24222309F476C0332721503D
:1010C000304C220F331F220F331F80910C2190913F
:1010D0000D21820F931F80935B2490935C2410E07A
:1010E000E0915B24F0915C240190F081E02D8481FB
:1010F000181708F059C060E0812FA7DD882309F494
:1011000055C01F5FEDCF2130F1F4809153278B3014
:1011100009F04CC08091582790915927892B09F0EC
:1011200045C080915D24882309F440C01091562762
:1011300060915427812F6983BCDD69818823B1F1D7
:10114000812F83DD2EC0223089F580915327813095
:1011500019F0833091F02AC0809158279091592737
:10116000892B21F58091542790915527892BF1F4F3
:10117000809156270E94721114C080915827909137
:101180005927892B99F48091542790915527892BC1
:1011900069F4809156270E940E12809156270E9472
:1011A0004212F82EFF2011F081E070C0809152278A
:1011B0008F718130B9F580915D24882399F1C090B9
:1011C0005627D090572700915B2410915C24D801BA
:1011D000ED91FC918481C81628F560E08C2DE3DC4C
:1011E000882301F1C6019927880F991FD80112960B
:1011F000ED91FC911397E80FF91F00811181D8013F
:101200001696ED91FC9117970995682F8C2DCBDCE4
:10121000882341F0D8011496ED91FC91159709951A
:101220008111C2CF809152278F71823071F58091E8
:101230005D24882351F110E0E0915B24F0915C245F
:10124000A081B18114968C911817F8F49281838152
:10125000E92FF82FE10FF11DE10FF11DC080D180C2
:10126000D6011696ED91FC9117970995682F812F5D
:101270009ADC882351F0D6011496ED91FC911597D4
:101280000995811191CF1F5FD7CF80E00F90DF913B
:10129000CF911F910F91FF90DF90CF9008951F92F3
:1012A0000F920FB60F9211242F933F934F935F939A
:1012B0006F937F938F939F93AF93BF93EF93FF931E
:1012C000E0919224F0919324309709F00995FF91D1
:1012D000EF91BF91AF919F918F917F916F915F91AE
:1012E0004F913F912F910F900FBE0F901F90189527
:1012F0001F920F920FB60F9211242F933F934F938B
:101300005F936F937F938F939F93AF93BF93EF936D
:10131000FF93E0919024F0919124309709F0099582
:10132000FF91EF91BF91AF919F918F917F916F91BD
:101330005F914F913F912F910F900FBE0F901F9093
:1013400018951F920F920FB60F9211242F933F936F
:101350004F935F936F937F938F939F93AF93BF93BD
:10136000EF93FF93E0918E24F0918F24309709F052
:101370000995FF91EF91BF91AF919F918F917F91CF
:101380006F915F914F913F912F910F900FBE0F90F2
:101390001F9018951F920F920FB60F9211242F9342
:1013A0003F934F935F936F937F938F939F93AF93ED
:1013B000BF93EF93FF93E0918C24F0918D243097AD
:1013C00009F00995FF91EF91BF91AF919F918F9196
:1013D0007F916F915F914F913F912F910F900FBE31
:1013E0000F901F9018951F920F920FB60F92112415
:1013F0002F933F934F935F936F937F938F939F931D
:10140000AF93BF93EF93FF93E0918A24F0918B24E5
:10141000309709F00995FF91EF91BF91AF919F919E
:101420008F917F916F915F914F913F912F910F908D
:101430000FBE0F901F9018951F920F920FB60F922C
:1014400011242F933F934F935F936F937F938F93C9
:101450009F93AF93BF93EF93FF93E0918824F09114
:101460008924309709F00995FF91EF91BF91AF91D1
:101470009F918F917F916F915F914F913F912F91AC
:101480000F900FBE0F901F9018951F920F920FB6DE
:101490000F9211242F933F934F935F936F937F93FA
:1014A0008F939F93AF93BF93EF93FF93E091862425
:1014B000F0918724309709F00995FF91EF91BF9142
:1014C000AF919F918F917F916F915F914F913F91DC
:1014D0002F910F900FBE0F901F9018951F920F9293
:1014E0000FB60F9211242F933F934F935F936F93F7
:1014F0007F938F939F93AF93BF93EF93FF93E0916D
:101500008424F0918524309709F00995FF91EF919B
:10151000BF91AF919F918F917F916F915F914F910B
:101520003F912F910F900FBE0F901F9018951F9213
:101530000F920FB60F9211242F933F934F935F9307
:101540006F937F938F939F93AF93BF93EF93FF938B
:10155000E0918224F0918324309709F00995FF915E
:10156000EF91BF91AF919F918F917F916F915F911B
:101570004F913F912F910F900FBE0F901F90189594
:101580001F920F920FB60F9211242F933F934F93F8
:101590005F936F937F938F939F93AF93BF93EF93DB
:1015A000FF93E0918024F0918124309709F0099510
:1015B000FF91EF91BF91AF919F918F917F916F912B
:1015C0005F914F913F912F910F900FBE0F901F9001
:1015D00018951F920F920FB60F9211242F933F93DD
:1015E0004F935F936F937F938F939F93AF93BF932B
:1015F000EF93FF93E0917E24F0917F24309709F0E0
:101600000995FF91EF91BF91AF919F918F917F913C
:101610006F915F914F913F912F910F900FBE0F905F
:101620001F9018951F920F920FB60F9211242F93AF
:101630003F934F935F936F937F938F939F93AF935A
:10164000BF93EF93FF93E0917C24F0917D2430973A
:1016500009F00995FF91EF91BF91AF919F918F9103
:101660007F916F915F914F913F912F910F900FBE9E
:101670000F901F9018951F920F920FB60F92112482
:101680002F933F934F935F936F937F938F939F938A
:10169000AF93BF93EF93FF93E0917A24F0917B2473
:1016A000309709F00995FF91EF91BF91AF919F910C
:1016B0008F917F916F915F914F913F912F910F90FB
:1016C0000FBE0F901F9018951F920F920FB60F929A
:1016D00011242F933F934F935F936F937F938F9337
:1016E0009F93AF93BF93EF93FF93E0917824F09192
:1016F0007924309709F00995FF91EF91BF91AF914F
:101700009F918F917F916F915F914F913F912F9119
:101710000F900FBE0F901F9018951F920F920FB64B
:101720000F9211242F933F934F935F936F937F9367
:101730008F939F93AF93BF93EF93FF93E0917624A2
:10174000F0917724309709F00995FF91EF91BF91BF
:10175000AF919F918F917F916F915F914F913F9149
:101760002F910F900FBE0F901F9018951F920F9200
:101770000FB60F9211242F933F934F935F936F9364
:101780007F938F939F93AF93BF93EF93FF93E091DA
:101790007424F0917524309709F00995FF91EF9129
:1017A000BF91AF919F918F917F916F915F914F9179
:1017B0003F912F910F900FBE0F901F9018951F9281
:1017C0000F920FB60F9211242F933F934F935F9375
:1017D0006F937F938F939F93AF93BF93EF93FF93F9
:1017E000E0917224F0917324309709F00995FF91EC
:1017F000EF91BF91AF919F918F917F916F915F9189
:101800004F913F912F910F900FBE0F901F90189501
:101810001F920F920FB60F9211242F933F934F9365
:101820005F936F937F938F939F93AF93BF93EF9348
:10183000FF93E0917024F0917124309709F009959D
:10184000FF91EF91BF91AF919F918F917F916F9198
:101850005F914F913F912F910F900FBE0F901F906E
:1018600018951F920F920FB60F9211242F933F934A
:101870004F935F936F937F938F939F93AF93BF9398
:10188000EF93FF93E0916E24F0916F24309709F06D
:101890000995FF91EF91BF91AF919F918F917F91AA
:1018A0006F915F914F913F912F910F900FBE0F90CD
:1018B0001F9018951F920F920FB60F9211242F931D
:1018C0003F934F935F936F937F938F939F93AF93C8
:1018D000BF93EF93FF93E0916C24F0916D243097C8
:1018E00009F00995FF91EF91BF91AF919F918F9171
:1018F0007F916F915F914F913F912F910F900FBE0C
:101900000F901F9018951F920F920FB60F921124EF
:101910002F933F934F935F936F937F938F939F93F7
:10192000AF93BF93EF93FF93E0916A24F0916B2400
:10193000309709F00995FF91EF91BF91AF919F9179
:101940008F917F916F915F914F913F912F910F9068
:101950000FBE0F901F9018951F920F920FB60F9207
:1019600011242F933F934F935F936F937F938F93A4
:101970009F93AF93BF93EF93FF93E0916824F0910F
:101980006924309709F00995FF91EF91BF91AF91CC
:101990009F918F917F916F915F914F913F912F9187
:1019A0000F900FBE0F901F9018951F920F920FB6B9
:1019B0000F9211242F933F934F935F936F937F93D5
:1019C0008F939F93AF93BF93EF93FF93E091662420
:1019D000F0916724309709F00995FF91EF91BF913D
:1019E000AF919F918F917F916F915F914F913F91B7
:1019F0002F910F900FBE0F901F9018951F920F926E
:101A00000FB60F9211242F933F934F935F936F93D1
:101A10007F938F939F93AF93BF93EF93FF93E09147
:101A20006424F0916524309709F00995FF91EF91B6
:101A3000BF91AF919F918F917F916F915F914F91E6
:101A40003F912F910F900FBE0F901F9018951F92EE
:101A50000F920FB60F9211242F933F934F935F93E2
:101A60006F937F938F939F93AF93BF93EF93FF9366
:101A7000E0916224F0916324309709F00995FF9179
:101A8000EF91BF91AF919F918F917F916F915F91F6
:101A90004F913F912F910F900FBE0F901F9018956F
:101AA0001F920F920FB60F9211242F933F934F93D3
:101AB0005F936F937F938F939F93AF93BF93EF93B6
:101AC000FF93E0916024F0916124309709F009952B
:101AD000FF91EF91BF91AF919F918F917F916F9106
:101AE0005F914F913F912F910F900FBE0F901F90DC
:101AF0001895CF93CFB7F894811528E0920711F489
:101B000061E005C0803428E0920739F462E083E0A8
:101B10000E94342864E083E01AC0811529E092070E
:101B200011F461E005C0803429E0920739F462E0E5
:101B300084E00E94342864E084E009C081159A4062
:101B400081F461E085E00E94342864E085E00E9431
:101B500034289FB7F8948091742A8F5F8093742AF9
:101B60009FBFCFBFCF910895811528E0920729F438
:101B700060939224709393240895803428E0920710
:101B800029F460938624709387240895811529E0B1
:101B9000920729F460937E2470937F240895803403
:101BA00029E0920729F460937224709373240895B6
:101BB00081159A4021F460936A2470936B240895F0
:101BC000282F2F70992787FD90958827990F881FB8
:101BD0009927820F911D820F911D43E0880F991F55
:101BE0004A95E1F784579A4D08950F93E8ECF4E095
:101BF00080818F7D808380818F7D8083E4E9F5E221
:101C000002E00593109296251092972500E2069324
:101C100000E40693ECE8F5E200E2069300E40693A4
:101C200010925E2710925F27109260271092612712
:101C300010925C2710925D2710927D250F910895D8
:101C40000F9385E080937D25E5E9F5E204E00593B7
:101C5000EDE8F5E204E005930F9108950F9383E01A
:101C600080937D251092962510929725E4E9F5E260
:101C700002E006930F910895E0915E27F0915F27AF
:101C8000309709F009940895982F9F70282F3327D3
:101C900027FD30952227330F221F3327290F311DAF
:101CA000290F311D2250310949E0429FC001439F55
:101CB000900D11248B5E9A4D08959091C02581114D
:101CC00008C0992381F02FB7F8949091742A91500D
:101CD00007C0911108C02FB7F8949091742A9F5FA4
:101CE0009093742A2FBF8093C02508958F929F925E
:101CF000BF92CF92DF92EF92FF920F931F93CF93F9
:101D0000DF93B82EC1DFEC018B2D5ADF7C01DC01A3
:101D10001196EC91E770E150E73040F4F0E0EE0FFF
:101D2000FF1FE255FD4D0081118102C008E010E067
:101D3000ED81FE818B819C814881D701B7FE51C026
:101D400016962D913C9117972E0F3F1F2D833E83A2
:101D500028173907A9F1FC01E21BF30B9F0121159C
:101D6000F4E03F0740F02FEF33E0C901B8010E94D3
:101D7000DB29281B390B41FF0AC0C901B8010E94A9
:101D8000DB2941E0892B09F040E0942F01C090E06D
:101D9000888190FB81F98883D70116961D921C9249
:101DA000179712962D933C93139789819A812D81D1
:101DB0003E81820F931F14968D939C9315970DC0AF
:101DC00041FF73C04D7F4883D70116961D921C9228
:101DD000179712961D921C921397F70102E0069333
:101DE0007DC01296CD90DC90139742FF11C0898080
:101DF0009A80B8010E94DB29B0E4BB9EB001112497
:101E00006B5A7B4DAC01C4018E0F9F1F0E94F02CBA
:101E10006D817E816C0D7D1D6D837E832B813C8168
:101E20002617370710F42D833E83F70186819781AB
:101E3000C816D906D1F58D819E8182179307A9F125
:101E4000281B390B2115F4E03F0710F02FEF33E08A
:101E5000C901B8010E94DB29281B390BD701129652
:101E60001D921C9213972017310778F488818460A3
:101E70008883B0E4BB9EC00111248B5A9B4DF701AF
:101E80008483958306831783A8CF89819A814D81A6
:101E90005E81840F951FD70114968D939C9315979F
:101EA00016962D933C93179798CF888180FF16C084
:101EB0008E7F8883EF81F885309781F06D817E81F8
:101EC0004B2D80E0DF91CF911F910F91FF90EF900C
:101ED000DF90CF90BF909F908F900994DF91CF912A
:101EE0001F910F91FF90EF90DF90CF90BF909F9048
:101EF0008F9008950F93CF93DF9380917D2583304A
:101F000029F4BADEDF91CF910F916FCE2091792520
:101F100030917A25C0915C27D0915D27C21BD30BED
:101F200061F580917B2590917C25820F931F809392
:101F30007B2590937C25209158273091592728178D
:101F4000390721F080919424882331F084E0809334
:101F50007D25ECE8F5E236C0E0916027F09161273D
:101F6000309799F00995882381F010927925109285
:101F70007A25C0915C27D0915D27C034D10528F027
:101F800010929424C0E4D0E003C081E080939424B4
:101F9000C0939625D09397252091792530917A2565
:101FA00080915A2790915B27820F931F80939825E9
:101FB00090939925C20FD31FC0937925D0937A258A
:101FC000E4E9F5E202E00693DF91CF910F910895E5
:101FD0000F93CF93DF931F92CDB7DEB78091CC04E0
:101FE00080FF66C081E08093CC04ECE8F5E200E875
:101FF0000693E4E9F5E200E806938093CA04ECE86E
:10200000F5E200E1069380917D25882329F0835035
:10201000823008F431DEE9DD80918E2590918F25A4
:10202000089709F047C088E0E9E3F5E2A2E5B7E2E6
:1020300001900D928A95E1F78091C80480628093A7
:10204000C8048091C80480628093C8040E94DB06A3
:10205000811102C0F5DD2EC09091522797FF0EC06E
:1020600010927B2510927C251092792510927A256A
:1020700092E090937D2589833DDF08C02091582709
:1020800030915927232B21F48983E8DD898113C0FE
:1020900010927B2510927C251092792510927A253A
:1020A00091E090937D25ECE8F5E202E0069303C011
:1020B00080E001C081E00F90DF91CF910F910895F2
:1020C000CF93CFB7F89481E0F8DDEAECF4E080E458
:1020D000808380E28083E1ECF4E080818160808312
:1020E000A9ECB4E08C9182608C93E8ECF4E0808100
:1020F000806480838C9181608C93808180688083F0
:10210000CFBFCF910895CF931092600080E30E94DB
:1021100040288091C00480648093C00481E0809353
:102120006000CFB7F89410928D25109295251092EB
:102130009D251092A5251092AD251092B525809170
:1021400015258E7F8093152580911E258E7F809387
:102150001E25809127258E7F80932725809130250D
:102160008E7F809330256AE170E082E00E948528AE
:102170008F3F09F48FE18093FA046BE170E082E015
:102180000E9485288F3F09F48FE18093FB048091A2
:10219000C00482608093C0048091C00480688093F2
:1021A000C0048091C00480618093C0048CE895E2F3
:1021B0008093C6049093C7048091C004806280938A
:1021C000C0048FEF8093C5048091C8048160809320
:1021D000C8041092C0259FB7F8948091782A8F5F29
:1021E0008093782A9FBF6CDFCFBFCF91089580E0A6
:1021F00008958093C30408958091C3040895809145
:10220000BC259091BD25089580E090E008958093CD
:102210005A2790935B2760935C2770935D270895FE
:102220000F931F93CF93DF931F92CDB7DEB78A0131
:102230006983C6DCFC018181807C6981811142C097
:102240006370613029F010F490E403C090E801C09D
:1022500090EC00381105E1F050F400321105A1F0C6
:102260000034110599F00031110561F419C0011510
:1022700082E0180789F00F3FA3E01A0779F00115F3
:10228000114041F080E00DC082E00BC083E009C046
:1022900084E007C085E005C086E003C087E001C098
:1022A00081E0118226E02083892B81838181807CDB
:1022B000803C21F481818770873031F08181806298
:1022C000818302C080E001C081E00F90DF91CF9157
:1022D0001F910F91089574DCFC01818182FB882796
:1022E00080F90895CF93C82F6BDCFC01818182FFB8
:1022F0000FC091819B7F91838C2FC6DCFC01808174
:1023000080FF06C08E7F80830780F085E02D0995D1
:1023100081E0CF9108958F929F92BF92CF92DF92EA
:10232000EF92FF920F931F93CF93DF931F92CDB73E
:10233000DEB7B82E6A0179016983A6DC4C018B2DCA
:102340003FDCFC018181807C6981882309F458C0CD
:102350008181807C803C19F0818182FD51C08FB7E2
:10236000F894D4019C9190FF02C08FBF49C0916046
:10237000D4019C938FBFD4011196CD92DC92129719
:102380001396ED92FC92149715961D921C92169737
:1023900017960D931C93189791E0611104C0E114F6
:1023A000F10409F090E0D4018C9190FB81F98B7FCE
:1023B0008C93B7FC1FC08181807C803CC9F4A181D3
:1023C000A770A150A73040F4B0E0AA0FBB1FA255E0
:1023D000BD4D6D917C9102C068E070E0C7010E9424
:1023E000DB29892B29F0F40180818E7F808308C04E
:1023F00012821382168217828B2D78DC81E001C055
:1024000080E00F90DF91CF911F910F91FF90EF909F
:10241000DF90CF90BF909F908F9008950F931F9360
:10242000CF93DF93182FCCDBEC01812F2DDCDC0167
:10243000FE0102E005938C9180FF16C08E7F8C9385
:102440001796ED91FC911897309771F017FF03C024
:102450006E817F8102C06A817B81412F81E0DF91A3
:10246000CF911F910F910994DF91CF911F910F91FF
:102470000895CF93C82FD2DF8C2FA2DBFC011182ED
:10248000CF9108950F93CF93C82F9ADBFC019181D0
:102490009460918301E006938C2FC0DF81E0CF919F
:1024A0000F9108951F920F920FB60F9211240F9360
:1024B0002F933F934F935F936F937F938F939F934C
:1024C000AF93BF93EF93FF938091CB0487FF06C038
:1024D00080E88093CA040E94B6067DC08091CB0438
:1024E00082FF18C084E08093CA048091942586FFFF
:1024F00072C08091CC0481FD6EC06ADD81116BC019
:1025000080917D25813011F4A9DB65C0843009F00C
:1025100062C021C08091CB0481FF26C082E08093FD
:10252000CA0480918C2586FF56C08091CC0481FD21
:1025300052C04EDD81114FC080917D25823041F423
:1025400084E080937D25ECE8F5E202E0069343C049
:10255000833009F040C0E5E9F5E204E00593EDE8D9
:10256000F5E204E0059337C08091CB0484FF21C0DD
:1025700080E18093CA0481E051DF81E84FDF0E944F
:102580009A061092C30410928D2596E090938C25A4
:1025900083E480938D2510929525909394258093C4
:1025A000952589E395E280939025909391251DDBF5
:1025B00012C08091CB0486FF05C080E48093CA04DA
:1025C00080E008C08091CB0485FF05C080E2809345
:1025D000CA0481E072DBFF91EF91BF91AF919F91AF
:1025E0008F917F916F915F914F913F912F910F91BB
:1025F0000F900FBE0F901F9018951F920F920FB65D
:102600000F9211240F931F932F933F934F935F9338
:102610006F937F938F939F93AF93BF93CF93DF93EA
:10262000EF93FF938091CC0481FF1AC082E08093E6
:10263000CC048091C504ECE8F5E28195880FE81B95
:10264000F109208131812C583542E3E036952795F8
:10265000EA95E1F7C22FC69520FF06C080E805C0C5
:10266000B7DC882319F387C080E0C80F8C2FA8DA65
:10267000FC01808185FF7FC000E20693C11175C017
:1026800080917D25843019F4F7DAAFDA74C0C091F7
:102690008E25D0918F2580915C2790915D270091A8
:1026A000792510917A2598012C0F3D1F82179307E9
:1026B00018F4EC01C01BD10B80915A2790915B2735
:1026C000AE0169E375E2800F911F0E94F02C0C0FA0
:1026D0001D1F0093792510937A25C034D10569F424
:1026E00080917B2590917C25800F911F2091582708
:1026F000309159278217930788F000935C27109335
:102700005D27E0916027F0916127309729F00995C6
:10271000811102C095DA2FC0A1DA2DC080915C270B
:1027200090915D2780179107D9F4E0916027F0918F
:102730006127309779F30995882361F380917B2590
:1027400090917C252091792530917A25820F931FD5
:1027500080937B2590937C251092792510927A2581
:10276000ECE8F5E202E0069306C0C03811F4C2DBE3
:1027700002C08C2FBBDAFF91EF91DF91CF91BF9117
:10278000AF919F918F917F916F915F914F913F9109
:102790002F911F910F910F900FBE0F901F901895C2
:1027A0004BE150E060E070E082E697E20C941F2F6E
:1027B0004BE150E060E070E082E697E20E94142F67
:1027C00062E677E28CEB92E20E94F92C892B99F079
:1027D0006CEB72E282E697E20E94022D61EC72E2FB
:1027E00084E797E20E94022D61EC72E28BE697E2A9
:1027F0000E94022DD5CF08950F939EE3989FF0017C
:102800001124E358F84DDF011D929A95E9F7808372
:102810006183728343835483258306830F910895D4
:10282000FC016623D9F0613089F5A781B085129645
:102830008C9112978F9311968C918F9380811F9218
:102840008F9388EB92E09F938F930E94DF260F90E7
:102850000F900F900F900F900F900895A781B08563
:1028600012968C9112978F9311968C918F938081F1
:102870001F928F938EEA92E09F938F930E94DF26A0
:102880000F900F900F900F900F900F9008950F934F
:1028900003E022E040E656E060E676E080E0ACDF70
:1028A00001E020E040E656E060E676E081E0A4DF6B
:1028B00007E026E040E456E060E476E082E09CDF5A
:1028C00005E024E040E456E060E476E083E094DF55
:1028D00003E022E040E456E060E476E084E08CDF50
:1028E00001E020E040E456E060E476E085E084DF4B
:1028F00003E022E040E256E060E276E086E07CDF42
:1029000001E020E040E256E060E276E087E074DF3C
:10291000F4D4DC01EC91F0E0EE0FFF1FE359F64D2B
:10292000808391830E94151FDC01EC91F0E0EE0F93
:10293000FF1FE359F64D808391830E945F1DDC01E8
:10294000EC91F0E0EE0FFF1FE359F64D8083918389
:10295000CBD7DC01EC91F0E0EE0FFF1FE359F64D11
:10296000808391830E94C11FDC01EC91F0E0EE0FA7
:10297000FF1FE359F64D8083918330D4DC01EC9145
:10298000F0E0EE0FFF1FE359F64D8083918364D78B
:10299000DC01EC91F0E0EE0FFF1FE359F64D808370
:1029A00091830E948B1EDC01EC91F0E0EE0FFF1F83
:1029B000E359F64D808391830E94C520DC01EC91A0
:1029C000F0E0EE0FFF1FE359F64D808391830E94E4
:1029D0001A1DDC01EC91F0E0EE0FFF1FE359F64DFC
:1029E000808391830E947624DC01EC91F0E0EE0F6D
:1029F000FF1FE359F64D808391830AD5DC01EC91EA
:102A0000F0E0EE0FFF1FE359F64D808391830F91A5
:102A10000895FC01438154812681658181819281E1
:102A20000C94D9250F931F93CF93DF930DE719E2F1
:102A3000F801C191D1918F01209739F4FAE20D3557
:102A40001F07B1F780E090E006C0E985FA85099597
:102A50008823A1F3CE01DF91CF911F910F910895AB
:102A6000DF92EF92FF920F931F93CF93DF93CDE707
:102A7000D7E200E010E0EE24E394F12CDD24DA94B8
:102A80008F819885892B81F5CE01C3DFCBDF8F83C2
:102A90009887009749F1DC011796ED91FC91189702
:102AA00061E0CE010995EF81F8850580F681E02D82
:102AB000309711F0CE01099520912223C701002EF5
:102AC00001C0880F0A94EAF7282B20932223EF8174
:102AD000F8850384F485E02D309711F0CE01099537
:102AE000F801ED5DFC4DD0820F5F1F4FEE96083070
:102AF000110531F6DF91CF911F910F91FF90EF906B
:102B0000DF900895CF92DF92EF92FF920F931F9381
:102B1000CF93DF936B017C018091C2258F5F8093FF
:102B2000C225C091C1258EE3C89FE0011124C3587E
:102B3000D84DCE016EDF0F8118850115110509F4FE
:102B400063C0D8011996ED91FC911A9709958111EE
:102B50001AC0EF81F8850780F085E02D60E0CE0196
:102B6000099581E090E00090C12502C0880F991F6F
:102B70000A94E2F780959091222398239093222340
:102B80001F82188641C0D8011D96ED91FC911E97B9
:102B9000309781F04DAD442369F0BE016B5E7F4FED
:102BA000CE0109951DAEE091C125F0E0ED5DFC4D33
:102BB0008FEF8083F80183859485892B29F189899A
:102BC0009A89AB89BC89B701A601481B590B6A0BCE
:102BD0007B0B83819481A0E0B0E0481759076A0716
:102BE0007B0790F0C98ADA8AEB8AFC8A0384F48531
:102BF000E02DCE010995882339F0E091C125F0E060
:102C0000ED5DFC4D8FEF80838091C1258F5F8770D4
:102C10008093C125DF91CF911F910F91FF90EF908D
:102C2000DF90CF90089584E797E29F938F9381EA96
:102C300092E09F938F930E94DF268BE697E29F930B
:102C40008F9384E992E09F938F930E94DF268DB744
:102C50009EB708968DBF9EBF0895EF92FF920F9387
:102C60001F93CF93DF93CDB7DEB72D97CDBFDEBFD8
:102C70008C879D87DC012C91233791F512960C915E
:102C8000005304968C879D87BEE30B9F800111241F
:102C90000358184DF80187819085892B09F4E6C007
:102CA00015AEF12C69EC72E2CE010C960E94182D43
:102CB000009791F0EE24E394EF0C4AE050E060E0DE
:102CC00070E00E949A2BF801EF0DF11DEF0DF11D40
:102CD000658B768BFE2CE6CFD801DD96FC92C6C0C4
:102CE0002536B1F40DE717E2D8011796ED91FC9166
:102CF0001897309731F00780F085E02D61E0C8012A
:102D00000995025C1F4FB9E20D361B0769F7AEC08B
:102D1000263709F044C01F9211E01F931F921F92A3
:102D200083E792E09F938F930E94DF261F921F9369
:102D30001F921F9280E692E09F938F930E94DF265E
:102D4000CE0101960E945E288F811F928F938E8103
:102D50001F928F938D811F928F938C811F928F93DF
:102D60008B811F928F938A811F928F9389811F92EB
:102D70008F938B851F928F938A851F928F9389855E
:102D80001F928F9388851F928F9387E292E09F9383
:102D90008F930E94DF26CDBFDEBF45DF67C02E3692
:102DA000B1F502968C879D876BEC72E2CE010C9692
:102DB0000E94182DDC018C918436A9F0853729F505
:102DC0006BEC72E2CE010C960E94182D0097E9F090
:102DD00048E050E0BC0184E797E20E94092D109280
:102DE0007C27DEDC12C06BEC72E2CE010C960E94F6
:102DF000182D009751F048E050E0BC018BE697E2B7
:102E00000E94092D10927327CBDC0DDF2FC02037D5
:102E100049F502968C879D876BEC72E2CE010C9689
:102E20000E94182D0E94CB2C81110EC081E192E0EE
:102E30009F938F930E94DF26809164068061809328
:102E400064060F900F9012C08CEF91E09F938F93C8
:102E50000E94DF26809164068F7E809364060F9027
:102E60000F9004C0243611F40E940C272D96CDBF7C
:102E7000DEBFDF91CF911F910F91FF90EF900895EA
:102E80002F923F924F925F926F927F928F929F927A
:102E9000AF92BF92CF92DF92EF92FF920F931F9368
:102EA000CF93DF93CDB7DEB76197CDBFDEBF8C0187
:102EB00081E0D80119968C93AE014F5F5F4F64E9B2
:102EC00089E20E944426AE014F5F5F4F66E989E2C6
:102ED0000E9444262C01612C712CAE014F5F5F4F84
:102EE00068E989E20E9444264C01A12CB12CAE0174
:102EF0004F5F5F4F6AE989E20E9444269C0140E0EF
:102F000050E02E833F8348875987382D292D9A2DED
:102F10008B2D84149504A604B70420F4342D252D9C
:102F2000962D872DC32ED22EE92EF82E8E819F81CD
:102F3000A885B985C816D906EA06FB0610F46C0107
:102F40007D01382D292D9A2D8B2D481459046A04A2
:102F50007B0420F4342D252D962D872D3A832B8349
:102F60009C838D832A813B814C815D818E819F81F1
:102F7000A885B98582179307A407B50720F48A832B
:102F80009B83AC83BD83A30192018A819B81AC8129
:102F9000BD81281B390B4A0B5B0BAFEFB0E00E94E1
:102FA000112A6A877B878C879D87A50194018A8176
:102FB0009B81AC81BD81281B390B4A0B5B0BAFEFAA
:102FC000B0E00E94112AA70196010E94EF29290171
:102FD0003A012E813F81488559858A819B81AC8148
:102FE000BD81281B390B4A0B5B0BAFEFB0E00E9491
:102FF000112AA70196010E94EF2949015A01D8011F
:103000001C962D903C901D971E96ED91FC911F975C
:10301000EA83FB836A857B858C859D85A701960164
:103020000E94EF29D8011A968D919C911B97821BC3
:10303000930B97FF03C09195819591090697B4F47E
:103040002418350837FE03C0319421943108B6E0C6
:103050002B1631045CF48A819B818819990997FFAA
:1030600003C091958195910906974CF19F928F929B
:103070005F924F923F932F93D8011796ED91FC9159
:10308000189782818F9381818F938C911F928F9358
:1030900086ED92E09F938F932E873F87488B598BC5
:1030A0000E94DF262E853F85F801228733874486DC
:1030B000558686869786CDBFDEBF81E001C080E061
:1030C0006196CDBFDEBFDF91CF911F910F91FF9031
:1030D000EF90DF90CF90BF90AF909F908F907F90B8
:1030E0006F905F904F903F902F900895CF93DF9314
:1030F0001F92CDB7DEB7BE016F5F7F4F89E20E949E
:10310000E6250F90DF91CF910895CF93DF9300D004
:10311000CDB7DEB79E012E5F3F4F43E060E889E206
:103120000E945E26AE014F5F5F4F62E989E20E9416
:1031300001269E012E5F3F4F843431F445ED61E856
:1031400089E20E945E260DC04DEE61E889E20E9490
:103150005E269E012E5F3F4F40E067E889E20E94B5
:103160005E2681E00F900F90DF91CF910895FC01D2
:103170006623D9F0613089F5A781B08512968C91CC
:1031800012978F9311968C918F9380811F928F93BA
:103190008CEC92E09F938F930E94DF260F900F900C
:1031A0000F900F900F900F900895A781B085129601
:1031B0008C9112978F9311968C918F9380811F928F
:1031C0008F9382EC92E09F938F930E94DF260F9063
:1031D0000F900F900F900F900F90089586E590E25A
:1031E0000895EF92FF920F931F93CF93DF9300D038
:1031F000CDB7DEB78B017A019E012F5F3F4FFB01F8
:10320000408162E085E10E945E26F801808180FFB6
:1032100017C0F6E0EF16F10499F40E5F1F4F93E02C
:10322000F80140810E5F1F4F9E012F5F3F4F692FB6
:1032300085E19A830E945E269A819F5F983081F78C
:103240000F900F90DF91CF911F910F91FF90EF9012
:103250000895EF92FF920F931F93CF93DF931F92E6
:10326000CDB7DEB78C01AE014F5F5F4F60E085E107
:103270000E9428267C01D80119962D913C911A971D
:10328000281B390B37FF03C03195219531092530B3
:103290003105DCF0FF92EF92D8011796ED91FC9189
:1032A000189782818F9381818F938C911F928F9336
:1032B0008CEE92E09F938F930E94DF26F801E186C7
:1032C000F286CDBFDEBF81E001C080E00F90DF91CC
:1032D000CF911F910F91FF90EF900895CF93DF93BF
:1032E0001F92CDB7DEB7BE016F5F7F4F85E10E94B1
:1032F000E6250F90DF91CF91089585E690E208953D
:10330000BF92CF92DF92EF92FF920F931F93CF93D2
:10331000DF931F92CDB7DEB78C01AE014F5F5F4FD9
:1033200060E082E10E940126B82EAE014F5F5F4F40
:1033300061E082E10E9428267C01AE014F5F5F4F71
:1033400063E082E10E9428266C018B2D8170B82EEB
:10335000D80119968C9119971C964D915C911D97E7
:103360001A962D913C911B972E193F0937FF03C0E8
:10337000319521953109233031056CF49A012C19CE
:103380003D0937FF03C031952195310923303105BF
:1033900014F48B1511F1DF92CF92FF92EF921F92EE
:1033A000BF92D8011796ED91FC91189782818F9367
:1033B00081818F938C911F928F9329EF32E03F93FD
:1033C0002F930E94DF26F801B186E286F386C48639
:1033D000D586CDBFDEBF81E001C080E00F90DF91D8
:1033E000CF911F910F91FF90EF90DF90CF90BF9002
:1033F0000895CF93DF931F92CDB7DEB7BE016F5F05
:103400007F4F82E10E94E6250F90DF91CF910895D2
:1034100084E790E20895CF93DF931F92CDB7DEB794
:10342000AE014F5F5F4F62E989E30E94012691E0A0
:10343000843409F090E0892F0F90DF91CF910895A7
:10344000CF93DF931F92CDB7DEB7BE016F5F7F4F83
:1034500089E30E94E6250F90DF91CF910895CF93E5
:10346000DF931F92CDB7DEB79E012F5F3F4F43E042
:1034700060E889E30E945E26CEDF9E012F5F3F4F0A
:10348000882331F045ED61E889E30E945E260DC096
:103490004DEE61E889E30E945E269E012F5F3F4F5B
:1034A00040E067E889E30E945E2681E00F90DF91AB
:1034B000CF9108952F923F924F925F927F928F9279
:1034C0009F92AF92BF92CF92DF92EF92FF920F93B3
:1034D0001F93CF93DF931F92CDB7DEB78C019BDF95
:1034E000B82E882309F48DC081E0D80119968C93F9
:1034F000AE014F5F5F4F66E989E30E9444266C018D
:10350000AE014F5F5F4F68E989E30E9444267C016A
:10351000AE014F5F5F4F6AE989E30E944426FC01D8
:103520009E2D8F2DEC14FD0410F49C2D8D2D292F34
:10353000382F2E173F0708F49F014FEF4C9DC00115
:103540004D9D900D1124B9010E94DB296B014E9D08
:10355000C0014F9D900D1124B9010E94DB297B0110
:103560004E9FC0014F9F900D1124B9010E94DB298D
:103570004B01F801248535854685578582859385DD
:103580008C199D0997FF03C0919581959109069724
:10359000A4F42E193F0937FF03C031952195310955
:1035A0002630310554F4CA018819990997FF03C0E0
:1035B000919581959109069714F19F928F92FF92B0
:1035C000EF92DF92CF92D8011796ED91FC91189768
:1035D00082818F9381818F938C911F928F9388E446
:1035E00093E09F938F930E94DF26F801C286D386D3
:1035F000E486F58686869786CDBFDEBFB7C0B12C40
:10360000B5C0D80119961C92AE014F5F5F4F64E9B7
:1036100089E30E944426A82E992EAE014F5F5F4F8A
:1036200066E989E30E944426882E792EAA2DB92DB9
:103630002AE13AEC47E050E00E94112A6C01EE24A6
:10364000FF24A82DB72D0E94112A1C0144245524C3
:10365000C114D104E104F10471F0C201B1013AE0F6
:10366000660F771F881F991F3A95D1F7A70196011A
:103670000E94EF2903C020E030E0A901DA01C9016E
:103680000196A11DB11DB695A795979587958B3984
:103690009105A105B105A0F0843C9105A105B105F6
:1036A000A0F0873E9105A105B105A0F085319140BC
:1036B000A105B105A0F4EAE9F9E1AFEDBFE013C05F
:1036C000E1E7FDE3A8E4B1E20EC0E0E3FBE5A7E338
:1036D000BAE209C0E9EBFDE2AFEEB8E104C0E0E018
:1036E000F0E0A0E0B0E0A70196010E94112A6B0172
:1036F0007C0120E8D21AE108F108DF01A201910162
:103700000E94112AC61AD70AE80AF90A6701EE24AC
:10371000FF24D8011A968D919C911B97F601E81B06
:10372000F90BCF01F7FF03C0919581959109069799
:10373000ECF0FF92EF92DF92CF927F928F929F9266
:10374000AF9282EE92E29F938F93D8018C911F9259
:103750008F9384E393E09F938F930E94DF26F80179
:10376000C286D386E486F586CDBFDEBF8B2D0F9053
:10377000DF91CF911F910F91FF90EF90DF90CF904D
:10378000BF90AF909F908F907F905F904F903F90B1
:103790002F900895CF93DF93EC01662379F1613088
:1037A00009F057C038DE28818823A9F0EF81F88519
:1037B00082818F9381818F931F922F938AE293E06E
:1037C0009F938F930E94DF260F900F900F900F9082
:1037D0000F900F903EC082EE92E29F938F931F92C4
:1037E0002F9380E293E09F938F930E94DF260F90A8
:1037F0000F900F900F900F900F902BC0898528810C
:103800008130A9F4EF81F88582818F9381818F9334
:103810001F922F9386E193E09F938F930E94DF2660
:103820000F900F900F900F900F900F9012C082EE9C
:1038300092E29F938F931F922F938CE093E09F933C
:103840008F930E94DF260F900F900F900F900F9094
:103850000F90DF91CF91089583E890E20895EF9261
:10386000FF920F931F93CF93DF9300D0CDB7DEB7B6
:103870007B018B0191E0F80140810E5F1F4F9E019B
:103880002F5F3F4F692F80E69A830E945E269A81C0
:103890009F5F993081F79E012F5F3F4FF70140896D
:1038A00069E180E60E945E269E012F5F3F4F4FEF49
:1038B0006CE080E60E945E260F900F90DF91CF9122
:1038C0001F910F91FF90EF900895CF93DF931F9278
:1038D000CDB7DEB7BE016F5F7F4F80E60E94E62561
:1038E0000F90DF91CF91089582E990E20895AF9211
:1038F000BF92CF92DF92EF92FF920F931F93CF93DD
:10390000DF931F92CDB7DEB78C01AE014F5F5F4FE3
:1039100068E28DE10E9444266C01AE014F5F5F4F6B
:103920006AE28DE10E9444267C01AE014F5F5F4F49
:103930006CE28DE10E9444265C01D8011B964D91FA
:103940005C911C971D968D919C911E9719962D91B7
:103950003C911A972C193D0937FF03C031952195E9
:10396000310927393105ACF49A012E193F0937FF87
:1039700003C03195219531092739310554F48A194D
:103980009B0997FF03C0919581959109873991050E
:103990001CF1BF92AF92FF92EF92DF92CF92D801CB
:1039A0001796ED91FC91189782818F9381818F9367
:1039B0008C911F928F938BE593E09F938F930E943E
:1039C000DF26F801C186D286E386F486A586B68610
:1039D000CDBFDEBF81E001C080E00F90DF91CF91CD
:1039E0001F910F91FF90EF90DF90CF90BF90AF901D
:1039F0000895CF93DF931F92CDB7DEB7BE016F5FFF
:103A00007F4F8DE10E94E6250F90DF91CF910895C1
:103A1000CF93DF931F92CDB7DEB79E012F5F3F4F4D
:103A20004FE360E28DE10E945E2681E00F90DF911E
:103A3000CF91089581EA90E20895CF93DF931F928A
:103A4000CDB7DEB7FB0130812181822F8095881FA1
:103A50008827881F42E0481B832F922F97FF03C0BF
:103A60009195819591098034910514F08FE390E050
:103A70009C012B5F3F4F2B30310530F0880F991F91
:103A8000880F991F482B01C040E09E012F5F3F4FD8
:103A900060E084E60E945E260F90DF91CF9108954A
:103AA000CF93DF931F92CDB7DEB7BE016F5F7F4F1D
:103AB00084E60E94E6250F90DF91CF91089580EB78
:103AC00090E20895EF92FF920F931F93CF93DF93AD
:103AD000CDB7DEB72C97CDBFDEBF8B01FE0131968F
:103AE0008AE0DF011D928A95E9F7FB01308181E0D0
:103AF00037FF80E0D80112962C9127FF02C042E0E8
:103B000001C040E0482BF801948197FF02C084E097
:103B100001C080E0542F582BD80116968C9187FF56
:103B200002C048E001C040E0452B498341E036FF38
:103B300040E026FF02C052E001C050E0452B96FF56
:103B400002C054E001C050E0542B86FF02C048E0A0
:103B500001C040E0452B4A8341E035FF40E025FFAE
:103B600002C052E001C050E0452B95FF02C054E076
:103B700001C050E0542B85FF02C048E001C040E086
:103B8000452B4B8341E034FF40E024FF02C052E06C
:103B900001C050E0452B94FF02C054E001C050E04A
:103BA000542B84FF02C048E001C040E0452B4C8309
:103BB00041E033FF40E023FF02C052E001C050E08B
:103BC000452B93FF02C054E001C050E0542B83FF0B
:103BD00002C048E001C040E0452B4D8341E032FF88
:103BE00040E022FF02C052E001C050E0452B92FFAE
:103BF00002C054E001C050E0542B82FF02C048E0F4
:103C000001C040E0452B4E8341E031FF40E021FF01
:103C100002C052E001C050E0452B91FF02C054E0C9
:103C200001C050E0542B81FF02C048E001C040E0D9
:103C3000452B4F8341E030FF40E020FF02C022E0EF
:103C400001C020E0422B90FF02C094E001C090E050
:103C5000942B80FF02C088E001C080E0892B888718
:103C6000F80180859185019711F480E18987D80159
:103C70001A968D919C911B97019711F480E28A8787
:103C8000FE0131967F0191E0D7014D917D019E01AA
:103C9000255F3F4F692F83E69C870E945E269C85A7
:103CA0009F5F9B3089F79E01255F3F4FF801448558
:103CB00069E183E60E945E269E01255F3F4F4FEF3C
:103CC0006CE083E6FBD72C96CDBFDEBFDF91CF91B2
:103CD0001F910F91FF90EF900895CF93DF931F9264
:103CE000CDB7DEB79E012F5F3F4F42E060E083E635
:103CF000E5D70F90DF91CF910895CF93DF931F9277
:103D0000CDB7DEB7BE016F5F7F4F83E65FD70F9001
:103D1000DF91CF9108958FEB90E20895EF92FF929B
:103D20000F931F93CF93DF9300D0CDB7DEB78B01F6
:103D30007A019E012F5F3F4FFB01408162E086E1E7
:103D4000BDD7F801808180FF16C0F6E0EF16F104C0
:103D500091F40E5F1F4F93E0F80140810E5F1F4FFB
:103D60009E012F5F3F4F692F86E19A83A7D79A81E3
:103D70009F5F983089F70F900F90DF91CF911F913F
:103D80000F91FF90EF900895EF92FF920F931F9382
:103D9000CF93DF931F92CDB7DEB78C01AE014F5F9B
:103DA0005F4F60E086E154D77C01D80119962D91D0
:103DB0003C911A97281B390B37FF03C03195219589
:103DC000310925303105D4F0FF92EF92D8011796D2
:103DD000ED91FC91189782818F9381818F938C91C3
:103DE0001F928F938EE693E09F938F93E8D7F8010D
:103DF000E186F286CDBFDEBF81E001C080E00F909A
:103E0000DF91CF911F910F91FF90EF900895CF9385
:103E1000DF931F92CDB7DEB7BE016F5F7F4F86E1A4
:103E2000D5D60F90DF91CF9108958EEC90E2089552
:103E3000CF93DF931F92CDB7DEB79E012F5F3F4F29
:103E400041E060E084E53AD79E012F5F3F4F4FEF9E
:103E500063E184E533D79E012F5F3F4F4FEF64E16D
:103E600084E52CD79E012F5F3F4F4FEF65E184E53E
:103E700025D79E012F5F3F4F40E066E184E51ED7C6
:103E80000F90DF91CF910895EF92FF920F931F93C0
:103E9000CF93DF93CDB7DEB76097CDBFDEBFDB0139
:103EA000433011F5FC901296EC90129714960C91F9
:103EB00011E09E01205F3F4F4E2D612F84E5FED61D
:103EC00061E0610F9E01205F3F4F4F2D84E5F6D6E4
:103ED00062E0610F9E01205F3F4F402F84E5EED6E8
:103EE0001D5F103131F72EC04F3061F5CE010196C4
:103EF000FC0111924A95E9F78B01FE0133969E0170
:103F00002E5E3F4FAF0142505109D80112966C917D
:103F1000DA016C934F5F5F4FD8016C91DA016C93BB
:103F2000D80114964C9140830A5F1F4F3396E217D5
:103F3000F30741F78E01005F1F4F2FE0AC0161E0F6
:103F400084E5DCD69E01205F3F4F40E066E184E5DA
:103F5000B5D66096CDBFDEBFDF91CF911F910F9197
:103F6000FF90EF900895CF93DF931F92CDB7DEB708
:103F7000BE016F5F7F4F84E529D60F90DF91CF910F
:103F800008958DED90E208956F927F928F929F92A7
:103F9000AF92BF92CF92DF92EF92FF920F931F9357
:103FA000CF93DF931F92CDB7DEB78C01AE014F5F89
:103FB0005F4F60E08CE225D6982E80FF71C0AE0185
:103FC0004F5F5F4F63E08CE21CD68C73882E82E0DB
:103FD000E82EF12C712CAA24A394B12C2BE7C22E2D
:103FE00023E0D22E95010E2C01C0220F0A94EAF78D
:103FF0002821D9F0AE014F5F5F4F60E16E0D8CE27A
:1040000000D6682EAE014F5F5F4F60E36E0D8CE20D
:10401000F8D5F801EE0DFF1D91E068160CF490E064
:104020008781981711F0978302C0772039F1D80162
:1040300019968C9119971F928F931A968C911A97B3
:104040001F928F931B968C911B971F928F931C9698
:104050008C911C971F928F931796ED91FC91189756
:1040600082818F9381818F938C911F928F93DF92A6
:10407000CF92A5D6CDBFDEBF77247394FFEFEF1AA2
:10408000FF0A86E0E816F10409F0ACCF492D4E7F17
:104090009E012F5F3F4F60E08CE210D6872D01C05C
:1040A00080E00F90DF91CF911F910F91FF90EF90E3
:1040B000DF90CF90BF90AF909F908F907F906F9048
:1040C0000895CF93DF931F92CDB7DEB79E012F5F88
:1040D0003F4F40E060E08CE2F1D59E012F5F3F4F03
:1040E00040E360E28CE2EAD59E012F5F3F4F40E45F
:1040F00064E48CE2E3D59E012F5F3F4F4CE361E225
:104100008CE2DCD59E012F5F3F4F48E064E28CE2F9
:10411000D5D59E012F5F3F4F40E66FE18CE2CED5B3
:104120009E012F5F3F4F4CE362E78CE2C7D59E01B3
:104130002F5F3F4F40E068E28CE2C0D59E012F5FC9
:104140003F4F40E06AE28CE2B9D59E012F5F3F4FBE
:1041500040EC63E98CE2B2D59E012F5F3F4F42E015
:1041600064E98CE2ABD50F90DF91CF910895CF93A6
:10417000DF931F92CDB7DEB7BE016F5F7F4F8CE23A
:1041800025D50F90DF91CF9108958CEE90E20895A0
:10419000CF93DF931F92CDB7DEB79E012F5F3F4FC6
:1041A00049E464EF87E78AD581E00F90DF91CF91F2
:1041B0000895FF920F931F93CF93DF931F92CDB774
:1041C000DEB7F82EAE014F5F5F4F682F87E740D50F
:1041D0008C0162E06F0DAE014F5F5F4F87E711D535
:1041E000A80160E070E094E0440F551F661F771F40
:1041F0009A95D1F782958F70480F511D611D711DE1
:10420000CB01BA010F90DF91CF911F910F91FF90D9
:104210000895CF93DF931F92CDB7DEB7BE016F5FD6
:104220007F4F87E7D3D40F90DF91CF910895CF933D
:10423000DF931F92CDB7DEB7682FAE014F5F5F4FA0
:1042400087E7683811F06E3829F41ED5BC0180E08C
:1042500090E006C019D5BC01882777FD8095982F7E
:104260000F90DF91CF9108952F923F924F925F92DE
:104270006F927F928F929F92AF92BF92CF92DF9276
:10428000EF92FF920F931F93CF93DF93CDB7DEB7DB
:10429000E697CDBFDEBF8FA398A7AE014E5F5F4FFD
:1042A00063EF87E7AED483FD0AC38AEF82DF6B0139
:1042B0007C01AE014F5F5F4F68E887E7E5D42C01D2
:1042C000612C712CA7019601A3E055954795379570
:1042D0002795AA95D1F7D301C201880F991FAA1F6C
:1042E000BB1F281B390B4A0B5B0B8AE82BAB3CAB83
:1042F0004DAB5EAB9CDF4B015C0104E0F594E794B1
:10430000D794C7940A95D1F7C418D508E608F708DA
:104310008CE88DDF2B013C012BA93CA94DA95EA99E
:10432000C501B4010E94CC298B019C018BE035951D
:104330002795179507958A95D1F70B8B1C8B2D8B9D
:104340003E8BA7019601C701B6010E94CC299B01B3
:10435000AC019CE055954795379527959A95D1F7EF
:10436000C301B2010E94CC292EE0959587957795DF
:1043700067952A95D1F72B893C894D895E89260F4F
:10438000371F481F591F2B8B3C8B4D8B5E8B87EF44
:1043900010DF6DA77EA78FA798ABCB88DC88ED8850
:1043A000FE88FF0CCC08DC2C76012B893C894D89DA
:1043B0005E896C2D7C2D8C2D9C2D345F41405109E4
:1043C00061097109810991092F8B388F498F5D8FA0
:1043D0001B014C0159016A017B018C010E941B2ABF
:1043E0002BA33CA34DA35EA369A77AA78BA79CA789
:1043F00088E91DDF2B013C0186E919DF6B877C878B
:104400008D879E8784E913DF6F87788B898B9A8BE2
:1044100082E90DDF6B837C838D839E8380E907DFD8
:104420009B01AC01550F220B322FA9015B016C01DE
:10443000E22EF22E022F122F2F89388D498D5D8D9D
:10444000B101C401F8D70CE00E94362B28A339A390
:104450004A8F5B8F6C8F7AA389AB9AABAE014F5FAB
:104460005F4F6EE887E710D48E8F9F8F8B819C8182
:10447000AD81BE81BB0F880B982FDC01AB80BC8067
:10448000CD80DE80E82EF82E082F182F2BA13CA11E
:104490004DA15EA169A57AA58BA59CA5CCD708E006
:1044A0000E944F2BA8A0B9A0CA8CDB8CEC8CFAA080
:1044B00009A91AA90E946D2B70588F4F9F4FCE8C5F
:1044C000DF8C5601C12CD12CE12CF12C8701AB8261
:1044D000BC82CD82DE82EF82F88609871A87C12CE2
:1044E000D12CE12CF12C00E010E0A5D701E20E94D4
:1044F0004F2B2B833E8F48A359A36A8F7B8F8C8FC2
:104500009AA3A0E00E947F2B09F4A1C1D301C201AC
:10451000BB0F880B982FDC0152016301E82EF82EA7
:10452000082F182F2BA13CA14DA15EA169A57AA54A
:104530008BA59CA580D72BA33CA3742E652E562E4D
:10454000472E8DA39EA38B859C85AD85BE85BB0F15
:10455000880B982FDC01AB84BC84CD84DE84E82EEC
:10456000F82E082F182F2F89388D498D5D8DB101B8
:10457000C40161D701E10E94362B59016A017B0118
:104580008C012BA13CA1472D562D652D742D8DA19D
:104590009EA10E946D2B722E832E642E452E262EF8
:1045A0007B878F8B988F80E090E0A0E1B0E0EDA456
:1045B000FEA40FA518A98E199F09A00BB10B6C01C1
:1045C0007D01FF0CCC08DC2C76019C01AD016C2D2B
:1045D0007C2D8C2D9C2D0FE10E94362B298F332EA4
:1045E000542E952EB62FA72FF82FE92FCF84D888D9
:1045F000E988FA88FF0CCC08DC2C76012F853889F5
:1046000049895A896C2D7C2D8C2D9C2D03E20E94AA
:10461000362B59016A017B018C01272D382D462D3F
:10462000542D622D7B858F89988D0E946D2B5901A9
:104630006A017B018C01298D332D452D592D6B2F5E
:104640007A2F8F2F9E2F0E94762BA22FF32FE42FED
:10465000952E862E772E682E592E03E00E94362B3B
:10466000AA2EBF2ECE2ED92CE82CF72C062D152DD8
:104670000E94762B59016A017B01B82F192F03E0A4
:10468000F5D70B2F0E94762B03E0F0D7AA2EBF2E72
:10469000CE2ED92CE82CF72C062D152D0E94762B2A
:1046A00002E0E4D7062D0E94762B01E0DFD7062D2D
:1046B0000E94762BAB80BE8CC8A0D9A0EA8CFB8C64
:1046C0000C8D1AA10BD72B833F8B488F598F6D8F81
:1046D0007E8F88A399A38EE9AADD2B013C012B8153
:1046E0003F89488D598D6D8D7E8D88A199A10DE0F2
:1046F000D6D7922E832E342E252E6A8F7B8F8C8FC9
:104700009AA38CE994DD6B877C878D879E879301C4
:104710008201330F000B102F98010F87188B298B04
:104720003A8BA92CB82CC32CD22CEA8CFB8C0C8D88
:104730001AA19201A3016F85762F862F962F7BD623
:104740007AD609E1ACD759016A017B018C012B8132
:104750003F89488D598D6D8D7E8D88A199A1BDD7DA
:10476000922E832E342E252E6F877A8F8B8F9C8FDF
:104770004B845C846D847E84770C4408542C320115
:10478000AB80BF88C88CD98CED8CFE8C08A119A198
:104790002B853C854D855E85642D742D842D942D4F
:1047A0004AD603E17CD759016A017B018C01292D8E
:1047B000382D432D522D6F857A8D8B8D9C8D8DD705
:1047C00008E06DD719012A013B014C018AE92FDD70
:1047D0006B017C01FF0CCC08DC2C76019B01AC0149
:1047E0006C2D7C2D8C2D9C2D04E040D759016A0145
:1047F0007B018C019101A201B301C4016ED7D22EBD
:10480000E32EF42E052F162FB72FF82FE92FA0E057
:1048100076D784F421503F4F4F4F5F4F6F4F7F4FFC
:104820008F4F9F4FD22EE32EF42E052F162FB72F2A
:10483000F82FE92F2D2D3E2D4F2D502F612F7B2F3F
:104840008F2F9E2F08E02BD7C901242F04C080E0B2
:1048500090E020E050E05F932F939F938F93A5E02B
:10486000B0E02B893C894D895E89DBD560587F4F4C
:104870008F4F9F4FBB2797FDBA95A92F982F872F52
:10488000BF93AF939F938F93AFA1B8A51796ED9168
:10489000FC91189782818F9381818F938C911F92C5
:1048A0008F9381E993E09F938F9389D29E012E5F2E
:1048B0003F4F49E464EF87E701D2CDBFDEBF80E020
:1048C000E696CDBFDEBFDF91CF911F910F91FF9094
:1048D000EF90DF90CF90BF90AF909F908F907F90A0
:1048E0006F905F904F903F902F9008958BEF90E2E4
:1048F0000895E0916E2AF0916F2A81E090E0009097
:104900006D2A02C0880F991F0A94E2F7868381837B
:1049100080E58A95F1F7E091702AF091712A81E0A3
:1049200090E00090722A02C0880F991F0A94E2F763
:104930008683818380E58A95F1F70895E091702A56
:10494000F091712A81E090E00090722A02C0880FF5
:10495000991F0A94E2F7828380E58A95F1F7E09146
:104960006E2AF0916F2A81E090E000906D2A02C0DB
:10497000880F991F0A94E2F7828380E58A95F1F700
:10498000089521E030E002C0220F331F6A95E2F75C
:10499000DC0112962C93E0E0B0E5BA95F1F7EF5FF9
:1049A000DC0118966C9170E062237323672B19F475
:1049B000EA3091F702C0EA3019F482E0FA0180830C
:1049C0000895E0916E2AF0916F2A21E030E0009086
:1049D0006D2A02C0220F331F0A94E2F7228320E5DA
:1049E0002A95F1F7E091702AF091712A21E030E0E8
:1049F0000090722A02C0220F331F0A94E2F722832A
:104A0000E0E5EA95F1F7E0916E2AF0916F2A2085B2
:104A100030E000906D2A02C0359527950A94E2F7A0
:104A200020FD02C023E001C024E0FC012083E091CE
:104A3000702AF091712A81E090E00090722A02C001
:104A4000880F991F0A94E2F786838183F0E5FA952F
:104A5000F1F7E0916E2AF0916F2A81E090E00090EA
:104A60006D2A02C0880F991F0A94E2F7868381831A
:104A700020E52A95F1F70895CF93DF9348E050E0C1
:104A800021E030E0E0916E2AF0916F2AA0916D2A2A
:104A9000E90102C0CC0FDD1FAA95E2F787FF02C033
:104AA000C28302C0C683C183D0E5DA95F1F7E091F5
:104AB000702AF091712AD9010090722A02C0AA0FBF
:104AC000BB1F0A94E2F7A28390E59A95F1F7E09173
:104AD000702AF091712AD9010090722A02C0AA0F9F
:104AE000BB1F0A94E2F7A683A183C0E5CA95F1F73C
:104AF000880F415051094115510521F6CB01DF9135
:104B0000CF915FCFDF92EF92FF920F931F93CF93DE
:104B1000DF938C01E0916E2AF0916F2A21E030E062
:104B200000906D2A02C0220F331F0A94E2F72283FD
:104B3000C8E0D0E0D12CEE24E394F12CA8016091E0
:104B4000722A8091702A9091712A1BDF80E58A95E4
:104B5000F1F7E0916E2AF0916F2A208530E0009005
:104B60006D2A02C0359527950A94E2F72170332704
:104B7000DD0CD22AE091702AF091712A9701009001
:104B8000722A02C0220F331F0A94E2F72683218380
:104B900080E58A95F1F72197209781F6C80111DF0A
:104BA0008D2DDF91CF911F910F91FF90EF90DF90AE
:104BB000089580936E2A90936F2A60936D2A409394
:104BC000702A5093712A2093722A08950F931F938D
:104BD000CF93DF931F92CDB7DEB78B01898389DE38
:104BE000B8018981880F48DFA9DE81E0F801908152
:104BF000933009F080E00F90DF91CF911F910F91DA
:104C00000895EF92FF920F931F93CF93DF931F921C
:104C1000CDB7DEB7062F7A01182F110F6ADEB70164
:104C2000812F2ADFB701802F27DF88DE62DEB70100
:104C3000812F816021DFC70165DF89837FDE898164
:104C40000F90DF91CF911F910F91FF90EF900895FA
:104C5000FF920F931F93CF93DF93182F062FEA0134
:104C6000D0DFF82E61E0600FAE01812FCADF2F2D5B
:104C700030E0322F2227A901482BCA01DF91CF91C2
:104C80001F910F91FF900895FF920F931F93CF9361
:104C9000DF93182F062FEA01B4DFF82E61E0600FD2
:104CA000AE01812FAEDF2F2D30E0A901582BCA01B4
:104CB000DF91CF911F910F91FF900895EF92FF9296
:104CC0001F93CF93DF9300D0CDB7DEB7162F7901B6
:104CD0004A8389830EDEB7018981880FCDDEB70153
:104CE000812FCADEB7014A81842FC6DE0F900F9054
:104CF000DF91CF911F91FF90EF9020CEAF92BF92A6
:104D0000CF92DF92EF92FF920F931F93CF93DF9397
:104D10001F92CDB7DEB7D62E7A01C22E8983E9DD88
:104D2000B8018981880FA8DEB8018D2DA5DE570155
:104D3000D12CC5018E199F098C159D0534F4B8013D
:104D4000F50181915F0198DEF4CF0F90DF91CF9153
:104D50001F910F91FF90EF90DF90CF90BF90AF9099
:104D6000EDCDCF93C82F0E948305882339F08C2F77
:104D7000992787FD9095CF910C94CB05CF910895FD
:104D8000EF92FF921F93CF93DF931F92CDB7DEB7C1
:104D9000182F99830E9483059981882349F0E12E79
:104DA000F92EF70181917F01882311F0DADFF9CF25
:104DB0000F90DF91CF911F91FF90EF900895CF93C7
:104DC000DF93CDB7DEB70E948305882359F0AE018B
:104DD000495F5F4F6D817E8183EC95E249D683EC1C
:104DE00095E2CEDFDF91CF910895CF93DF9300D08E
:104DF000CDB7DEB72091792A30917A2A2115310575
:104E000011F42FE73AE2CE010196821B930B0F902B
:104E10000F90DF91CF910895AF92BF92CF92DF9222
:104E2000EF92FF920F931F93CF93DF9380E794E06D
:104E30009F938F93C4DFD9DF9F938F938EE594E088
:104E40009F938F93BCDFD1DF9F938F9380E494E097
:104E50009F938F93B4DFC9DF9F938F9383E394E095
:104E60009F938F93ACDF60914A2770914B2780917D
:104E70004C2790914D279F938F937F936F9328EEAC
:104E800033E040E050E0ABD25F934F933F932F93DA
:104E900089E094E09F938F9392DF20914A2730918D
:104EA0004B2740914C2750914D2780914E27909150
:104EB0004F27A0915027B0915127280F391F4A1F23
:104EC0005B1F60E472E48FE090E089D25F934F93C0
:104ED0003F932F9389ED93E09F938F9370DF88EC3E
:104EE00093E09F938F936BDF04E817E28DB79EB733
:104EF00080968DBF9EBFC0E0D0E08AEBE82E83E0B5
:104F0000F82E93EAC92E93E0D92E2CEAA22E23E0A4
:104F1000B22EDF93CF93FF92EF9251DFD801ED9144
:104F2000FC910F900F900F900F90309789F0808137
:104F30001F928F9382818F9381818F93BF92AF92C3
:104F40003EDF0F900F900F900F900F900F9009C0C1
:104F5000DF93CF93DF92CF9232DF0F900F900F90BD
:104F60000F902196025C1F4FC830D10591F6DF915A
:104F7000CF911F910F91FF90EF90DF90CF90BF9056
:104F8000AF9008959FB7F894E0E5F0E02081822B80
:104F900080839FBF08959FB7F894A0E5B0E0169670
:104FA0008C911697897F16968C931697E0E6F0E021
:104FB00080E885838BEB868316968C9116978460A8
:104FC00016968C938081816080839FBF0895CF93D4
:104FD000DF9300D000D0CDB7DEB78FEF80937000A5
:104FE00080937100809372008093730080937400AB
:104FF000809375008093760064E081E490E08FD028
:105000006CE170E082E081D08C836DE170E082E041
:105010007CD08B838B819C81019621F480E493E288
:105020008B839C838B819C8189839A83809362008C
:105030008A818093630082E0A5DF8091510081FF27
:10504000FCCFA9DF61E080E490E069D09FB7F894DD
:10505000809150008E7F809350009FBF2496CDBFDB
:10506000DEBFDF91CF9108959FB7F894E82FF0E06D
:10507000E059FF4F60958081862380839FBF08950C
:10508000CF93863011F4C8E101C0C0E08091510097
:1050900081FD07C082E076DF8091510081FFFCCF67
:1050A0007ADF6C2F636084E490E039D060E480E0C4
:1050B000CF91DACF682F70E082E027C0CF93DF93E3
:1050C000EC0188E0F7DF888389E0F4DF89838AE0F8
:1050D000F1DF8A838BE0EEDF8B838CE0EBDF8C8368
:1050E0008DE0E8DF8D8380E1E5DF8E8382E1E2DF22
:1050F0008F8383E1DFDF888784E1DCDF898785E1D7
:10510000D9DF8A87DF91CF9108954091CA01E62FB8
:10511000F72F8093CA0184914093CA0108951BBE62
:10512000FC0128ED24BF6083089508958091C42672
:105130009091C526A091C626B091C726C296A11D02
:10514000B11D8093C4269093C526A093C626B09324
:10515000C7260C9480020E94D8139DEF88ED08B6F4
:1051600018BE84BF9093800008BE0E94471487E059
:105170008093A20078941092732A1092742A10924D
:10518000752A1092762A1092772AC1E0C093782A65
:105190001EDFCBDF8FEF8093000680E180936006F7
:1051A000809164068F7E8093640688E18093750603
:1051B00087E080938006C093860682E0809386060F
:1051C00084E0809386060E94980680E098E00E9422
:1051D000790D66E978E280E098E00E94B40D809154
:1051E0000108887F8093010880EB94E08093260873
:1051F00090932708809106088C7F80930608809101
:10520000060883608093060880910008807F816093
:1052100080930008B12CC7EAD4E0AA24A39407E83D
:1052200014E08091680685FD0BC08091C82681112D
:1052300007C0DF93CF93C3DDA092C8260F900F90D5
:105240008091680685FF0BC08091C826882339F0BD
:105250001F930F93B4DD1092C8260F900F9080918A
:10526000C926882311F1C090C426D090C526E090AD
:10527000C626F090C7268AEC96E20E942D16109260
:10528000C9268091C4269091C526A091C626B091CA
:10529000C7268C199D09AE09BF0980934E279093AC
:1052A0004F27A0935027B0935127B11002C00E94FE
:1052B0003015B394C090C426D090C526E090C62681
:1052C000F090C7266091C4267091C5268091C626AD
:1052D0009091C7260E9482158091C4269091C52680
:1052E000A091C626B091C7268C199D09AE09BF09A9
:1052F00080934A2790934B27A0934C27B0934D2738
:1053000090CF089581E00895089508950895FF923B
:105310000F931F93CF93DF93C3E4D6E210E801E02D
:1053200088EDF82E0E941105882381F10E94540512
:10533000E091C3268D3009F5E13041F48091432698
:10534000823721F4F894F4BE009379008091C92645
:1053500081110BC0E3E4F6E2AAECB6E2812F0190E2
:105360000D928A95E1F70093C9261092C326FE019B
:10537000812F11928A95E9F7D5CF91E09E0F9093F6
:10538000C326F0E0ED5BF94D8083CCCFDF91CF9168
:105390001F910F91FF900895DB018F939F9341D050
:1053A000BF91AF91A29F800D911DA39F900DB29FC1
:1053B000900D11240895AA1BBB1B51E107C0AA1F21
:1053C000BB1FA617B70710F0A61BB70B881F991FA6
:1053D0005A95A9F780959095BC01CD010895A1E259
:1053E0001A2EAA1BBB1BFD010DC0AA1FBB1FEE1F5F
:1053F000FF1FA217B307E407F50720F0A21BB30BAA
:10540000E40BF50B661F771F881F991F1A9469F725
:1054100060957095809590959B01AC01BD01CF0181
:10542000089579D1A59F900DB49F900DA49F800DF4
:10543000911D11240895DF93CF931F930F939A9D8D
:10544000F02D219FF00D8B9DF00D8A9DE02DF10D2B
:10545000039FF00D029FE00DF11D4E9DE00DF11D2B
:105460005E9DF00D4F9DF00D7F936F93BF92AF92B5
:105470005F934F93D5014FD18B01AC01D7014BD135
:10548000EB01E80FF91FD6011FD02F913F91D601F4
:1054900042D1C60FD71FE81FF91FAF91BF9114D09B
:1054A0002F913F9138D1C60FD71FE81FF91FD601A2
:1054B00032D1E60FF71F9801BE01CF0111240F91E1
:1054C0001F91CF91DF91089526D1460F571FC81F16
:1054D000D91F08F431960895689401C0E894F92F13
:1054E000F12B0AF027C0A0E0B0E0E8E7FAE293C0B1
:1054F000092E05941AF479D0112392F4F0E80F26BE
:10550000FFEFE094F09400951095B094C094D0947F
:10551000A194BF0ACF0ADF0AEF0AFF0A0F0B1F0B85
:1055200013D007FC62D0CDB7DEB7ECE08DC0689435
:1055300001C0E8948F929F92CF93DF9305D0DF91C3
:10554000CF919F908F90089588249924F401E401CD
:10555000B0E49F93AA279A158B049C04ED05FE05E1
:10556000CF05D007A10798F4AD2FDC2FCF2FFE2F4A
:10557000E92D982C892E982F872F762F652F542F61
:10558000432F322F2227B85031F7BF9127C01B2E4F
:10559000BF91BB27220F331F441F551F661F771F64
:1055A000881F991F881C991CEE1FFF1FCC1FDD1F31
:1055B000AA1FBB1F8A149B04EC05FD05CE05DF0561
:1055C000A007B10748F08A189B08EC09FD09CE092D
:1055D000DF09A00BB10B21601A94E1F62EF49401BF
:1055E000AF01BE01CD01000C0895609570958095C6
:1055F000909530954095509521953F4F4F4F5F4F77
:105600006F4F7F4F8F4F9F4F08952F923F924F9232
:105610005F926F927F928F929F92AF92BF92CF9242
:10562000DF92EF92FF920F931F93CF93DF93CDB74B
:10563000DEB7CA1BDB0BCDBFDEBF09942A883988D1
:1056400048885F846E847D848C849B84AA84B9841A
:10565000C884DF80EE80FD800C811B81AA81B98126
:10566000CE0FD11DCDBFDEBFED0108950F930830E1
:1056700090F0982F872F762F652F542F432F322F9E
:1056800022270850F4CF220F331F441F551F661FD7
:10569000771F881F991F0A95B2F70F91089597FBFE
:1056A00010F8169400080F93083098F00850232F34
:1056B000342F452F562F672F782F892F902DF4CF19
:1056C000059497958795779567955795479537955D
:1056D00027950A95AAF70F9108952A0D3B1D4C1D99
:1056E0005D1D6E1D7F1D801F911F08952A193B09A6
:1056F0004C095D096E097F09800B910B0895002408
:10570000A7FD00942A173005400550056005700577
:10571000800590050895A29FB001B39FC001A39F8B
:10572000700D811D1124911DB29F700D811D1124DA
:10573000911D08952F923F925F926F927F928F9268
:105740009F92AF92BF92CF92DF92EF92FF920F9310
:105750001F93CF93DF938B01EA016115710521F04F
:10576000DB018C9311969C93209739F09E01225077
:1057700031092332310508F0F8C07C016701BFEF21
:10578000CB1ADB0A5601F7016080862D90E020D10C
:10579000892B11F07601F2CFFDE26F120AC057019A
:1057A00082E0A80EB11CD70111966C9077247394F7
:1057B0000BC0BBE26B1207C05701E2E0AE0EB11C9A
:1057C000D70111966C90712CCE018F7E892B89F4B4
:1057D000B0E36B1222C0F50180818F7D883541F5E1
:1057E0006180F2E0AF0EB11C872D8260782EC0E19F
:1057F000D0E0C830D105F1F04CF4C230D10511F53C
:10580000C12CD12CE12CB0E4FB2E2EC0CA30D10526
:1058100031F0C031D10519F115C0209751F7CAE018
:10582000D0E0ACECCA2EDC2CEC2CACE0FA2E1CC088
:105830002097F9F6C8E0D0E0C12CD12CE12CF0E1A2
:10584000FF2E12C060E070E080E090E89E014427E7
:1058500037FD4095542FC3DD69017A0105C0C12C85
:10586000D12CE12CE8E0FE2EF50160E020E030E0F4
:10587000A9014E01AA2497FCA094BA2C1F0170ED37
:10588000572E560CA9E0A51570F48FEB860D8A31C2
:1058900018F499EC592E06C08FE9860D8A3128F547
:1058A00089EA582E560C852D90E08C179D07ECF454
:1058B00067FD17C0C216D306E406F50678F0C501E9
:1058C000B4016ADD9B01AC01250D311D411D511D47
:1058D000213031054105B0E85B0710F06FEF01C0E2
:1058E00061E03196D1016C90C9CF872D817001158F
:1058F000110571F0662329F03197D801ED93FC93DF
:1059000007C071FE19C03297D801ED93FC9314C003
:1059100067FF12C0882329F020E030E040E050E823
:1059200004C02FEF3FEF4FEF5FE782E290E08093FC
:105930007D2A90937E2A16C0882341F05095409589
:10594000309521953F4F4F4F5F4F0CC057FF0AC016
:1059500082E290E080937D2A90937E2A2FEF3FEFA2
:105960004FEF5FE7B901CA0104C060E070E080E07A
:1059700090E0DF91CF911F910F91FF90EF90DF901A
:10598000CF90BF90AF909F908F907F906F905F90DF
:105990003F902F900895FC0188279927E894219142
:1059A0002032E9F3293010F02E30C8F32B3239F0D1
:1059B0002D3231F4689403C053D0820F911D219190
:1059C00020532A30C8F31EF4909581959F4F089577
:1059D000911180C2803219F089508550D0F7089516
:1059E000FB01DC0102C001900D9241505040D8F7FC
:1059F0000895FB01DC018D91019080190110D9F30C
:105A0000990B0895FB01DC0101900D920020E1F754
:105A10000895FB01DC014150504048F001900D9287
:105A20000020C9F701C01D9241505040E0F7089591
:105A3000FC01A081B181AD01109681F03D91FB0187
:105A4000019003160110E1F7C9F7002011F4D0010D
:105A500002C01E921196FC01A083B183CA01089571
:105A60007AE0979F902D879F802D910D11240895A6
:105A7000AEE0B0E0EDE3FDE2D6CD8C018EE08C83AC
:105A800009831A838FEF9FE78D839E83CE01019652
:105A900008D0EF81F885E00FF11F10822E96E4E028
:105AA000DBCDACE0B0E0E6E5FDE2AFCD7C016B0123
:105AB0008A01FC0116821782838181FFB0C1CE0169
:105AC00001964C01F7019381F60193FD859193FFB7
:105AD00081916F01882309F49EC1853239F493FDC9
