:1000000061C200007CC200007AC2000078C2000019
:1000100076C2000074C2000072C2000070C200000C
:100020006EC200006CC200006AC2000068C200001C
:1000300066C2000064C200000C9461090C948A0935
:100040000C94B3090C94DC090C94050A0C942E0A48
:100050000C94570A0C94800A0C94A90A0C94D20AA6
:100060004EC200004CC200004AC2000048C200005C
:1000700046C2000044C2000042C2000040C200006C
:100080003EC200003CC200003AC2000038C200007C
:1000900036C2000034C2000032C2000030C200008C
:1000A0002EC200002CC200002AC2000028C200009C
:1000B00026C2000024C2000022C200000C94950C4D
:1000C0000C94BE0C0C94E70C0C94100D0C94390D90
:1000D0000C94620D14C2000012C2000010C2000095
:1000E0000EC200000CC200000AC2000008C20000DC
:1000F00006C2000004C2000002C2000000C20000EC
:10010000FEC10000FCC10000FAC10000F8C10000FF
:10011000F6C10000F4C10000F2C10000F0C100000F
:10012000EEC10000ECC10000EAC10000E8C100001F
:10013000E6C100000C94FB0A0C94240B0C944D0BAC
:100140000C94760B0C949F0B0C94C80B0C94F10B35
:100150000C941A0C0C94430C0C946C0CD0C1000041
:10016000CEC10000CCC10000CAC10000C8C100005F
:10017000C6C10000C4C10000C2C10000C0C100006F
:10018000BEC10000BCC10000BAC10000B8C100007F
:10019000B6C10000B4C10000B2C10000B0C100008F
:1001A000AEC10000ACC10000AAC10000A8C100009F
:1001B000A6C10000A4C10000A2C10000A0C10000AF
:1001C0009EC100009CC100009AC1000098C10000BF
:1001D00096C1000094C1000092C1000090C10000CF
:1001E0008EC100008CC100008AC1000088C10000DF
:1001F00086C100000C9469120C94141323204D6FD7
:1002000064756C6520506F776572204F6E210D0A02
:100210000023204D6F64756C6520506F77657220E8
:100220004F6666210D0A00232053657269616C3A9E
:10023000202530327825303278253032782530321A
:1002400078253032782530327825303278253032B2
:10025000782530327825303278253032780D0A0012
:10026000232056657273696F6E3A2025642E2564CB
:100270000D0A002320466C6F74696C6C61207265F6
:1002800061647920746F20736574207361696C2ECA
:100290002E0D0A002320446F636B3A2025730D0A4C
:1002A000002320557365723A2025730D0A006420DF
:1002B00025642F25730D0A00632025642F25730DF7
:1002C0000A00642025642F25730D0A00632025642D
:1002D0002F25730D0A00752025642F2573202564B2
:1002E0002C25642C25642C25640D0A0075202564BA
:1002F0002F25732025640D0A00752025642F257392
:100300002025642C25642C25640D0A0064202564B6
:100310002F25730D0A00642025642F25730D0A0014
:10032000632025642F25730D0A00632025642F2583
:10033000730D0A00752025642F25732025642C2554
:10034000642C256C750D0A00752025642F257320FB
:1003500025642C25642C25640D0A00752025642F46
:1003600025732025642C25642C25640D0A00752036
:1003700025642F25732025640D0A00752025642F20
:1003800025732025642C25642C25642C25640D0AF6
:1003900000752025642F257320256C642C256C7531
:1003A0000D0A00766163616E740D0A0025732028C2
:1003B000307825303278290D0A0023202020202093
:1003C00020202564202D2000232020202043686148
:1003D0006E6E656C733A0D0A0023202020202020C9
:1003E000204D61696E206C6F6F70206379636C655E
:1003F0007320706572207365636F6E642028667069
:1004000073293A2025640D0A002320202020202073
:10041000204D61696E206C6F6F702064757261741D
:10042000696F6E3A2025646D7320282564757329E1
:100430000D0A0023202020204C6F61643A0D0A0031
:1004400023202020202020205352414D2066726519
:10045000653A2025642062797465730D0A002320B3
:100460002020205265736F75726365733A0D0A0020
:100470002320446562756720696E666F726D6174D2
:10048000696F6E3A0D0A0023205265636F766572BC
:1004900065642066726F6D206F7665722D6375726C
:1004A00072656E740D0A0023204F7665722D637598
:1004B0007272656E742064657465637465642E2E53
:1004C0002E0D0A0011241FBECFEFCDBFDFE2DEBF2D
:1004D00013E2A0E0B0E2ECE9F1E602C005900D9273
:1004E000A032B107D9F72AE2A0E2B3E201C01D921F
:1004F000AE37B207E1F70E94BA280C94CC3080CD19
:10050000EF92FF920F931F93CF93DF93809121235C
:100510008F5F809321234091222350E0A0E0B0E23E
:10052000ED0180E090E020E067E070E001E010E0A5
:10053000FA01082E02C0F595E7950A94E2F7E0FF6C
:1005400006C0E881F0E0E055FE4D308101C030E0AA
:10055000E0912123E31718F03881373950F0FB017F
:10056000E81BF90B780102C0EE0CFF1CEA95E2F7DC
:100570002E290196219688309105D1F62093040604
:10058000E091202380912123E695EF73F0E0E0597C
:10059000FE4DE081E695F0E0E055FE4D968D891721
:1005A00020F481E08093850603C081E08093860675
:1005B00080912123873320F482E08093850603C055
:1005C00082E08093860680912123873320F484E0A3
:1005D0008093850603C084E0809386068091212362
:1005E000811112C096E48C918A3418F083508C9358
:1005F00001C09C93119680E2A830B807A1F78091C2
:1006000020238F5F80932023DF91CF911F910F9143
:10061000FF90EF9008958091382481508093382482
:10062000089580E0089580E0089566E474E280E033
:100630000C948F29809137248150809337248091A6
:1006400037240E949229109236240895109238245B
:10065000109244241092452481EA80933A2480E247
:1006600080933B2410923C2410923D2410923E240F
:1006700010923F2482E090E08093402490934124A4
:10068000109242241092432480E092ECA1E0B0E06A
:100690008093462490934724A0934824B093492400
:1006A00010924A2410924B2488E080934C2466E4F4
:1006B00074E280E00E948F2980E00E9490298823C4
:1006C00029F0909138249F5F909338240895FF92E9
:1006D0000F931F93CF93DF938091262381118BC0BB
:1006E0000E940211C0912723D09128238823A9F0CA
:1006F0000E940F11C817D90709F47DC0DFB7F8941D
:10070000C0912923EC2FF0E0EE0FFF1FE65DFC4DBA
:1007100080819181892B29F503C00E940A11EACFBB
:1007200080912323909124230196809323239093F7
:1007300024230E940211811109C0809123239091EA
:1007400024238436910510F4DFBF55C00E940211A6
:10075000882339F080912323909124238032934081
:1007600098F3109223231092242380912523811142
:1007700006C081E0C11180E08093292304C081E09C
:10078000C11180E0C82F81E080932623DFBFD0E035
:100790008E01000F111FF801E65DFC4DFF24F3945C
:1007A000808191818034910531F4F12C10922723BE
:1007B000109228230DC00E940211882319F00E9474
:1007C0000F1102C00E940A118093272390932823BF
:1007D000F801E65DFC4D20813181AE0186E0440FD9
:1007E000551F8A95E1F7425D5C4D02E014E06F2DE4
:1007F00081E80E949311DF91CF911F910F91FF909B
:10080000089565CF811114C02091292381E090E0E3
:10081000222311F080E090E0880F991FFC01E65D33
:10082000FC4D1082118210922523109226234FCF67
:10083000089590915327892F807697FF0EC08032BC
:10084000F1F5809154278132D1F58091592790910B
:100850005A278730910599F526C0803281F580911D
:100860005427803299F0823251F56091552761709A
:1008700080E00E94932960915527709156277695C4
:100880006795617080E00E94942917C08091592774
:1008900090915A278730910591F425E133E0209318
:1008A0005F273093602726E434E220935B27309360
:1008B0005C2780935D2790935E2781E0089580E018
:1008C00008952FB7F8944091AF235091B023E09151
:1008D000B123F0E0EE0FFF1FEE54FC4D80819181BB
:1008E000841B950B2FBF0895ECDF21E0892B09F4C1
:1008F00020E0822F08950F931F93CF93DF938FB73C
:10090000F8942091B1239091AE23911110C0609181
:10091000AF237091B023C22FD0E0FE01EE0FFF1F76
:10092000EE54FC4D408151816417750718F48FBF58
:1009300080E024C01092AF231092B02391E02111E7
:1009400090E09093B12391E09093AE238FBF80E02D
:10095000CBDF882319F080E00E949529AE0186E064
:10096000440F551F8A95E1F74A545C4D03EF14E09C
:1009700020E430E061E082E00E949311DF91CF91AA
:100980001F910F91089510923724109226231092F0
:1009900025231092292310922A2310922B231092A0
:1009A0002C2310922D2310922723109228238FDEC0
:1009B0001092AE231092B1231092B2231092B3235F
:1009C0001092AF231092B02396DF882359F09091B4
:1009D00037249F5F9093372490913724913011F4FE
:1009E0009093362408950F931F93811126C0809110
:1009F000B12321E0811120E030E06115710589F417
:100A0000842F96E0220F331F9A95E1F7A9014A54EB
:100A10005C4D03EF14E020E430E061E00E949311AC
:100A20000CC0220F331FF901EE54FC4D608371831B
:100A30001092AE231F910F915ECF1F910F910895D9
:100A400080E052CF1F93CF93DF9311E080914C242D
:100A5000893009F010E0C0E0D0E09FB7F894209111
:100A6000AF233091B0238091B1239FBF90E0FC0170
:100A7000EE0FFF1FEE54FC4D4081518124173507C6
:100A800030F0809136248111E8CF90E01AC0FC014B
:100A900096E0EE0FFF1F9A95E1F7E20FF31FEA547D
:100AA000FC4D8081C82B2F5F3F4F2093AF233093A5
:100AB000B02321DF112321F0DC2FCC2710E0CDCF94
:100AC000CE01DF91CF911F91089580E0BBCF4FB74A
:100AD000F89490912923E92FF0E0EE0FFF1FE65DD7
:100AE000FC4D208131812034310589F48091262309
:100AF00081110DC080912523811109C081E080936F
:100B00002523911180E08093292320E030E04FBF1E
:100B100080E490E0821B930B0895D9DF21E0892BBC
:100B200009F420E0822F089580E0F7CF1F93CF9340
:100B3000DF9300D0CDB7DEB711E080914C2489302F
:100B400009F010E080E069837A83E7DF69817A81C8
:100B5000811107C0809136248111F4CF80E090E0AC
:100B600026C02FB7F894E0912923F0E0DF01AA0F07
:100B7000BB1FA65DBC4D8D919C911197AC014F5F41
:100B80005F4F4D935C9336E0EE0FFF1F3A95E1F710
:100B90008E0F9F1FFC01E25DFC4D60832FBF112370
:100BA00021F0672F770F770BCCCF81E090E00F908B
:100BB0000F90DF91CF911F910895BC0180E0B6CFD7
:100BC000809155278F770C940411909155249111A1
:100BD00002C080E00895E0915324F09154240190E4
:100BE000F081E02D94818917A0F7E0935124F093D0
:100BF0005224228133812E0F3F1FE217F30798F40E
:100C00009181943061F49281891309C093816913B1
:100C100006C0E0935124F093522481E0089590811E
:100C2000E90FF11DEACFE0935124F0935224D1CF84
:100C3000E0915324F09154240190F081E02D228121
:100C400033812E0F3F1FFC014081E40FF11DE2179D
:100C5000F30748F48181843031F0853039F08081A8
:100C6000E80FF11DF4CF80E090E00895CF010895E2
:100C70001F93CF93DF93182FA8DF882341F1C091F2
:100C80005124D0915224CE01D3DFEC01892B49F0BD
:100C90004C815D816B818A810E9419118111F3CF92
:100CA00016C0E0915324F091542492818381E92F5E
:100CB000F82FE10FF11DE10FF11D0190F081E02D02
:100CC0000190F081E02DDF91CF911F91099480E098
:100CD000DF91CF911F910895EF92FF921F93CF93D1
:100CE000DF93C82F60E071DF811102C010E02DC0DA
:100CF000E0915324F091542492818381E92FF82FBD
:100D0000EC0FF11DEC0FF11DE080F180D70116967C
:100D1000ED91FC9117970995682F8C2F56DF182FAE
:100D2000882321F3C0915124D0915224CE0180DF39
:100D3000EC01892B21F08A810E945012F7CFD70154
:100D40001296ED91FC9113970995812FDF91CF9128
:100D50001F91FF90EF9008950C948E10CF93809187
:100D60005524811108C010925524109256241092D7
:100D70005724CF910895C0E0E0915324F09154247A
:100D80000190F081E02D8481C81768F78C2FA4DFD3
:100D9000CF5FF2CFCF93809155248823F1F0C0E04C
:100DA000E0915324F0915424A081B18114968C9148
:100DB000C81798F492818381E92FF82FEC0FF11D69
:100DC000EC0FF11D0190F081E02D0084F185E02D04
:100DD000309709F00995CF5FE3CFCF910895EF9257
:100DE000FF920F931F93CF93DF931F92CDB7DEB780
:100DF00010925D2710925E2710925F271092602755
:100E000010926127109262278091532787FF07C0B5
:100E10002091592730915A27232B09F449C2982F42
:100E2000907609F0D4C187FF01C1209159273091F4
:100E30005A272115310509F4CAC18F7109F0A2C0E2
:100E400080915427863071F0883009F490C0811168
:100E5000BEC12230310509F0BAC162E070E086E51A
:100E600094E28DC08091552790915627292F3327E2
:100E700022303105A1F064F42130310509F0A7C119
:100E800080910C2190910D21DC016C9170E05CC08F
:100E90002330310591F12F30310511F198C1E091E6
:100EA0000C21F0910D212189821708F090C199271A
:100EB000880F991F880F991FE0910E21F0910F2143
:100EC000E80FF91F80819181FC01628173810E948A
:100ED0001211E0915B27F0915C2782E0818336C09C
:100EE0008091102190911121009709F470C1DC01CB
:100EF00012966D917C91139727C0992781309105A7
:100F000069F038F0029709F062C16DE088E390E281
:100F100008C064E070E084E590E216C06CE086E40E
:100F200090E2282FAEE1B0E2FC01819190E08D9338
:100F30009D938E2F821B8617C0F3660F6E5F6093A2
:100F40001C2070E08CE190E20E94121180915927E0
:100F500090915A2720915D2730915E278217930741
:100F600008F0A4C180935D2790935E279FC1213034
:100F7000310509F02CC161E070E085E594E20E9442
:100F8000121194C18130C9F5809154278A3009F03B
:100F90001EC12130310509F01AC1809155248823E2
:100FA00009F415C1E0905727F09058270091532479
:100FB00010915424D801ED91FC918481E81608F039
:100FC00006C160E08E2D01DE882309F400C1FF24F4
:100FD000EE0CFF1CF801828193818E0D9F1DDC01B8
:100FE000ED91FC910680F781E02D099580935024C6
:100FF00061E070E080E594E2C2CF823009F0E7C0A2
:10100000809154278111E3C02230310509F0DFC0FF
:10101000809157270E94731190E080934E24909303
:101020004F2462E070E08EE494E2A9CF8F7109F062
:101030007EC080915427833009F4C9C018F48130F0
:10104000A1F0C5C0853019F0893039F1C0C0809158
:10105000592790915A27892B09F0B9C080EE95E065
:1010600080935F279093602721C1809159279091A9
:101070005A27892B09F0ABC08091552790915627AC
:10108000019709F0A4C080915624909157248D7F38
:10109000809356249093572409C1809159279091A9
:1010A0005A27892B09F093C00E940711882309F45D
:1010B0008EC020915527309156273327E0910C217F
:1010C000F0910D21818990E08217930708F47FC089
:1010D00045DE80915527909156278093552488238B
:1010E00009F4E4C099278150904C880F991F880F0C
:1010F000991F20910E2130910F21820F931F809311
:1011000053249093542410E0E0915324F0915424FC
:101110000190F081E02D8481181708F0C7C060E0CD
:10112000812FA6DD882309F452C01F5FEDCF8130E7
:10113000F1F4809154278B3009F049C080915927F0
:1011400090915A27892B09F042C080915524882319
:1011500009F43DC01091572760915527812F69836D
:10116000BBDD6981882399F1812F82DD2EC0823019
:1011700071F580915427813019F0833091F027C0A8
:101180008091592790915A27892B09F580915527ED
:1011900090915627892BD9F4809157270E947A1174
:1011A00014C08091592790915A27892B81F48091FE
:1011B000552790915627892B51F4809157270E94EB
:1011C0002012809157270E94591281116FC080917F
:1011D00053278F718130B9F580915524882399F177
:1011E000E0905727F09058270091532410915424F1
:1011F000D801ED91FC918481E81628F560E08E2DF0
:10120000E4DC882301F1F701FF27EE0FFF1FD8016F
:1012100012968D919C911397E80FF91F008111810F
:10122000D8011696ED91FC9117970995682F8E2D90
:10123000CCDC882341F0D8011496ED91FC911597F0
:101240000995811133C0809153278F71823081F5C8
:1012500080915524882361F1F12CE0915324F09181
:101260005424A081B18114968C91F81608F59281CE
:101270008381E92FF82FEF0DF11DEF0DF11D008196
:101280001181D8011696ED91FC9117970995682F59
:101290008F2D9BDC882361F0D8011496ED91FC9191
:1012A00015970995811102C0F394D7CF81E001C051
:1012B00080E00F90DF91CF911F910F91FF90EF9001
:1012C00008951F920F920FB60F9211242F933F9300
:1012D0004F935F936F937F938F939F93AF93BF933E
:1012E000EF93FF93E0918A24F0918B24309709F0DB
:1012F0000995FF91EF91BF91AF919F918F917F9150
:101300006F915F914F913F912F910F900FBE0F9072
:101310001F9018951F920F920FB60F9211242F93C2
:101320003F934F935F936F937F938F939F93AF936D
:10133000BF93EF93FF93E0918824F0918924309735
:1013400009F00995FF91EF91BF91AF919F918F9116
:101350007F916F915F914F913F912F910F900FBEB1
:101360000F901F9018951F920F920FB60F92112495
:101370002F933F934F935F936F937F938F939F939D
:10138000AF93BF93EF93FF93E0918624F09187246E
:10139000309709F00995FF91EF91BF91AF919F911F
:1013A0008F917F916F915F914F913F912F910F900E
:1013B0000FBE0F901F9018951F920F920FB60F92AD
:1013C00011242F933F934F935F936F937F938F934A
:1013D0009F93AF93BF93EF93FF93E0918424F09199
:1013E0008524309709F00995FF91EF91BF91AF9156
:1013F0009F918F917F916F915F914F913F912F912D
:101400000F900FBE0F901F9018951F920F920FB65E
:101410000F9211242F933F934F935F936F937F937A
:101420008F939F93AF93BF93EF93FF93E0918224A9
:10143000F0918324309709F00995FF91EF91BF91C6
:10144000AF919F918F917F916F915F914F913F915C
:101450002F910F900FBE0F901F9018951F920F9213
:101460000FB60F9211242F933F934F935F936F9377
:101470007F938F939F93AF93BF93EF93FF93E091ED
:101480008024F0918124309709F00995FF91EF9124
:10149000BF91AF919F918F917F916F915F914F918C
:1014A0003F912F910F900FBE0F901F9018951F9294
:1014B0000F920FB60F9211242F933F934F935F9388
:1014C0006F937F938F939F93AF93BF93EF93FF930C
:1014D000E0917E24F0917F24309709F00995FF91E7
:1014E000EF91BF91AF919F918F917F916F915F919C
:1014F0004F913F912F910F900FBE0F901F90189515
:101500001F920F920FB60F9211242F933F934F9378
:101510005F936F937F938F939F93AF93BF93EF935B
:10152000FF93E0917C24F0917D24309709F0099598
:10153000FF91EF91BF91AF919F918F917F916F91AB
:101540005F914F913F912F910F900FBE0F901F9081
:1015500018951F920F920FB60F9211242F933F935D
:101560004F935F936F937F938F939F93AF93BF93AB
:10157000EF93FF93E0917A24F0917B24309709F068
:101580000995FF91EF91BF91AF919F918F917F91BD
:101590006F915F914F913F912F910F900FBE0F90E0
:1015A0001F9018951F920F920FB60F9211242F9330
:1015B0003F934F935F936F937F938F939F93AF93DB
:1015C000BF93EF93FF93E0917824F09179243097C3
:1015D00009F00995FF91EF91BF91AF919F918F9184
:1015E0007F916F915F914F913F912F910F900FBE1F
:1015F0000F901F9018951F920F920FB60F92112403
:101600002F933F934F935F936F937F938F939F930A
:10161000AF93BF93EF93FF93E0917624F0917724FB
:10162000309709F00995FF91EF91BF91AF919F918C
:101630008F917F916F915F914F913F912F910F907B
:101640000FBE0F901F9018951F920F920FB60F921A
:1016500011242F933F934F935F936F937F938F93B7
:101660009F93AF93BF93EF93FF93E0917424F09116
:101670007524309709F00995FF91EF91BF91AF91D3
:101680009F918F917F916F915F914F913F912F919A
:101690000F900FBE0F901F9018951F920F920FB6CC
:1016A0000F9211242F933F934F935F936F937F93E8
:1016B0008F939F93AF93BF93EF93FF93E091722427
:1016C000F0917324309709F00995FF91EF91BF9144
:1016D000AF919F918F917F916F915F914F913F91CA
:1016E0002F910F900FBE0F901F9018951F920F9281
:1016F0000FB60F9211242F933F934F935F936F93E5
:101700007F938F939F93AF93BF93EF93FF93E0915A
:101710007024F0917124309709F00995FF91EF91B1
:10172000BF91AF919F918F917F916F915F914F91F9
:101730003F912F910F900FBE0F901F9018951F9201
:101740000F920FB60F9211242F933F934F935F93F5
:101750006F937F938F939F93AF93BF93EF93FF9379
:10176000E0916E24F0916F24309709F00995FF9174
:10177000EF91BF91AF919F918F917F916F915F9109
:101780004F913F912F910F900FBE0F901F90189582
:101790001F920F920FB60F9211242F933F934F93E6
:1017A0005F936F937F938F939F93AF93BF93EF93C9
:1017B000FF93E0916C24F0916D24309709F0099526
:1017C000FF91EF91BF91AF919F918F917F916F9119
:1017D0005F914F913F912F910F900FBE0F901F90EF
:1017E00018951F920F920FB60F9211242F933F93CB
:1017F0004F935F936F937F938F939F93AF93BF9319
:10180000EF93FF93E0916A24F0916B24309709F0F5
:101810000995FF91EF91BF91AF919F918F917F912A
:101820006F915F914F913F912F910F900FBE0F904D
:101830001F9018951F920F920FB60F9211242F939D
:101840003F934F935F936F937F938F939F93AF9348
:10185000BF93EF93FF93E0916824F0916924309750
:1018600009F00995FF91EF91BF91AF919F918F91F1
:101870007F916F915F914F913F912F910F900FBE8C
:101880000F901F9018951F920F920FB60F92112470
:101890002F933F934F935F936F937F938F939F9378
:1018A000AF93BF93EF93FF93E0916624F091672489
:1018B000309709F00995FF91EF91BF91AF919F91FA
:1018C0008F917F916F915F914F913F912F910F90E9
:1018D0000FBE0F901F9018951F920F920FB60F9288
:1018E00011242F933F934F935F936F937F938F9325
:1018F0009F93AF93BF93EF93FF93E0916424F09194
:101900006524309709F00995FF91EF91BF91AF9150
:101910009F918F917F916F915F914F913F912F9107
:101920000F900FBE0F901F9018951F920F920FB639
:101930000F9211242F933F934F935F936F937F9355
:101940008F939F93AF93BF93EF93FF93E0916224A4
:10195000F0916324309709F00995FF91EF91BF91C1
:10196000AF919F918F917F916F915F914F913F9137
:101970002F910F900FBE0F901F9018951F920F92EE
:101980000FB60F9211242F933F934F935F936F9352
:101990007F938F939F93AF93BF93EF93FF93E091C8
:1019A0006024F0916124309709F00995FF91EF913F
:1019B000BF91AF919F918F917F916F915F914F9167
:1019C0003F912F910F900FBE0F901F9018951F926F
:1019D0000F920FB60F9211242F933F934F935F9363
:1019E0006F937F938F939F93AF93BF93EF93FF93E7
:1019F000E0915E24F0915F24309709F00995FF9102
:101A0000EF91BF91AF919F918F917F916F915F9176
:101A10004F913F912F910F900FBE0F901F901895EF
:101A20001F920F920FB60F9211242F933F934F9353
:101A30005F936F937F938F939F93AF93BF93EF9336
:101A4000FF93E0915C24F0915D24309709F00995B3
:101A5000FF91EF91BF91AF919F918F917F916F9186
:101A60005F914F913F912F910F900FBE0F901F905C
:101A700018951F920F920FB60F9211242F933F9338
:101A80004F935F936F937F938F939F93AF93BF9386
:101A9000EF93FF93E0915A24F0915B24309709F083
:101AA0000995FF91EF91BF91AF919F918F917F9198
:101AB0006F915F914F913F912F910F900FBE0F90BB
:101AC0001F9018951F920F920FB60F9211242F930B
:101AD0003F934F935F936F937F938F939F93AF93B6
:101AE000BF93EF93FF93E0915824F09159243097DE
:101AF00009F00995FF91EF91BF91AF919F918F915F
:101B00007F916F915F914F913F912F910F900FBEF9
:101B10000F901F901895CF93CFB7F894811528E0B8
:101B2000920711F461E005C0803428E0920739F48F
:101B300062E083E00E943D2864E083E01AC08115E2
:101B400029E0920711F461E005C0803429E0920792
:101B500039F462E084E00E943D2864E084E009C03A
:101B600081159A4081F461E085E00E943D2864E09F
:101B700085E00E943D289FB7F8948091752A8F5F79
:101B80008093752A9FBFCFBFCF910895811528E01C
:101B9000920729F460938A2470938B2408958034EB
:101BA00028E0920729F460937E2470937F2408959F
:101BB000811529E0920729F46093762470937724A5
:101BC0000895803429E0920729F460936A24709381
:101BD0006B24089581159A4021F4609362247093D8
:101BE00063240895282F2F70082E000C990B392F8D
:101BF000331F3327331F832F90E0820F911D820FF5
:101C0000911D23E0880F991F2A95E1F78C579A4D73
:101C100008950F93E8ECF4E080818F7D80838081CC
:101C20008F7D8083ECE8F5E202E0059310928E252B
:101C300010928F2500E2069300E40693E4E8F5E2B3
:101C400000E2069300E40693E3E5F7E214861586C6
:101C50001686178612861386109275250F910895A1
:101C60000F9385E080937525EDE8F5E204E0059398
:101C7000E5E8F5E204E005930F9108950F9383E002
:101C80008093752510928E2510928F25ECE8F5E251
:101C900002E006930F910895E0915F27F09160278D
:101CA000309709F009940895282F2F70082E000C02
:101CB000990B392F331F3327331F832F90E0820F67
:101CC000911D820F911D029749E0489F9001499F05
:101CD000300D1124C901835F9A4D08959091B82564
:101CE000811108C0992381F02FB7F8949091752A3B
:101CF000915007C0911108C02FB7F8949091752AA0
:101D00009F5F9093752A2FBF8093B82508958F9277
:101D10009F92AF92BF92DF92EF92FF920F931F9329
:101D2000CF93DF93D82EC0DFEC018D2D5BDF7C01DC
:101D3000DC011196EC91E770E150E73040F4F0E0FF
:101D4000EE0FFF1FE055FD4D0081118102C008E03C
:101D500010E0ED81FE812B813C814881D701D7FEC7
:101D60004AC016968D919C9117978E0F9F1F8D8359
:101D70009E838217930771F1281B390B2115B4E05C
:101D80003B0740F02FEF33E0C901B8010E94C92B97
:101D9000281B390B41FF0BC0C901B8010E94C92B98
:101DA000AC0191E0452B09F090E0892F01C080E063
:101DB000988180FB91F99883F7011682178222831C
:101DC000338329813A818D819E81820F931F848381
:101DD00095830EC041FF74C04D7F4883D70116968E
:101DE0001D921C92179712961D921C921397F70141
:101DF00002E006937EC01296AD90BC90139742FF0E
:101E000012C089809A80C901B8010E94C92BB0E430
:101E1000DB9EB0011124635B7B4DAC01C4018E0FCE
:101E20009F1F0E94A52D8D819E818A0D9B1D8D83F4
:101E30009E832B813C812817390710F42D833E8324
:101E4000F70186819781A816B906D1F58D819E810B
:101E500082179307A9F1281B390B2115F4E03F07DE
:101E600010F02FEF33E0C901B8010E94C92B281BE5
:101E7000390BD70112961D921C9213972017310728
:101E800078F4888184608883B0E4DB9EC0011124EB
:101E9000835B9B4DF7018483958306831783A7CFCC
:101EA00049815A818D819E81840F951FD701149697
:101EB0008D939C93159716962D933C93179797CFD8
:101EC000888180FF16C08E7F8883EF81F8853097E8
:101ED00081F06D817E814D2D80E0DF91CF911F914A
:101EE0000F91FF90EF90DF90BF90AF909F908F90F9
:101EF0000994DF91CF911F910F91FF90EF90DF90A8
:101F0000BF90AF909F908F9008950F93CF93DF93E2
:101F100080917525833029F4BFDEDF91CF910F9139
:101F200078CE2091712530917225C0915D27D09196
:101F30005E27C21BD30B61F58091732590917425A8
:101F4000820F931F809373259093742520915927B6
:101F500030915A272817390721F080918C24882343
:101F600031F084E080937525E4E8F5E236C0E09135
:101F70006127F0916227309799F00995882381F0C5
:101F80001092712510927225C0915D27D0915E2725
:101F9000C034D10528F010928C24C0E4D0E003C0F6
:101FA00081E080938C24C0938E25D0938F258091DF
:101FB00071259091722520915B2730915C27280F25
:101FC000391F2093902530939125C80FD91FC093B6
:101FD0007125D0937225ECE8F5E202E00693DF91DB
:101FE000CF910F9108950F93CF93DF931F92CDB7A9
:101FF000DEB78091CC0480FF66C021E02093CC0442
:1020000084E895E2FC0100E80693ECE8F5E200E8DC
:1020100006932093CA04FC0100E106938091752584
:10202000882329F08350823008F436DEF2DD809177
:10203000862590918725089709F047C088E0E1E35D
:10204000F5E2A3E5B7E201900D928A95E1F7809160
:10205000C80480628093C8048091C8048062809321
:10206000C8040E94EF06811102C0FADD2EC09091D3
:10207000532797FF0EC0109273251092742510926B
:1020800071251092722592E09093752589833DDF2A
:1020900008C02091592730915A27232B21F4898396
:1020A000EDDD898113C01092732510927425109272
:1020B00071251092722591E090937525E4E8F5E280
:1020C00002E0069303C080E001C081E00F90DF9141
:1020D000CF910F910895CF93CFB7F89481E0FEDDB3
:1020E000EAECF4E080E4808380E28083E1ECF4E0D9
:1020F000808181608083A9ECB4E08C9182608C93B4
:10210000E8ECF4E08081806480838C9181608C9322
:10211000808180688083CFBFCF910895CF93109244
:10212000600080E30E9449288091C004806480930D
:10213000C00481E080936000CFB7F89410928525A9
:1021400010928D251092952510929D251092A5250F
:102150001092AD2580910D258E7F80930D25809165
:1021600016258E7F8093162580911F258E7F809364
:102170001F25809128258E7F809328256AE170E0B5
:1021800082E00E9494288F3F09F48FE18093FA0443
:102190006BE170E082E00E9494288F3F09F48FE1A8
:1021A0008093FB048091C00482608093C00480917E
:1021B000C00480688093C0048091C00480618093D3
:1021C000C00484E895E28093C6049093C70480918C
:1021D000C00480628093C0048FEF8093C504809117
:1021E000C80481608093C8041092B8259FB7F89402
:1021F0008091792A8F5F8093792A9FBF6CDFCFBF50
:10220000CF91089580E008958093C304089580914C
:10221000C30408958091B4259091B525089580E078
:1022200090E00895E3E5F7E28087918762877387FE
:1022300008950F931F93CF93DF931F92CDB7DEB70F
:102240008A016983CFDCFC018181807C69818111F5
:1022500041C06370613019F020F090E803C090EC49
:1022600001C090E400381105E9F058F4003211057E
:10227000A9F000341105A1F000311105C9F481E085
:1022800018C0011582E0180779F00F3F83E01807A6
:1022900069F00115114061F485E00BC082E009C0CE
:1022A00083E007C084E005C086E003C087E001C08A
:1022B00080E0118226E02083892B81838181807CCC
:1022C000803C21F481818770873031F08181806288
:1022D000818302C080E001C081E00F90DF91CF9147
:1022E0001F910F9108957EDCFC01818182FB88277C
:1022F00080F90895CF93C82F75DCFC01818182FF9E
:102300000FC091819B7F91838C2FCEDCFC0190814B
:1023100090FF06C09E7F90830780F085E02D099591
:1023200081E0CF9108958F929F92AF92BF92DF92FA
:10233000EF92FF920F931F93CF93DF931F92CDB72E
:10234000DEB7D82E5A0179016983AEDC4C018D2DA0
:1023500049DC9C01DC0111968C911197807C69818C
:10236000882309F45FC011968C911197807C803C82
:1023700021F011968C9182FD55C09FB7F894F4011D
:10238000808180FF02C09FBF4DC0816080839FBF5E
:10239000F401A182B282E382F4821582168207835D
:1023A000108791E0611104C0E114F10409F090E09C
:1023B000D4018C9190FB81F98B7F8C93D7FE04C064
:1023C000F901168217822AC0D90111968C911197B2
:1023D000807C803CD1F41196EC91E770E150E730BD
:1023E00040F4F0E0EE0FFF1FE055FD4D608171817C
:1023F00002C068E070E0C7010E94C92B892B29F058
:10240000F40180818E7F80830DC0D90112961D92C8
:102410001C92139716961D921C9217978D2D77DCA0
:1024200081E001C080E00F90DF91CF911F910F916B
:10243000FF90EF90DF90BF90AF909F908F900895A6
:10244000EF92FF920F93CF93C82FCCDB7C018C2FA0
:102450002BDCDC01F70102E005939C9190FF1BC08F
:102460009E7F9C931796ED91FC911897309799F069
:10247000D701C7FF05C016966D917C91179704C0D0
:1024800012966D917C9113974C2F81E0CF910F9113
:10249000FF90EF900994CF910F91FF90EF900895E6
:1024A000CF93C82FCDDF8C2F9DDBFC011182CF9104
:1024B00008950F93CF93C82F95DBFC019181946011
:1024C000918301E006938C2FBBDF81E0CF910F91C8
:1024D00008951F920F920FB60F9211240F932F930E
:1024E0003F934F935F936F937F938F939F93AF939C
:1024F000BF93EF93FF938091CB0487FF06C080E8E2
:102500008093CA040E94CA067DC08091CB0482FFDA
:1025100018C084E08093CA0480918C2586FF72C025
:102520008091CC0481FD6EC05EDD81116BC0809115
:102530007525813011F4A2DB65C0843009F062C0DA
:1025400021C08091CB0481FF26C082E08093CA0421
:102550008091842586FF56C08091CC0481FD52C0B5
:1025600042DD81114FC080917525823041F484E0B5
:1025700080937525E4E8F5E202E0069343C08330DA
:1025800009F040C0EDE8F5E204E00593E5E8F5E286
:1025900004E0059337C08091CB0484FF21C080E123
:1025A0008093CA0481E04CDF81E84ADF0E94AE06D6
:1025B0001092C3041092852596E09093842583E4BD
:1025C0008093852510928D2590938C2580938D2561
:1025D00081E395E280938825909389251ADB12C0C8
:1025E0008091CB0486FF05C080E48093CA0480E01C
:1025F00008C08091CB0485FF05C080E28093CA04A7
:1026000081E06CDBFF91EF91BF91AF919F918F9132
:102610007F916F915F914F913F912F910F910F900B
:102620000FBE0F901F9018951F920F920FB60F922A
:1026300011240F931F932F933F934F935F936F93A7
:102640007F938F939F93AF93BF93CF93DF93EF933A
:10265000FF938091CC0481FF1AC082E08093CC0468
:102660008091C5048195880FE4E8F5E2E81BF10943
:10267000208131812458354283E0369527958A950B
:10268000E1F7822F869520FD06C0C0E005C0ABDCD7
:10269000882319F387C0C0E8C80F8C2FA3DAFC0188
:1026A000208125FF7FC000E20693C11175C0809193
:1026B0007525843019F4F0DAACDA74C000918625FF
:1026C0001091872580915D2790915E27C09171259B
:1026D000D09172259E01200F311F8217930718F4A5
:1026E0008C010C1B1D0B80915B2790915C27A8012E
:1026F00061E375E28C0F9D1F0E94A52DC00FD11FB5
:10270000C0937125D09372250034110569F480912E
:102710007325909174258C0F9D1F2091592730911E
:102720005A278217930788F0C0935D27D0935E27BE
:10273000E0916127F0916227309729F00995811186
:1027400002C08EDA2FC09ADA2DC080915D27909159
:102750005E278C179D07D9F4E0916127F0916227DD
:10276000309779F30995882361F32091732530918F
:1027700074258091712590917225820F931F80930B
:102780007325909374251092712510927225E4E8B8
:10279000F5E202E0069306C0C03811F4B6DB02C0D1
:1027A0008C2FB5DAFF91EF91DF91CF91BF91AF916F
:1027B0009F918F917F916F915F914F913F912F9159
:1027C0001F910F910F900FBE0F901F9018954BE126
:1027D00050E060E070E083E697E20C9481304BE1DA
:1027E00050E060E070E083E697E20E94763063E6B6
:1027F00077E28EEB92E20E94AE2D892B99F06EEB80
:1028000072E283E697E20E94B72D63EC72E285E7FD
:1028100097E20E94B72D63EC72E28CE697E20E9489
:10282000B72DD5CF0895EF920F939EE3989FF001B7
:102830001124E258F84DDF011D929A95E9F7608363
:1028400041835283238334830583E6820F91EF9083
:102850000895FC016623D9F0613089F5A781B08520
:1028600012968C9112978F9311968C918F938081F1
:102870001F928F9388EB92E09F938F930E94E7269D
:102880000F900F900F900F900F900F900895A781C9
:10289000B08512968C9112978F9311968C918F938D
:1028A00080811F928F938EEA92E09F938F930E9474
:1028B000E7260F900F900F900F900F900F900895B4
:1028C000EF920F9383E0E82E02E020E636E040E648
:1028D00056E068E087E0A7DFEE24E39400E020E61E
:1028E00036E040E656E067E086E09DDF97E0E92EBF
:1028F00006E020E436E040E456E066E085E093DF61
:1029000025E0E22E04E020E436E040E456E065E015
:1029100084E089DF33E0E32E02E020E436E040E4A7
:1029200056E064E083E07FDFEE24E39400E020E4FF
:1029300036E040E456E063E082E075DF43E0E42EF9
:1029400002E020E236E040E256E062E081E06BDF48
:10295000EE24E39400E020E236E040E256E061E05D
:1029600080E061DFE0D4DC01EC91F0E0EE0FFF1FCE
:10297000E259F64D808391830E94271FDC01EC9180
:10298000F0E0EE0FFF1FE259F64D808391830E9425
:10299000721DDC01EC91F0E0EE0FFF1FE259F64DE5
:1029A00080839183B6D7DC01EC91F0E0EE0FFF1F3E
:1029B000E259F64D808391830E94CC1FDC01EC919B
:1029C000F0E0EE0FFF1FE259F64D808391831CD497
:1029D000DC01EC91F0E0EE0FFF1FE259F64D808331
:1029E00091834FD7DC01EC91F0E0EE0FFF1FE2592D
:1029F000F64D808391830E949D1EDC01EC91F0E0F6
:102A0000EE0FFF1FE259F64D808391830E94D12083
:102A1000DC01EC91F0E0EE0FFF1FE259F64D8083F0
:102A200091830E942E1DDC01EC91F0E0EE0FFF1F60
:102A3000E259F64D808391830E948524DC01EC915C
:102A4000F0E0EE0FFF1FE259F64D80839183F5D43D
:102A5000DC01EC91F0E0EE0FFF1FE259F64D8083B0
:102A600091830F91EF900895FC0143815481268159
:102A70006581818192810C94DF250F931F93CF9301
:102A8000DF930EE719E2F801C191D1918F012097F0
:102A900029F0E985FA850995811107C0FAE20E351A
:102AA0001F0789F780E090E001C0CE01DF91CF9150
:102AB0001F910F910895DF92EF92FF920F931F9352
:102AC000CF93DF93CEE7D7E200E010E0EE24E3946B
:102AD000F12CDD24DA948F819885892B81F5CE0144
:102AE000C3DFCBDF8F839887009749F1DC0117960E
:102AF000ED91FC91189761E0CE010995EF81F88581
:102B00000580F681E02D309711F0CE0109952091D6
:102B10002223C701002E01C0880F0A94EAF7822BF6
:102B200080932223EF81F8850384F485E02D30978C
:102B300011F0CE010995F801E050F04ED0820F5F00
:102B40001F4FEE960830110531F6DF91CF911F919E
:102B50000F91FF90EF90DF9008954F925F926F92E8
:102B60007F92AF92BF92CF92DF92EF92FF920F933C
:102B70001F93CF93DF932B013C010091B925A02E29
:102B8000B12C8EE3089F80011124E801C258D84D72
:102B9000CE016ADFEF80F884E114F10409F478C013
:102BA000D7011996ED91FC911A97099581111AC0D8
:102BB000EF81F8850780F085E02D60E0CE01099572
:102BC00081E090E00090B92502C0880F991F0A9417
:102BD000E2F78095909122238923809322231F82FC
:102BE000188656C0D7011D96ED91FC911E9730971F
:102BF000B1F06E01BDE3CB0ED11CD6014C91442344
:102C000071F0B8016D56784DCE010995F60110822C
:102C1000E091B925F0E0E050F04E8FEF8083D701CE
:102C20001B968D919C911C97892B91F18EE38A9D27
:102C3000F0018B9DF00D1124E258F84D81899289A5
:102C4000A389B489B301A201481B590B6A0B7B0B02
:102C5000D70113968D919C911497A0E0B0E048178E
:102C600059076A077B07A0F0418A528A638A748AEF
:102C7000D7011B96ED91FC911C97CE0109958823F5
:102C800039F0E091B925F0E0E050F04E8FEF80830D
:102C90008091B9258F5F883018F48093B92502C0E0
:102CA0001092B925DF91CF911F910F91FF90EF9076
:102CB000DF90CF90BF90AF907F906F905F904F90DC
:102CC000089585E797E29F938F9381EA92E09F931F
:102CD0008F930E94E7268CE697E29F938F9384E977
:102CE00092E09F938F930E94E7268DB79EB7089638
:102CF0008DBF9EBF08950F931F93CF93DF93CDB7E2
:102D0000DEB72D97CDBFDEBF8C879D87DC012C9170
:102D10002536B1F40EE717E2D8011796ED91FC9134
:102D20001897309731F00780F085E02D61E0C801F9
:102D30000995025C1F4FB9E20E361B0769F7AEC05A
:102D4000263709F044C01F921F921F9211E01F9373
:102D500083E792E09F938F930E94E7261F921F9232
:102D60001F921F9380E692E09F938F930E94E72625
:102D7000CE0101960E946D288F811F928F938E81C4
:102D80001F928F938D811F928F938C811F928F93AF
:102D90008B811F928F938A811F928F9389811F92BB
:102DA0008F938B851F928F938A851F928F9389852E
:102DB0001F928F9388851F928F9387E292E09F9353
:102DC0008F930E94E726CDBFDEBF7BDF67C02E3624
:102DD000B1F502968C879D876BEC72E2CE010C9662
:102DE0000E94CD2DDC018C918436A9F0853729F520
:102DF0006BEC72E2CE010C960E94CD2D0097E9F0AB
:102E000048E050E0BC0185E797E20E94BE2D109299
:102E10007D27DDDC12C06BEC72E2CE010C960E94C5
:102E2000CD2D009751F048E050E0BC018CE697E2D0
:102E30000E94BE2D10927427CADC43DF2FC02037BA
:102E400049F502968C879D876BEC72E2CE010C9659
:102E50000E94CD2D0E94882D81110EC081E192E04B
:102E60009F938F930E94E7268091640680618093F0
:102E700064060F900F9012C08CEF91E09F938F9398
:102E80000E94E726809164068F7E809364060F90EF
:102E90000F9004C0243611F40E9414272D96CDBF44
:102EA000DEBFDF91CF911F910F9108952F923F9236
:102EB0004F925F926F927F928F929F92AF92BF924A
:102EC000CF92DF92EF92FF920F931F93CF93DF93F6
:102ED000CDB7DEB76197CDBFDEBF8C0181E0D801F1
:102EE00019968C93AE014F5F5F4F64E989E20E94AF
:102EF0004A26AE014F5F5F4F66E989E20E944A268B
:102F00002C01612C712CAE014F5F5F4F68E989E2A3
:102F10000E944A264C01A12CB12CAE014F5F5F4F9D
:102F20006AE989E20E944A269C0140E050E02E8333
:102F30003F8348875987382D292D9A2D8B2D84144E
:102F40009504A604B70420F4342D252D962D872D45
:102F5000C32ED22EE92EF82E8E819F81A885B985A9
:102F6000C816D906EA06FB0610F46C017D01382D5F
:102F7000292D9A2D8B2D481459046A047B0420F4C2
:102F8000342D252D962D872D3A832B839C838D837D
:102F90002A813B814C815D818E819F81A885B98585
:102FA00082179307A407B50720F48A839B83AC8319
:102FB000BD83A30192018A819B81AC81BD81281BC5
:102FC000390B4A0B5B0BAFEFB0E00E94FF2B6A8717
:102FD0007B878C879D87A50194018A819B81AC8129
:102FE000BD81281B390B4A0B5B0BAFEFB0E00E9491
:102FF000FF2BA70196010E94DD2B29013A012E81AA
:103000003F81488559858A819B81AC81BD81281B80
:10301000390B4A0B5B0BAFEFB0E00E94FF2BA7010F
:1030200096010E94DD2B49015A01D8011C962D9072
:103030003C901D971E96ED91FC911F97EA83FB83B0
:103040006A857B858C859D85A70196010E94DD2B75
:10305000D8011A968D919C911B97821B930B97FF19
:1030600003C09195819591090697B4F42418350809
:1030700037FE03C0319421943108B6E02B16310499
:103080005CF48A819B818819990997FF03C0919507
:103090008195910906974CF19F928F925F924F9282
:1030A0003F932F93D8011796ED91FC911897828149
:1030B0008F9381818F938C911F928F9386ED92E0F5
:1030C0009F938F932E873F87488B598B0E94E726CB
:1030D0002E853F85F801228733874486558686866C
:1030E0009786CDBFDEBF81E001C080E06196CDBF95
:1030F000DEBFDF91CF911F910F91FF90EF90DF9096
:10310000CF90BF90AF909F908F907F906F905F9087
:103110004F903F902F900895CF93DF931F92CDB79C
:10312000DEB7BE016F5F7F4F89E20E94EC250F90F2
:10313000DF91CF910895CF93DF9300D0CDB7DEB765
:103140009E012E5F3F4F43E060E889E20E946426C3
:10315000AE014F5F5F4F62E989E20E9407269E0140
:103160002E5F3F4F843431F445ED61E889E20E94DF
:1031700064260DC04DEE61E889E20E9464269E013E
:103180002E5F3F4F40E067E889E20E94642681E0BD
:103190000F900F90DF91CF910895FC016623D9F035
:1031A000613089F5A781B08512968C9112978F9323
:1031B00011968C918F9380811F928F938CEC92E06B
:1031C0009F938F930E94E7260F900F900F900F9080
:1031D0000F900F900895A781B08512968C91129749
:1031E0008F9311968C918F9380811F928F9382EC95
:1031F00092E09F938F930E94E7260F900F900F907D
:103200000F900F900F90089588E590E20895EF9247
:10321000FF920F931F93CF93DF9300D0CDB7DEB70C
:103220008B017A019E012F5F3F4FFB01408162E0DD
:1032300085E10E946426F801808180FF17C0F6E0D6
:10324000EF16F10499F40E5F1F4F93E0F8014081EF
:103250000E5F1F4F9E012F5F3F4F692F85E19A83BD
:103260000E9464269A819F5F983081F70F900F909B
:10327000DF91CF911F910F91FF90EF900895EF9202
:10328000FF920F931F93CF93DF931F92CDB7DEB7BB
:103290008C01AE014F5F5F4F60E085E10E942E26FA
:1032A0007C01D80119962D913C911A97281B390B56
:1032B00037FF03C031952195310925303105DCF008
:1032C000FF92EF92D8011796ED91FC9118978281A9
:1032D0008F9381818F938C911F928F938CEE92E0CC
:1032E0009F938F930E94E726F801E186F286CDBF77
:1032F000DEBF81E001C080E00F90DF91CF911F9190
:103300000F91FF90EF900895CF93DF931F92CDB769
:10331000DEB7BE016F5F7F4F85E10E94EC250F9005
:10332000DF91CF91089587E690E20895AF92BF9222
:10333000DF92EF92FF920F931F93CF93DF931F9231
:10334000CDB7DEB78C01AE014F5F5F4F60E082E129
:103350000E940726D82EAE014F5F5F4F61E082E1E9
:103360000E942E267C01AE014F5F5F4F63E082E139
:103370000E942E265C018D2D8170D82ED8011996C1
:103380008C9119971C962D913C911D971A964D91F1
:103390005C911B974E195F0957FF03C051954195EA
:1033A00051094330510564F42A193B0937FF03C022
:1033B0003195219531092330310514F48D1511F122
:1033C000BF92AF92FF92EF921F92DF92D8011796B1
:1033D000ED91FC91189782818F9381818F938C91CD
:1033E0001F928F9389EF92E09F938F930E94E7261D
:1033F000F801D186E286F386A486B586CDBFDEBF0E
:1034000081E001C080E00F90DF91CF911F910F917B
:10341000FF90EF90DF90BF90AF900895CF93DF9330
:103420001F92CDB7DEB7BE016F5F7F4F82E10E9472
:10343000EC250F90DF91CF91089586E790E20895F3
:10344000CF93DF931F92CDB7DEB7AE014F5F5F4FD3
:1034500062E989E30E94072691E0843409F090E054
:10346000892F0F90DF91CF910895CF93DF931F9213
:10347000CDB7DEB7BE016F5F7F4F89E30E94EC25B9
:103480000F90DF91CF910895CF93DF931F92CDB727
:10349000DEB79E012F5F3F4F43E060E889E30E9463
:1034A0006426CEDF9E012F5F3F4F882331F045ED2C
:1034B00061E889E30E9464260DC04DEE61E889E36E
:1034C0000E9464269E012F5F3F4F40E067E889E33A
:1034D0000E94642681E00F90DF91CF9108952F9292
:1034E0003F924F925F927F928F929F92AF92BF9244
:1034F000CF92DF92EF92FF920F931F93CF93DF93C0
:103500001F92CDB7DEB78C019BDFB82E882309F45C
:103510008DC081E0D80119968C93AE014F5F5F4F4B
:1035200066E989E30E944A266C01AE014F5F5F4F56
:1035300068E989E30E944A267C01AE014F5F5F4F34
:103540006AE989E30E944A26FC019E2D8F2DEC1426
:10355000FD0410F49C2D8D2D292F382F2E173F0799
:1035600008F49F014FEF4C9DC0014D9D900D11241B
:10357000B9010E94C92B6B014E9DC0014F9D900D5A
:103580001124B9010E94C92B7B014E9FC0014F9F9E
:10359000900D1124B9010E94C92B4B01F80124851B
:1035A000358586859785428553854C195D0957FF7A
:1035B00003C0519541955109463051059CF42E198F
:1035C0003F0937FF03C03195219531092630310578
:1035D0004CF48819990997FF03C091958195910939
:1035E000069714F19F928F92FF92EF92DF92CF9203
:1035F000D8011796ED91FC91189782818F93818164
:103600008F938C911F928F9388E493E09F938F9375
:103610000E94E726F801C286D386E486F586868670
:103620009786CDBFDEBFB7C0B12CB5C0D801199603
:103630001C92AE014F5F5F4F64E989E30E944A2606
:10364000A82E992EAE014F5F5F4F66E989E30E9475
:103650004A26882E792EAA2DB92D2AE13AEC47E088
:1036600050E00E94FF2B6C01EE24FF24A82DB72D03
:103670000E94FF2B1C0144245524C114D104E104F1
:10368000F10471F0C201B1013AE0660F771F881FA3
:10369000991F3A95D1F7A70196010E94DD2B03C02F
:1036A00020E030E0A901DA01C9010196A11DB11D98
:1036B000B695A795979587958B399105A105B10585
:1036C000A0F0843C9105A105B105A0F0873E9105CD
:1036D000A105B105A0F085319140A105B105A0F08B
:1036E000E0E0F0E0A0E0B0E013C0E1E7FDE3A8E433
:1036F000B1E20EC0E0E3FBE5A7E3BAE209C0E9EB03
:10370000FDE2AFEEB8E104C0EAE9F9E1AFEDBFE0F8
:10371000A70196010E94FF2B6B017C0120E8D21AC1
:10372000E108F108DF01A20191010E94FF2BC61AF6
:10373000D70AE80AF90A6701EE24FF24D8011A968D
:103740008D919C911B97F601E81BF90BCF01F7FFB8
:1037500003C09195819591090697ECF0FF92EF9245
:10376000DF92CF927F928F929F92AF9282EE92E2FF
:103770009F938F93D8018C911F928F9384E393E052
:103780009F938F930E94E726F801C286D386E48632
:10379000F586CDBFDEBF8B2D0F90DF91CF911F91AE
:1037A0000F91FF90EF90DF90CF90BF90AF909F90E0
:1037B0008F907F905F904F903F902F900895CF9380
:1037C000DF93EC01662379F1613009F057C038DEF0
:1037D00098818823A9F0EF81F88582818F93818178
:1037E0008F931F929F938AE293E09F938F930E94FF
:1037F000E7260F900F900F900F900F900F903EC004
:1038000022EE32E23F932F931F929F9380E293E048
:103810009F938F930E94E7260F900F900F900F9029
:103820000F900F902BC0998588819130A9F4EF817A
:10383000F88592819F9391819F931F928F9386E148
:1038400093E09F938F930E94E7260F900F900F9025
:103850000F900F900F9012C022EE32E23F932F9301
:103860001F928F938CE093E09F938F930E94E726A3
:103870000F900F900F900F900F900F90DF91CF91BE
:10388000089585E890E20895CF92DF92EF92FF923B
:103890001F93CF93DF931F92CDB7DEB76B017B01F0
:1038A00011E0F7014081F2E0EF0EF11C9E012F5F65
:1038B0003F4F612F80E60E9464261F5F193089F711
:1038C0009E012F5F3F4FF601408969E180E60E942B
:1038D00064269E012F5F3F4F4FEF6CE080E60E9411
:1038E00064260F90DF91CF911F91FF90EF90DF90B2
:1038F000CF900895CF93DF931F92CDB7DEB7BE016F
:103900006F5F7F4F80E60E94EC250F90DF91CF9193
:10391000089584E990E20895AF92BF92CF92DF922A
:10392000EF92FF920F931F93CF93DF931F92CDB728
:10393000DEB78C01AE014F5F5F4F68E28DE10E9400
:103940004A266C01AE014F5F5F4F6AE28DE10E9433
:103950004A267C01AE014F5F5F4F6CE28DE10E9411
:103960004A265C01D8011B964D915C911C971D96CF
:103970002D913C911E9719968D919C911A978C19B7
:103980009D0997FF03C0919581959109873991050C
:10399000A4F44E195F0957FF03C051954195510991
:1039A0004739510554F42A193B0937FF03C03195B3
:1039B00021953109273931051CF1BF92AF92FF9251
:1039C000EF92DF92CF92D8011796ED91FC91189764
:1039D00082818F9381818F938C911F928F938BE53E
:1039E00093E09F938F930E94E726F801C186D286C9
:1039F000E386F486A586B686CDBFDEBF81E001C032
:103A000080E00F90DF91CF911F910F91FF90EF9089
:103A1000DF90CF90BF90AF900895CF93DF931F9228
:103A2000CDB7DEB7BE016F5F7F4F8DE10E94EC2501
:103A30000F90DF91CF910895CF93DF931F92CDB771
:103A4000DEB79E012F5F3F4F4FE360E28DE10E94A2
:103A5000642681E00F90DF91CF91089583EA90E290
:103A60000895CF93DF931F92CDB7DEB7FB0130816E
:103A70002181822F881F8827881F41E0480F832FCC
:103A8000922F97FF03C091958195910980349105FC
:103A900014F08FE390E09C012B5F3F4F2B303105FA
:103AA00030F0880F991F880F991F482B01C040E004
:103AB0009E012F5F3F4F60E084E60E9464260F90D6
:103AC000DF91CF910895CF93DF931F92CDB7DEB7EB
:103AD000BE016F5F7F4F84E60E94EC250F90DF915F
:103AE000CF91089582EB90E20895EF92FF920F93A9
:103AF0001F93CF93DF93CDB7DEB72C97CDBFDEBF3B
:103B00008B01FE0131968AE0DF011D928A95E9F76B
:103B1000FB01308181E037FF80E0D80112962C91C3
:103B200027FD02C040E001C042E0482BF80194812B
:103B300097FD02C080E001C084E0542F582BD801CB
:103B400016968C9187FD02C040E001C048E0452BED
:103B5000498341E036FF40E026FD02C050E001C04D
:103B600052E0452B96FD02C050E001C054E0542BBA
:103B700086FD02C040E001C048E0452B4A8341E099
:103B800035FF40E025FD02C050E001C052E0452B6A
:103B900095FD02C050E001C054E0542B85FD02C0E9
:103BA00040E001C048E0452B4B8341E034FF40E05A
:103BB00024FD02C050E001C052E0452B94FD02C03C
:103BC00050E001C054E0542B84FD02C040E001C02D
:103BD00048E0452B4C8341E033FF40E023FD02C029
:103BE00050E001C052E0452B93FD02C050E001C0FF
:103BF00054E0542B83FD02C040E001C048E0452B57
:103C00004D8341E032FF40E022FD02C050E001C0A0
:103C100052E0452B92FD02C050E001C054E0542B0D
:103C200082FD02C040E001C048E0452B4E8341E0E8
:103C300031FF40E021FD02C050E001C052E0452BC1
:103C400091FD02C050E001C054E0542B81FD02C040
:103C500040E001C048E0452B4F8341E030FF40E0A9
:103C600020FD02C020E001C022E0422B90FD02C0F6
:103C700090E001C094E0942B80FD02C080E001C080
:103C800088E0892B8887F80180859185019711F458
:103C900080E18987D8011A968D919C911B97019795
:103CA00011F480E28A87FE0131967F0191E0D7010D
:103CB0004D917D019E01255F3F4F692F83E69C87D3
:103CC0000E9464269C859F5F9B3089F79E01255F3B
:103CD0003F4FF801448569E183E6F6D79E01255FF1
:103CE0003F4F4FEF6CE083E6EFD72C96CDBFDEBFA2
:103CF000DF91CF911F910F91FF90EF900895CF9397
:103D0000DF931F92CDB7DEB79E012F5F3F4F42E09A
:103D100060E083E6D9D70F90DF91CF910895CF93DC
:103D2000DF931F92CDB7DEB7BE016F5F7F4F83E693
:103D300053D70F90DF91CF91089581EC90E20895D1
:103D4000EF92FF920F931F93CF93DF9300D0CDB7E5
:103D5000DEB78B017A019E012F5F3F4FFB0140814F
:103D600062E086E1B1D7F801808180FF16C0F6E0FD
:103D7000EF16F10491F40E5F1F4F93E0F8014081BC
:103D80000E5F1F4F9E012F5F3F4F692F86E19A8381
:103D90009BD79A819F5F983089F70F900F90DF91A2
:103DA000CF911F910F91FF90EF900895EF92FF92A6
:103DB0000F931F93CF93DF931F92CDB7DEB78C0184
:103DC000AE014F5F5F4F60E086E148D77C01D801CC
:103DD00019962D913C911A97281B390B37FF03C078
:103DE00031952195310925303105D4F0FF92EF92BC
:103DF000D8011796ED91FC91189782818F9381815C
:103E00008F938C911F928F938EE693E09F938F9365
:103E1000DED7F801E186F286CDBFDEBF81E001C0CA
:103E200080E00F90DF91CF911F910F91FF90EF9065
:103E30000895CF93DF931F92CDB7DEB7BE016F5FBA
:103E40007F4F86E1C9D60F90DF91CF91089580ED25
:103E500090E20895CF93DF931F92CDB7DEB79E0116
:103E60002F5F3F4F41E060E084E52ED79E012F5F3A
:103E70003F4F4FEF63E184E527D79E012F5F3F4F10
:103E80004FEF64E184E520D79E012F5F3F4F4FEF56
:103E900065E184E519D79E012F5F3F4F40E066E161
:103EA00084E512D70F90DF91CF910895EF92FF92A2
:103EB0000F931F93CF93DF93CDB7DEB76097CDBF3E
:103EC000DEBFFB01842F4330F9F4F080E2800481EF
:103ED00011E09E01205F3F4F4E2D612F84E5F4D607
:103EE00061E0610F9E01205F3F4F4F2D84E5ECD6CE
:103EF00062E0610F9E01205F3F4F402F84E5E4D6D2
:103F00001D5F103131F729C04F3039F5AE014F5FD9
:103F10005F4FDA011D928A95E9F78E010D5F1F4F01
:103F2000CB014E969801225031096281D9016C93E0
:103F30002F5F3F4F6081D9016C932481D8012C936E
:103F400036960D5F1F4FE817F90761F78E01005F86
:103F50001F4F2FE061E084E5D7D69E01205F3F4FE1
:103F600040E066E184E5B0D66096CDBFDEBFDF916C
:103F7000CF911F910F91FF90EF900895CF93DF9312
:103F80001F92CDB7DEB7BE016F5F7F4F84E524D6A9
:103F90000F90DF91CF9108958FED90E208954F92A9
:103FA0005F926F927F928F929F92AF92BF92CF92C9
:103FB000DF92EF92FF920F931F93CF93DF931F92A5
:103FC000CDB7DEB78C01AE014F5F5F4F60E08CE292
:103FD0001ED6E82E80FF6EC0AE014F5F5F4F63E0DC
:103FE0008CE215D68C73582E380189E0680E711C4E
:103FF00082E0C82ED12CF12C88248394912C2BE7BD
:10400000A22E23E0B22EC4010C2C01C0880F0A940A
:10401000EAF78521C9F0AE014F5F5F4F60E16C0D9B
:104020008CE2F5D5482EAE014F5F5F4F60E36C0D1B
:104030008CE2EDD591E048160CF490E0D3018C9120
:10404000981711F09C9302C0FF20F9F0F8018185C8
:104050001F928F9382851F928F9383851F928F93D8
:1040600084851F928F930780F085E02D82818F9346
:1040700081818F93D8018C911F928F93BF92AF92C1
:10408000A6D6CDBFDEBFFF24F394FFEFCF1ADF0A21
:104090008FEF681A780A96E0C916D10409F0B3CFF9
:1040A0004E2D4E7F9E012F5F3F4F60E08CE20CD67D
:1040B0008F2D01C080E00F90DF91CF911F910F9164
:1040C000FF90EF90DF90CF90BF90AF909F908F9038
:1040D0007F906F905F904F900895CF93DF931F92E2
:1040E000CDB7DEB79E012F5F3F4F40E060E08CE22E
:1040F000EBD59E012F5F3F4F40E360E28CE2E4D5B9
:104100009E012F5F3F4F40E464E48CE2DDD59E01C9
:104110002F5F3F4F4CE361E28CE2D6D59E012F5FCB
:104120003F4F48E064E28CE2CFD59E012F5F3F4FC6
:1041300040E66FE18CE2C8D59E012F5F3F4F4CE314
:1041400062E78CE2C1D59E012F5F3F4F40E068E2FD
:104150008CE2BAD59E012F5F3F4F40E06AE28CE2CD
:10416000B3D59E012F5F3F4F40EC63E98CE2ACD5A5
:104170009E012F5F3F4F42E064E98CE2A5D50F908E
:10418000DF91CF910895CF93DF931F92CDB7DEB724
:10419000BE016F5F7F4F8CE21FD50F90DF91CF91F3
:1041A00008958EEE90E20895CF93DF931F92CDB7DE
:1041B000DEB79E012F5F3F4F49E464EF87E784D568
:1041C00081E00F90DF91CF910895FF920F931F939D
:1041D000CF93DF931F92CDB7DEB7F82EAE014F5FBE
:1041E0005F4F682F87E73AD58C0162E06F0DAE0113
:1041F0004F5F5F4F87E70BD5A80160E070E094E068
:10420000440F551F661F771F9A95D1F782958F70BF
:104210008A019B01080F111D211D311DC901B80123
:104220000F90DF91CF911F910F91FF900895CF9341
:10423000DF931F92CDB7DEB7BE016F5F7F4F87E779
:10424000CBD40F90DF91CF910895CF93DF931F923E
:10425000CDB7DEB7682FAE014F5F5F4F87E7683895
:1042600011F06E3829F416D5BC0180E090E005C04D
:1042700011D5BC01990F880B990B0F90DF91CF914D
:1042800008952F923F924F925F926F927F928F92FA
:104290009F92AF92BF92CF92DF92EF92FF920F93D5
:1042A0001F93CF93DF93CDB7DEB7E597CDBFDEBFCA
:1042B00089A39AA3AE014E5F5F4F63EF87E7A7D450
:1042C00083FD0CC38AEF81DF6B017C01AE014F5F80
:1042D0005F4F68E887E7DED44C01A12CB12CB70111
:1042E000A601A3E07595679557954795AA95D1F7CF
:1042F000D501C401880F991FAA1FBB1F9A01AB01EA
:10430000281B390B4A0B5B0B8AE82AAB3BAB4CAB47
:104310005DAB9BDF2B013C0104E0F594E794D7945F
:10432000C7940A95D1F7C818D908EA08FB088CE8A1
:104330008CDF4B015C012AA93BA94CA95DA9C301F3
:10434000B2010E94BA2B2B013C018BE0759467945B
:10435000579447948A95D1F7A7019601C701B601F2
:104360000E94BA2B9B01AC019CE05595479537956F
:1043700027959A95D1F7C501B4010E94BA2BDC01AB
:10438000CB012EE0B595A795979587952A95D1F7FE
:10439000A3019201280F391F4A1F5B1F2B8F3C8FEF
:1043A0004D8F5E8F87EF11DF6EA77FA788AB99AB2C
:1043B000CB8CDC8CED8CFE8CFF0CCC08DC2C7601DD
:1043C0002B8D3C8D4D8D5E8D6C2D7C2D8C2D9C2DE3
:1043D000345F4140510961097109810991092B87B5
:1043E0003C87498B5A8B6B8B7C8B8D8B9E8B5901B9
:1043F0006A017B018C010E94092C2EA33FA348A7D0
:1044000059A76AA77BA78CA79DA788E91EDF6F83A2
:10441000788789879A8786E918DF6B837C838D8309
:104420009E8384E912DF6D877E878F87988B82E970
:104430000CDF2B013C0180E908DF9B01AC01550F2B
:10444000220B322FA9015B016C01E22EF22E022F0A
:10445000122F2B853C8549895A896B897C898D89E6
:104460009E890E94092C0CE00E94242D19014A010A
:10447000698F7A8F8F8F98A3AE014F5F5F4F6EE881
:1044800087E708D48F8B988FD301C201BB0F880BAD
:10449000982FDC0152016301E82EF82E082F182F07
:1044A0002EA13FA148A559A56AA57BA58CA59DA5D0
:1044B0000E94092C08E00E943D2D51016401E98C05
:1044C000FA8C0F8D18A10E945B2D70588F4F9F4F53
:1044D000AF89B88D5D01C12CD12CE12CF12C00E00D
:1044E00010E00E94092C01E20E943D2D2F8B398F94
:1044F0004A8F5F8F68A37BA38CA39DA3A0E00E943B
:104500006D2D09F4B1C18F819885A985BA85BB0F3E
:10451000880B982FDC01AF80B884C984DA84E82E38
:10452000F82E082F182F2EA13FA148A559A56AA53E
:104530007BA58CA59DA50E94092C19012A013B0190
:104540004C018B819C81AD81BE81BB0F880B982F64
:10455000DC01AB80BC80CD80DE80E82EF82E082FF9
:10456000182F2B853C8549895A896B897C898D89CF
:104570009E890E94092C01E10E94242D59016A01A3
:104580007B018C019101A201B301C4010E945B2D4A
:1045900019012A01662E7F838B839B8780E090E040
:1045A000A0E1B0E02EA53FA548A959A9821B930B15
:1045B000A40BB50B6C017D01FF0CCC08DC2C760143
:1045C0009C01AD016C2D7C2D8C2D9C2D0FE10E944A
:1045D000242D2C87732E4A01B62FA72FF82FE92FF1
:1045E000CD84DE84EF84F888FF0CCC08DC2C7601C7
:1045F0002D853E854F8558896C2D7C2D8C2D9C2DCD
:1046000003E20E94242D59016A017B018C01910172
:10461000A201662D7F818B819B850E945B2D5901B4
:104620006A017B018C012C85372DA4016B2F7A2F19
:104630008F2F9E2F0E94642D722E832E942EB52FC5
:10464000A62FF72FE82F592E03E00E94242DA72C28
:10465000B82CC92CDB2EEA2EFF2E0E2F152D0E9412
:10466000642D59016A017B01682E192F03E00E9415
:10467000242D062D0E94642D03E00E94242DA72CDA
:10468000B82CC92CDB2EEA2EFF2E0E2F152D0E94E2
:10469000642D02E00E94242D0E2F0E94642D01E063
:1046A0000E94242D0E2F0E94642DAF88B98CCA8CD5
:1046B000DF8CE8A0FBA00CA11DA10E945C2C2D8723
:1046C0003B874C87598B6A8B7B8B8C8B9D8B8EE9C0
:1046D000BCDD2B013C012D853B854C8559896A89C0
:1046E0007B898C899D890DE00E943D2D322E832E81
:1046F000942E252E6E8B7F8B898F9A8F8CE9A5DD6A
:104700006F83788789879A87D301C201BB0F880B93
:10471000982FDC018B839C83AD83BE83A32CB82CA4
:10472000C92CD22CEE88FF88098D1A8D9201A30125
:104730006B81762F862F962F0E94092C0E94092CC0
:1047400009E10E943D2D59016A017B018C012D85F3
:104750003B854C8559896A897B898C899D890E9412
:104760005B2D322E432E542E652E762E872E982EBC
:10477000292E2F81388549855A85550F220B322FD6
:10478000A9012B833C834D835E83AD84BB84CC84A1
:10479000D988EA88FB880C891D892F81388549854D
:1047A0005A856B81762F862F962F0E94092C03E164
:1047B0000E943D2D59016A017B018C01232D342D6E
:1047C000452D562D672D782D892D922D0E945B2D1C
:1047D00008E00E943D2D19012A013B014C018AE9A4
:1047E00034DD6B017C01FF0CCC08DC2C76019B01D5
:1047F000AC016C2D7C2D8C2D9C2D04E00E94242D71
:1048000059016A017B018C019101A201B301C4012C
:104810000E945B2DF22E032F142FB52FF62FE72FBA
:10482000D82EE92EA0E00E946D2D84F421503F4F38
:104830004F4F5F4F6F4F7F4F8F4F9F4FF22E032F82
:10484000142FB52FF62FE72FD82EE92E2F2D302F2E
:10485000412F5B2F6F2F7E2F8D2D9E2D08E00E9404
:104860003D2DC9019A0104C080E090E020E030E0D5
:104870003F932F939F938F93A5E0B0E02B8D3C8DBA
:104880004D8D5E8DBCD7DC01CB0180589F4FAF4F63
:10489000BF4F892F9A2FAB2FBB27A7FDBA95BF9388
:1048A000AF939F938F93A9A1BAA11796ED91FC9115
:1048B000189782818F9381818F938C911F928F9310
:1048C00081E993E09F938F9382D29E012E5F3F4FA9
:1048D00049E464EF87E7F8D1CDBFDEBF80E0E5961D
:1048E000CDBFDEBFDF91CF911F910F91FF90EF9071
:1048F000DF90CF90BF90AF909F908F907F906F9000
:104900005F904F903F902F9008958DEF90E2089523
:10491000E0916F2AF091702A81E090E09C01009074
:104920006E2A02C0220F331F0A94E2F726832183E6
:1049300028E22A95F1F7E091712AF091722A00900D
:10494000732A02C0880F991F0A94E2F78683818335
:1049500088E28A95F1F70895E091712AF091722A20
:1049600081E090E09C010090732A02C0220F331F67
:104970000A94E2F7228328E22A95F1F7E0916F2A60
:10498000F091702A00906E2A02C0880F991F0A9435
:10499000E2F7828388E28A95F1F70895FC0121E02D
:1049A00030E0C90102C0880F991F6A95E2F7BC0187
:1049B000828390E088E28A95F1F79F5F208530E05E
:1049C00026233723232B19F49530A1F702C0953005
:1049D00019F482E0FA0180830895FC01A0916F2A06
:1049E000B091702A21E030E0C90100906E2A02C027
:1049F000880F991F0A94E2F712968C9388E28A95A1
:104A0000F1F7A091712AB091722A0090732A02C026
:104A1000220F331F0A94E2F712962C9328E22A956C
:104A2000F1F7A0916F2AB091702A18962C9130E07E
:104A300000906E2A02C0359527950A94E2F720FF70
:104A400002C094E001C093E09083E091712AF0915C
:104A5000722A81E090E09C010090732A02C0220F2C
:104A6000331F0A94E2F72683218328E22A95F1F77F
:104A7000E0916F2AF091702A00906E2A02C0880F90
:104A8000991F0A94E2F78683818388E28A95F1F779
:104A9000089548E050E021E030E0E0916F2AF09185
:104AA000702A90916E2AD90101C0AA0F9A95EAF74F
:104AB00087FF02C0A28302C0A683A18398E29A95D1
:104AC000F1F7E091712AF091722AD9010090732ACE
:104AD00002C0AA0FBB1F0A94E2F7A28398E29A953C
:104AE000F1F7E091712AF091722AD9010090732AAE
:104AF00002C0AA0FBB1F0A94E2F7A683A18398E223
:104B00009A95F1F7880F4150510939F6CB0165CFDD
:104B1000CF92DF92EF92FF920F931F93CF936C018E
:104B2000E0916F2AF091702A81E090E000906E2A67
:104B300002C0880F991F0A94E2F7828308E010E010
:104B4000C0E0EE24E394F12CA6016091732A8091D9
:104B5000712A9091722A22DF88E28A95F1F7E0911A
:104B60006F2AF091702A208530E000906E2A02C0F2
:104B7000359527950A94E2F721703327CC0FC22B85
:104B8000E091712AF091722AC7010090732A02C045
:104B9000880F991F0A94E2F78683818388E28A95B9
:104BA000F1F70150110981F6C60117DF8C2FCF9163
:104BB0001F910F91FF90EF90DF90CF900895809319
:104BC0006F2A9093702A60936E2A4093712A5093B3
:104BD000722A2093732A08950F931F93CF93DF9324
:104BE0001F92CDB7DEB78B01898392DEB801898130
:104BF000880F4FDFB1DE81E0F8019081933009F03A
:104C000080E00F90DF91CF911F910F910895EF9267
:104C1000FF920F931F93CF93DF931F92CDB7DEB711
:104C2000062F7A01182F110F73DEB701812F31DFA4
:104C3000B701802F2EDF90DE6BDEB701812F816000
:104C400028DFC70165DF898387DE89810F90DF91C7
:104C5000CF911F910F91FF90EF900895EF92FF92E7
:104C60001F93CF93DF93182FD62F7A01D0DFC82F51
:104C700061E06D0FA701812FCADF2C2F30E0322FAA
:104C80002227A901482BCA01DF91CF911F91FF90E4
:104C9000EF900895EF92FF921F93CF93DF93182F19
:104CA000C62F7A01B4DFD82F61E06C0FA701812FE6
:104CB000AEDF2D2F30E0A901582BCA01DF91CF9133
:104CC0001F91FF90EF900895EF92FF921F93CF9363
:104CD000DF9300D0CDB7DEB7162F79014A838983E1
:104CE00017DEB7018981880FD4DEB701812FD1DEAD
:104CF000B7014A81842FCDDE0F900F90DF91CF91C5
:104D00001F91FF90EF9028CEAF92BF92CF92DF928B
:104D1000EF92FF920F931F93CF93DF9300D0CDB705
:104D2000DEB7F62E6A012A838983F2DDB801898114
:104D3000880FAFDEB8018F2DACDE76012A81A22E5E
:104D4000B12CC7018C199D098A159B0534F4B80153
:104D5000F70181917F019DDEF4CF0F900F90DF91DD
:104D6000CF911F910F91FF90EF90DF90CF90BF9068
:104D7000AF90F2CDCF93C82F0E949405882331F0D5
:104D80008C2FCC0F990BCF910C94DD05CF9108950A
:104D9000EF92FF921F93CF93DF931F92CDB7DEB7B1
:104DA000182F99830E9494059981882349F0E12E58
:104DB000F92EF70181917F01882311F0DBDFF9CF14
:104DC0000F90DF91CF911F91FF90EF900895CF93B7
:104DD000DF93CDB7DEB70E949405882359F0AE016A
:104DE000495F5F4F6D817E818AEB95E2F6D68AEB53
:104DF00095E2CEDFDF91CF910895CF93DF9300D07E
:104E0000CDB7DEB720917A2A30917B2A2115310562
:104E100011F42EE73AE2CE010196821B930B0F901C
:104E20000F90DF91CF910895AF92BF92CF92DF9212
:104E3000EF92FF920F931F93CF93DF9380E794E05D
:104E40009F938F93C4DFD9DF9F938F938EE594E078
:104E50009F938F93BCDFD1DF9F938F9380E494E087
:104E60009F938F93B4DFC9DF9F938F9383E394E085
:104E70009F938F93ACDF60914B2770914C2780916B
:104E80004D2790914E279F938F937F936F9328EE9A
:104E900033E040E050E091D45F934F933F932F93E2
:104EA00089E094E09F938F9392DF40914B2750913C
:104EB0004C2760914D2770914E2780914F279091FC
:104EC0005027A0915127B09152279A01AB01280F8A
:104ED000391F4A1F5B1F60E472E48FE090E06DD4DD
:104EE0005F934F933F932F9389ED93E09F938F931D
:104EF0006EDF88EC93E09F938F9369DF0EE717E2F4
:104F00008DB79EB780968DBF9EBFC0E0D0E08AEB84
:104F1000E82E83E0F82E93EAC92E93E0D92E2CEAEE
:104F2000A22E23E0B22EDF93CF93FF92EF924FDFBA
:104F3000D8011796ED91FC9118970F900F900F9054
:104F40000F90309789F080811F928F9382818F9389
:104F500081818F93BF92AF923ADF0F900F900F90A5
:104F60000F900F900F9009C0DF93CF93DF92CF92F5
:104F70002EDF0F900F900F900F902196025C1F4F25
:104F8000C830D10581F6DF91CF911F910F91FF902D
:104F9000EF90DF90CF90BF90AF9008959FB7F894B7
:104FA000A0E5B0E016968C911697897F16968C93A3
:104FB0001697E0E6F0E080E885838BEB8683169613
:104FC0008C911697846016968C9380818160808383
:104FD0009FBF0895CF93DF9300D000D0CDB7DEB749
:104FE0008FEF8093700080937100809372008093A4
:104FF000730080937400809375008093760064E062
:1050000081E490E09BD06CE170E082E08DD08C83F5
:105010006DE170E082E088D08B838B819C8101966A
:1050200021F480E493E28B839C838B819C81898330
:105030009A83809362008A81809363009FB7F8947B
:10504000809150008260809350009FBF80915100FA
:1050500081FFFCCFA3DF61E080E490E06FD09FB7D9
:10506000F894809150008E7F809350009FBF2496CB
:10507000CDBFDEBFDF91CF9108959FB7F894E82FA1
:10508000F0E0E059FF4F60958081682360839FBF07
:105090000895CF93863011F0C0E001C0C8E180913F
:1050A000510081FD0DC09FB7F8948091500082603F
:1050B000809350009FBF8091510081FFFCCF6EDF35
:1050C0006C2F636084E490E039D060E480E0CF919D
:1050D000D4CF682F70E082E027C0CF93DF93EC013C
:1050E00088E0F7DF888389E0F4DF89838AE0F1DFF5
:1050F0008A838BE0EEDF8B838CE0EBDF8C838DE0AB
:10510000E8DF8D8380E1E5DF8E8382E1E2DF8F835C
:1051100083E1DFDF888784E1DCDF898785E1D9DF10
:105120008A87DF91CF9108954091CA01E62FF72F2A
:105130008093CA0184914093CA0108951BBEFC016B
:1051400028ED24BF6083089508958091C52690912D
:10515000C626A091C726B091C826C296A11DB11D32
:105160008093C5269093C626A093C726B093C826E1
:105170000C9480020E94EF139DEF88ED08B618BED4
:1051800084BF9093800008BE0E946014D7E0D09343
:10519000A20078941092742A1092752A1092762A9E
:1051A0001092772A1092782AC1E0C093792A12DFF0
:1051B000CBDF8FEF8093000680E1809360068091C3
:1051C00064068F7E8093640688E180937506D09391
:1051D0008006C093860682E08093860684E08093F2
:1051E00086060E94AC0680E098E00E948B0D65EA7E
:1051F00078E280E098E00E94C60D80910108887FE7
:105200008093010880EB94E0809326089093270810
:10521000809106088C7F8093060880910608836041
:105220008093060880910008807F81608093000849
:10523000F12CC7EAD4E0EE24E39407E814E080916F
:10524000680685FD0BC08091C926811107C0DF93D8
:10525000CF93BDDDE092C9260F900F908091680634
:1052600085FF0BC08091C926882339F01F930F93C7
:10527000AEDD1092C9260F900F908091CA26882328
:1052800011F18090C5269090C626A090C726B090B8
:10529000C8268BEC96E20E947B161092CA2680915B
:1052A000C5269091C626A091C726B091C826881918
:1052B0009909AA09BB0980934F2790935027A0937F
:1052C0005127B0935227F11002C00E945B15F3944E
:1052D0008090C5269090C626A090C726B090C8267C
:1052E0006091C5267091C6268091C7269091C826E8
:1052F0000E94AD158091C5269091C626A091C72623
:10530000B091C82688199909AA09BB0980934B272F
:1053100090934C27A0934D27B0934E2790CF08959C
:1053200081E008950895089508952F923F924F9235
:105330005F926F927F928F929F92AF92BF92CF9225
:10534000DF92EF92FF920F931F93CF93DF9389E049
:10535000282E662463949EE3392E22E0422ECFEB62
:10536000D6E235E0B32E48E0542E5AE0752E64E6BE
:10537000A62E08EE13E070E1E72E77E2F72EEBE3BE
:10538000CE2EE6E2DE2E0E942005882309F4DFC13E
:105390000E9465059091C4268D3009F0CBC09230F3
:1053A00009F0ADC08091BF268D3251F48091BE26A8
:1053B00081508093BE2681E090E06FEF7FEF04C0C4
:1053C00080E090E061E070E02091BE262330C1F1E2
:1053D00048F4213009F45DC0223009F06AC0A0E031
:1053E000B0E043C02430A1F0253009F062C0FC01D8
:1053F000E154F94D4081042E000C550B40535109E6
:105400004E9DD0014F9DB00D5E9DB00D112402C088
:10541000A0E0B0E0FC01E154F94DE20FF11D34973A
:105420004081042E000C550B40535109409FF00160
:10543000419FF00D509FF00D1124AE0FBF1F02C011
:10544000A0E0B0E0FC01E154F94DE20FF11D33970B
:105450004081042E000C550B40535109A49E40017D
:10546000A59E900C1124A80DB91DFC01E154F94D25
:10547000E20FF11D32974081042E000C550B405372
:105480005109749EF001759EF00D1124AE0FBF1FDF
:1054900002C0A0E0B0E08154994D820F911DFC0143
:1054A0003197E0810E2E000CFF0BF097EA0FFB1FE7
:1054B00002C0E0E0F0E08091BC269091BD262091F2
:1054C000BB2641E0420F4093BB26DC01A20FB11D79
:1054D000A20FB11DE69F9001E79F300DF69F300DA2
:1054E000112455962D933C9356971092BE26FE019B
:1054F0002B2D11922A95E9F7FC0145AF11C0993087
:1055000079F48091CA2681110BC080E8EBE3F6E2C2
:10551000ABECB6E201900D928A95E1F76092CA2653
:1055200010923A2680E8F60111928A95E9F71092D6
:10553000C42629CFE0913A2621E02E0F20933A2667
:10554000F0E0E55CF94D8083923009F0C0C08C3208
:1055500009F0AFC09091BE26992309F4ADC08091A7
:10556000BF268D3241F491509093BE2681E090E0A9
:105570006FEF7FEF04C080E090E061E070E0209189
:10558000BE262330C1F148F4213009F45DC0223039
:1055900009F06AC0A0E0B0E043C02430A1F025309B
:1055A00009F062C0FC01E154F94D4081042E000C69
:1055B000550B405351094E9DD0014F9DB00D5E9D3E
:1055C000B00D112402C0A0E0B0E0FC01E154F94D9F
:1055D000E20FF11D34974081042E000C550B40530F
:1055E0005109409FF001419FF00D509FF00D112493
:1055F000AE0FBF1F02C0A0E0B0E0FC01E154F94DC6
:10560000E20FF11D33974081042E000C550B4053DF
:105610005109A49E4001A59E900C1124A80DB91D0E
:10562000FC01E154F94DE20FF11D32974081042E47
:10563000000C550B40535109749EF001759EF00DFE
:105640001124AE0FBF1F02C0A0E0B0E08154994DFD
:10565000820F911DFC013197E0810E2E000CFF0B93
:10566000F097EA0FFB1F02C0E0E0F0E02091BC26BB
:105670009091BD268091BB2631E0380F3093BB2638
:10568000A22FB92FA80FB11DA80FB11DE69FC00111
:10569000E79F900DF69F900D112455968D939C9346
:1056A00056971092BE26FE012B2D11922A95E9F7EE
:1056B0006ACE803209F467CEE091BE2691E09E0F5B
:1056C0009093BE26F0E0E154F94D80835CCE91309A
:1056D00059F5223031F4803209F455CE5092C42667
:1056E00052CE2330D9F780538930C0F790E001972C
:1056F000389EF001399EF00D1124E258F84DE093E8
:10570000BC26F093BD2687819085892B39F315AE91
:105710004092C4261092BB261092BE26FE012B2D6D
:1057200011922A95E9F72FCE91112DCE823739F4B7
:10573000F89488ED84BF81E08093790008C08337B6
:1057400019F46092C4261FCE2092C4261CCEDF918D
:10575000CF911F910F91FF90EF90DF90CF90BF906E
:10576000AF909F908F907F906F905F904F903F9001
:105770002F900895DB018F939F9341D0BF91AF91FC
:10578000A29F800D911DA39F900DB29F900D11249B
:105790000895AA1BBB1B51E107C0AA1FBB1FA61778
:1057A000B70710F0A61BB70B881F991F5A95A9F7CA
:1057B00080959095BC01CD010895A1E21A2EAA1BF7
:1057C000BB1BFD010DC0AA1FBB1FEE1FFF1FA217B1
:1057D000B307E407F50720F0A21BB30BE40BF50BAE
:1057E000661F771F881F991F1A9469F76095709537
:1057F000809590959B01AC01BD01CF01089579D1B1
:10580000A59F900DB49F900DA49F800D911D112414
:105810000895DF93CF931F930F939A9DF02D219FAF
:10582000F00D8B9DF00D8A9DE02DF10D039FF00D85
:10583000029FE00DF11D4E9DE00DF11D5E9DF00DEE
:105840004F9DF00D7F936F93BF92AF925F934F93F5
:10585000D5014FD18B01AC01D7014BD1EB01E80F42
:10586000F91FD6011FD02F913F91D60142D1C60F0B
:10587000D71FE81FF91FAF91BF9114D02F913F910F
:1058800038D1C60FD71FE81FF91FD60132D1E60F56
:10589000F71F9801BE01CF0111240F911F91CF91E5
:1058A000DF91089526D1460F571FC81FD91F08F44E
:1058B00031960895689401C0E894F92FF12B0AF00D
:1058C00027C0A0E0B0E0E6E6FCE293C0092E059414
:1058D0001AF479D0112392F4F0E80F26FFEFE09448
:1058E000F09400951095B094C094D094A194BF0A00
:1058F000CF0ADF0AEF0AFF0A0F0B1F0B13D007FCBA
:1059000062D0CDB7DEB7ECE08DC0689401C0E894FA
:105910008F929F92CF93DF9305D0DF91CF919F908D
:105920008F90089588249924F401E401B0E49F93B2
:10593000AA279A158B049C04ED05FE05CF05D00718
:10594000A10798F4AD2FDC2FCF2FFE2FE92D982C37
:10595000892E982F872F762F652F542F432F322F84
:105960002227B85031F7BF9127C01B2EBF91BB270C
:10597000220F331F441F551F661F771F881F991F53
:10598000881C991CEE1FFF1FCC1FDD1FAA1FBB1F09
:105990008A149B04EC05FD05CE05DF05A007B107C1
:1059A00048F08A189B08EC09FD09CE09DF09A00B15
:1059B000B10B21601A94E1F62EF49401AF01BE01FF
:1059C000CD01000C08956095709580959095309567
:1059D0004095509521953F4F4F4F5F4F6F4F7F4FF1
:1059E0008F4F9F4F08952F923F924F925F926F92E9
:1059F0007F928F929F92AF92BF92CF92DF92EF925F
:105A0000FF920F931F93CF93DF93CDB7DEB7CA1BDF
:105A1000DB0BCDBFDEBF09942A88398848885F84B4
:105A20006E847D848C849B84AA84B984C884DF803E
:105A3000EE80FD800C811B81AA81B981CE0FD11D22
:105A4000CDBFDEBFED0108950F93083090F0982F81
:105A5000872F762F652F542F432F322F2227085060
:105A6000F4CF220F331F441F551F661F771F881F57
:105A7000991F0A95B2F70F91089597FB10F81694A5
:105A800000080F93083098F00850232F342F452F2B
:105A9000562F672F782F892F902DF4CF0594979547
:105AA00087957795679557954795379527950A95E3
:105AB000AAF70F9108952A0D3B1D4C1D5D1D6E1D0B
:105AC0007F1D801F911F08952A193B094C095D090C
:105AD0006E097F09800B910B08950024A7FD0094A7
