:1000000033C200004EC200004CC200004AC20000D1
:1000100048C2000046C2000044C2000042C20000C4
:1000200040C200003EC200003CC200003AC20000D4
:1000300038C2000036C200000C9433090C945C09ED
:100040000C9485090C94AE090C94D7090C94000A01
:100050000C94290A0C94520A0C947B0A0C94A40A5E
:1000600020C200001EC200001CC200001AC2000014
:1000700018C2000016C2000014C2000012C2000024
:1000800010C200000EC200000CC200000AC2000034
:1000900008C2000006C2000004C2000002C2000044
:1000A00000C20000FEC10000FCC10000FAC1000057
:1000B000F8C10000F6C10000F4C100000C94670C08
:1000C0000C94900C0C94B90C0C94E20C0C940B0D49
:1000D0000C94340DE6C10000E4C10000E2C1000050
:1000E000E0C10000DEC10000DCC10000DAC1000098
:1000F000D8C10000D6C10000D4C10000D2C10000A8
:10010000D0C10000CEC10000CCC10000CAC10000B7
:10011000C8C10000C6C10000C4C10000C2C10000C7
:10012000C0C10000BEC10000BCC10000BAC10000D7
:10013000B8C100000C94CD0A0C94F60A0C941F0B65
:100140000C94480B0C94710B0C949A0B0C94C30BED
:100150000C94EC0B0C94150C0C943E0CA2C10000FA
:10016000A0C100009EC100009CC100009AC1000017
:1001700098C1000096C1000094C1000092C1000027
:1001800090C100008EC100008CC100008AC1000037
:1001900088C1000086C1000084C1000082C1000047
:1001A00080C100007EC100007CC100007AC1000057
:1001B00078C1000076C1000074C1000072C1000067
:1001C00070C100006EC100006CC100006AC1000077
:1001D00068C1000066C1000064C1000062C1000087
:1001E00060C100005EC100005CC100005AC1000097
:1001F00058C100000C943B120C94E61223204D6F62
:1002000064756C6520506F776572204F6E210D0A02
:100210000023204D6F64756C6520506F77657220E8
:100220004F6666210D0A00232053657269616C3A9E
:10023000202530327825303278253032782530321A
:1002400078253032782530327825303278253032B2
:10025000782530327825303278253032780D0A0012
:10026000232056657273696F6E3A2025642E2564CB
:100270000D0A002320466C6F74696C6C61207265F6
:1002800061647920746F20736574207361696C2ECA
:100290002E0D0A002320446F636B3A2025730D0A4C
:1002A000002320557365723A2025730D0A006420DF
:1002B00025642F25730D0A00632025642F25730DF7
:1002C0000A00752025642F25732025752C25752C93
:1002D00025752C25750D0A00752025642F257320A2
:1002E00025640D0A00752025642F25732025642CB4
:1002F00025642C25640D0A00752025642F257320A4
:1003000025642C25642C256C750D0A007520256448
:100310002F25732025642C25642C25642C25642C22
:1003200025642C25640D0A00752025642F25732073
:1003300025750D0A00752025642F25732025752C41
:1003400025752C25752C25750D0A00752025642F23
:10035000257320256C642C256C750D0A007661636D
:10036000616E740D0A0025732028307825303278AC
:10037000290D0A00232020202564202D2000232081
:10038000204368616E6E656C733A0D0A002320206D
:10039000204D61696E206C6F6F70206379636C65AE
:1003A0007320706572207365636F6E6420286670B9
:1003B00073293A2025640D0A00232020204D61690D
:1003C0006E206C6F6F70206475726174696F6E3A25
:1003D0002025646D73202825647573290D0A002378
:1003E00020204C6F61643A0D0A00232020205352D4
:1003F000414D20667265653A2025642062797465F6
:10040000730D0A002320205265736F757263657344
:100410003A0D0A002320446562756720696E666F95
:10042000726D6174696F6E3A0D0A00232052656324
:100430006F76657265642066726F6D206F76657287
:100440002D63757272656E740D0A0023204F7665F8
:10045000722D63757272656E742064657465637461
:1004600065642E2E2E0D0A0011241FBECFEFCDBFC6
:10047000DFE2DEBF13E2A0E0B0E2E4EDFDE502C0A2
:1004800005900D92A830B107D9F72AE2A8E0B3E2AF
:1004900001C01D92A736B207E1F70E946D270C94A8
:1004A000E82EAECDEF92FF920F931F93CF93DF9381
:1004B000809109238F5F8093092340910A2350E0A4
:1004C000A0E0B0E2ED0180E090E020E067E070E0C5
:1004D00001E010E0FA01082E02C0F595E7950A94B4
:1004E000E2F7E0FF06C0E881F0E0E856FE4D30811B
:1004F00001C030E0E0910923E31718F03881373963
:1005000050F0FB01E81BF90B780102C0EE0CFF1C58
:10051000EA95E2F72E290196219688309105D1F6C9
:1005200020930406E091082380910923E695EF7358
:10053000F0E0E85AFE4DE081E695F0E0E856FE4D29
:10054000968D891720F481E08093850603C081E0B1
:100550008093860680910923873320F482E080937C
:10056000850603C082E08093860680910923873345
:1005700020F484E08093850603C084E0809386069F
:1005800080910923811112C096E48C918A3418F06D
:1005900083508C9301C09C93119680E2A830B807D9
:1005A000A1F7809108238F5F80930823DF91CF917B
:1005B0001F910F91FF90EF9008958091202481501A
:1005C00080932024089580E0089580E008956EE2ED
:1005D00074E280E00C94422880911F248150809323
:1005E0001F2480911F240E94452810921E240895E4
:1005F0001092202410922C2410922D2481EA8093B2
:10060000222480E280932324109224241092252413
:10061000109226241092272482E090E080932824D0
:100620009093292410922A2410922B2480E092EC9B
:10063000A1E0B0E080932E2490932F24A093302447
:10064000B0933124109232241092332488E08093A6
:1006500034246EE274E280E00E94422880E00E942E
:100660004328882329F0909120249F5F9093202491
:100670000895FF920F931F93CF93DF9380910E23E2
:1006800081118BC00E94D410C0910F23D0911023F0
:100690008823A9F00E94E110C817D90709F47DC08A
:1006A000DFB7F894C0911123EC2FF0E0EE0FFF1F9D
:1006B000EE5EFC4D80819181892B29F503C00E945B
:1006C000DC10EACF80910B2390910C23019680934C
:1006D0000B2390930C230E94D410811109C08091A8
:1006E0000B2390910C238436910510F4DFBF55C085
:1006F0000E94D410882339F080910B2390910C2311
:100700008032934098F310920B2310920C23809127
:100710000D23811106C081E0C11180E08093112377
:1007200004C081E0C11180E0C82F81E080930E23D6
:10073000DFBFD0E08E01000F111FF801EE5EFC4D0F
:10074000FF24F394808191818034910531F4F12C60
:1007500010920F23109210230DC00E94D4108823F2
:1007600019F00E94E11002C00E94DC1080930F2358
:1007700090931023F801EE5EFC4D20813181AE0193
:1007800086E0440F551F8A95E1F74A5E5C4D04ED03
:1007900013E06F2D81E80E946511DF91CF911F91C9
:1007A0000F91FF90089565CF811114C020911123FE
:1007B00081E090E0222311F080E090E0880F991F03
:1007C000FC01EE5EFC4D1082118210920D231092FE
:1007D0000E234FCF089590913C27892F807697FF65
:1007E0000EC08032F1F580913D278132D1F58091A4
:1007F0004227909143278730910599F526C0803292
:1008000081F580913D27803299F0823251F56091D7
:100810003E27617080E00E94462860913E277091DB
:100820003F2776956795617080E00E94472817C042
:1008300080914227909143278730910591F427EECC
:1008400032E020934827309349272EE234E2209368
:10085000442730934527809346279093472781E08C
:10086000089580E008952FB7F89440919723509110
:100870009823E0919923F0E0EE0FFF1FE656FC4D20
:1008800080819181841B950B2FBF0895ECDF21E0BF
:10089000892B09F420E0822F08950F931F93CF93A3
:1008A000DF938FB7F894209199239091962391111B
:1008B00010C06091972370919823C22FD0E0FE0161
:1008C000EE0FFF1FE656FC4D4081518164177507FE
:1008D00018F48FBF80E024C01092972310929823C1
:1008E00091E0211190E09093992391E090939623C9
:1008F0008FBF80E0CBDF882319F080E00E94DE28E4
:10090000AE0186E0440F551F8A95E1F742565C4DD3
:1009100005EC14E020E430E061E082E00E94651123
:10092000DF91CF911F910F91089510921F24109283
:100930000E2310920D231092112310921223109265
:100940001323109214231092152310920F23109248
:1009500010238FDE109296231092992310929A23DF
:1009600010929B23109297231092982396DF88234E
:1009700059F090911F249F5F90931F2490911F2402
:10098000913011F490931E2408950F931F938111B9
:1009900026C08091992321E0811120E030E061158B
:1009A000710589F4842F96E0220F331F9A95E1F7A1
:1009B000A90142565C4D05EC14E020E430E061E012
:1009C0000E9465110CC0220F331FF901E656FC4D41
:1009D00060837183109296231F910F915ECF1F91B8
:1009E0000F91089580E052CF1F93CF93DF9311E0D2
:1009F00080913424893009F010E0C0E0D0E09FB746
:100A0000F8942091972330919823809199239FBF48
:100A100090E0FC01EE0FFF1FE656FC4D4081518136
:100A20002417350730F080911E248111E8CF90E023
:100A30001AC0FC0196E0EE0FFF1F9A95E1F7E20F56
:100A4000F31FE256FC4D8081C82B2F5F3F4F209350
:100A500097233093982321DF112321F0DC2FCC271B
:100A600010E0CDCFCE01DF91CF911F91089580E0AE
:100A7000BBCF4FB7F89490911123E92FF0E0EE0F20
:100A8000FF1FEE5EFC4D208131812034310589F459
:100A900080910E2381110DC080910D23811109C019
:100AA00081E080930D23911180E08093112320E059
:100AB00030E04FBF80E490E0821B930B0895D9DFB4
:100AC00021E0892B09F420E0822F089580E0F7CF00
:100AD0001F93CF93DF9300D0CDB7DEB711E08091A5
:100AE0003424893009F010E080E069837A83E7DFFD
:100AF00069817A81811107C080911E248111F4CF10
:100B000080E090E026C02FB7F894E0911123F0E048
:100B1000DF01AA0FBB1FAE5EBC4D8D919C9111975A
:100B2000AC014F5F5F4F4D935C9336E0EE0FFF1FBC
:100B30003A95E1F78E0F9F1FFC01EA5EFC4D608342
:100B40002FBF112321F0672F770F770BCCCF81E0D8
:100B500090E00F900F90DF91CF911F910895BC010D
:100B600080E0B6CF80913E278F770C94D61090917D
:100B70003D24911102C080E00895E0913B24F09162
:100B80003C240190F081E02D94818917A0F7E09337
:100B90003924F0933A24228133812E0F3F1FE2172C
:100BA000F30798F49181943061F49281891309C01C
:100BB0009381691306C0E0933924F0933A2481E0CD
:100BC00008959081E90FF11DEACFE0933924F09365
:100BD0003A24D1CFE0913B24F0913C240190F08164
:100BE000E02D228133812E0F3F1FFC014081E40F55
:100BF000F11DE217F30748F48181843031F085302C
:100C000039F08081E80FF11DF4CF80E090E0089585
:100C1000CF0108951F93CF93DF93182FA8DF882368
:100C200041F1C0913924D0913A24CE01D3DFEC01B7
:100C3000892B49F04C815D816B818A810E94EB1088
:100C40008111F3CF16C0E0913B24F0913C249281B6
:100C50008381E92FF82FE10FF11DE10FF11D0190C4
:100C6000F081E02D0190F081E02DDF91CF911F9177
:100C7000099480E0DF91CF911F910895EF92FF9248
:100C80001F93CF93DF93C82F60E071DF811102C003
:100C900010E02DC0E0913B24F0913C2492818381AF
:100CA000E92FF82FEC0FF11DEC0FF11DE080F18022
:100CB000D7011696ED91FC9117970995682F8C2F07
:100CC00056DF182F882321F3C0913924D0913A247C
:100CD000CE0180DFEC01892B21F08A810E94221253
:100CE000F7CFD7011296ED91FC9113970995812FBB
:100CF000DF91CF911F91FF90EF9008950C946010B9
:100D0000CF9380913D24811108C010923D24109210
:100D10003E2410923F24CF910895C0E0E0913B24FF
:100D2000F0913C240190F081E02D8481C81768F790
:100D30008C2FA4DFCF5FF2CFCF9380913D24882307
:100D4000F1F0C0E0E0913B24F0913C24A081B1811E
:100D500014968C91C81798F492818381E92FF82F0B
:100D6000EC0FF11DEC0FF11D0190F081E02D0084DE
:100D7000F185E02D309709F00995CF5FE3CFCF9152
:100D80000895EF92FF920F931F93CF93DF931F92DB
:100D9000CDB7DEB71092462710924727109248270A
:100DA0001092492710924A2710924B2780913C2796
:100DB00087FF07C02091422730914327232B09F456
:100DC00049C2982F907609F0D4C187FF01C12091C4
:100DD0004227309143272115310509F4CAC18F718B
:100DE00009F0A2C080913D27863071F0883009F467
:100DF00090C08111BEC12230310509F0BAC162E054
:100E000070E08EE394E28DC080913E2790913F2761
:100E1000292F332722303105A1F064F42130310528
:100E200009F0A7C18091F4209091F520DC016C912C
:100E300070E05CC02330310591F12F30310511F1A4
:100E400098C1E091F420F091F5202189821708F0F3
:100E500090C19927880F991F880F991FE091F6205C
:100E6000F091F720E80FF91F80819181FC016281E8
:100E700073810E94E410E0914427F091452782E0BD
:100E8000818336C08091F8209091F920009709F471
:100E900070C1DC0112966D917C91139727C0992740
:100EA0008130910569F038F0029709F062C16DE078
:100EB00088E390E208C064E070E084E590E216C048
:100EC0006CE086E490E2282FAEE1B0E2FC01819173
:100ED00090E08D939D938E2F821B8617C0F3660F33
:100EE0006E5F60931C2070E08CE190E20E94E41041
:100EF00080914227909143272091462730914727A0
:100F00008217930708F0A4C1809346279093472740
:100F10009FC12130310509F02CC161E070E08DE303
:100F200094E20E94E41094C18130C9F580913D277C
:100F30008A3009F01EC12130310509F01AC18091B3
:100F40003D24882309F415C1E0904027F090412703
:100F500000913B2410913C24D801ED91FC918481B7
:100F6000E81608F006C160E08E2D01DE882309F442
:100F700000C1FF24EE0CFF1CF801828193818E0DCD
:100F80009F1DDC01ED91FC910680F781E02D099514
:100F90008093382461E070E088E394E2C2CF82302D
:100FA00009F0E7C080913D278111E3C0223031056F
:100FB00009F0DFC0809140270E94451190E08093A6
:100FC00036249093372462E070E086E394E2A9CF60
:100FD0008F7109F07EC080913D27833009F4C9C02C
:100FE00018F48130A1F0C5C0853019F0893039F18D
:100FF000C0C08091422790914327892B09F0B9C046
:1010000082EB95E0809348279093492721C18091F6
:10101000422790914327892B09F0ABC080913E274E
:1010200090913F27019709F0A4C080913E249091B0
:101030003F248D7F80933E2490933F2409C180916B
:10104000422790914327892B09F093C00E94D91021
:10105000882309F48EC020913E2730913F27332703
:10106000E091F420F091F520818990E082179307B8
:1010700008F47FC045DE80913E2790913F27809302
:101080003D24882309F4E4C099278150904C880FAF
:10109000991F880F991F2091F6203091F720820F19
:1010A000931F80933B2490933C2410E0E0913B24D9
:1010B000F0913C240190F081E02D8481181708F014
:1010C000C7C060E0812FA6DD882309F452C01F5FEE
:1010D000EDCF8130F1F480913D278B3009F049C08C
:1010E0008091422790914327892B09F042C080913B
:1010F0003D24882309F43DC01091402760913E278C
:10110000812F6983BBDD6981882399F1812F82DD7D
:101110002EC0823071F580913D27813019F08330E7
:1011200091F027C08091422790914327892B09F5A0
:1011300080913E2790913F27892BD9F480914027B9
:101140000E944C1114C08091422790914327892B13
:1011500081F480913E2790913F27892B51F4809113
:1011600040270E94F211809140270E942B1281118A
:101170006FC080913C278F718130B9F580913D24FB
:10118000882399F1E0904027F090412700913B247B
:1011900010913C24D801ED91FC918481E81628F54A
:1011A00060E08E2DE4DC882301F1F701FF27EE0FCC
:1011B000FF1FD80112968D919C911397E80FF91F8C
:1011C00000811181D8011696ED91FC911797099530
:1011D000682F8E2DCCDC882341F0D8011496ED9138
:1011E000FC9115970995811133C080913C278F712F
:1011F000823081F580913D24882361F1F12CE091CA
:101200003B24F0913C24A081B18114968C91F81676
:1012100008F592818381E92FF82FEF0DF11DEF0D75
:10122000F11D00811181D8011696ED91FC9117975F
:101230000995682F8F2D9BDC882361F0D8011496C7
:10124000ED91FC9115970995811102C0F394D7CFC8
:1012500081E001C080E00F90DF91CF911F910F914D
:10126000FF90EF9008951F920F920FB60F921124E6
:101270002F933F934F935F936F937F938F939F939E
:10128000AF93BF93EF93FF93E0917224F091732497
:10129000309709F00995FF91EF91BF91AF919F9120
:1012A0008F917F916F915F914F913F912F910F900F
:1012B0000FBE0F901F9018951F920F920FB60F92AE
:1012C00011242F933F934F935F936F937F938F934B
:1012D0009F93AF93BF93EF93FF93E0917024F091AE
:1012E0007124309709F00995FF91EF91BF91AF916B
:1012F0009F918F917F916F915F914F913F912F912E
:101300000F900FBE0F901F9018951F920F920FB65F
:101310000F9211242F933F934F935F936F937F937B
:101320008F939F93AF93BF93EF93FF93E0916E24BE
:10133000F0916F24309709F00995FF91EF91BF91DB
:10134000AF919F918F917F916F915F914F913F915D
:101350002F910F900FBE0F901F9018951F920F9214
:101360000FB60F9211242F933F934F935F936F9378
:101370007F938F939F93AF93BF93EF93FF93E091EE
:101380006C24F0916D24309709F00995FF91EF914D
:10139000BF91AF919F918F917F916F915F914F918D
:1013A0003F912F910F900FBE0F901F9018951F9295
:1013B0000F920FB60F9211242F933F934F935F9389
:1013C0006F937F938F939F93AF93BF93EF93FF930D
:1013D000E0916A24F0916B24309709F00995FF9110
:1013E000EF91BF91AF919F918F917F916F915F919D
:1013F0004F913F912F910F900FBE0F901F90189516
:101400001F920F920FB60F9211242F933F934F9379
:101410005F936F937F938F939F93AF93BF93EF935C
:10142000FF93E0916824F0916924309709F00995C1
:10143000FF91EF91BF91AF919F918F917F916F91AC
:101440005F914F913F912F910F900FBE0F901F9082
:1014500018951F920F920FB60F9211242F933F935E
:101460004F935F936F937F938F939F93AF93BF93AC
:10147000EF93FF93E0916624F0916724309709F091
:101480000995FF91EF91BF91AF919F918F917F91BE
:101490006F915F914F913F912F910F900FBE0F90E1
:1014A0001F9018951F920F920FB60F9211242F9331
:1014B0003F934F935F936F937F938F939F93AF93DC
:1014C000BF93EF93FF93E0916424F09165243097EC
:1014D00009F00995FF91EF91BF91AF919F918F9185
:1014E0007F916F915F914F913F912F910F900FBE20
:1014F0000F901F9018951F920F920FB60F92112404
:101500002F933F934F935F936F937F938F939F930B
:10151000AF93BF93EF93FF93E0916224F091632424
:10152000309709F00995FF91EF91BF91AF919F918D
:101530008F917F916F915F914F913F912F910F907C
:101540000FBE0F901F9018951F920F920FB60F921B
:1015500011242F933F934F935F936F937F938F93B8
:101560009F93AF93BF93EF93FF93E0916024F0912B
:101570006124309709F00995FF91EF91BF91AF91E8
:101580009F918F917F916F915F914F913F912F919B
:101590000F900FBE0F901F9018951F920F920FB6CD
:1015A0000F9211242F933F934F935F936F937F93E9
:1015B0008F939F93AF93BF93EF93FF93E0915E243C
:1015C000F0915F24309709F00995FF91EF91BF9159
:1015D000AF919F918F917F916F915F914F913F91CB
:1015E0002F910F900FBE0F901F9018951F920F9282
:1015F0000FB60F9211242F933F934F935F936F93E6
:101600007F938F939F93AF93BF93EF93FF93E0915B
:101610005C24F0915D24309709F00995FF91EF91DA
:10162000BF91AF919F918F917F916F915F914F91FA
:101630003F912F910F900FBE0F901F9018951F9202
:101640000F920FB60F9211242F933F934F935F93F6
:101650006F937F938F939F93AF93BF93EF93FF937A
:10166000E0915A24F0915B24309709F00995FF919D
:10167000EF91BF91AF919F918F917F916F915F910A
:101680004F913F912F910F900FBE0F901F90189583
:101690001F920F920FB60F9211242F933F934F93E7
:1016A0005F936F937F938F939F93AF93BF93EF93CA
:1016B000FF93E0915824F0915924309709F009954F
:1016C000FF91EF91BF91AF919F918F917F916F911A
:1016D0005F914F913F912F910F900FBE0F901F90F0
:1016E00018951F920F920FB60F9211242F933F93CC
:1016F0004F935F936F937F938F939F93AF93BF931A
:10170000EF93FF93E0915624F0915724309709F01E
:101710000995FF91EF91BF91AF919F918F917F912B
:101720006F915F914F913F912F910F900FBE0F904E
:101730001F9018951F920F920FB60F9211242F939E
:101740003F934F935F936F937F938F939F93AF9349
:10175000BF93EF93FF93E0915424F0915524309779
:1017600009F00995FF91EF91BF91AF919F918F91F2
:101770007F916F915F914F913F912F910F900FBE8D
:101780000F901F9018951F920F920FB60F92112471
:101790002F933F934F935F936F937F938F939F9379
:1017A000AF93BF93EF93FF93E0915224F0915324B2
:1017B000309709F00995FF91EF91BF91AF919F91FB
:1017C0008F917F916F915F914F913F912F910F90EA
:1017D0000FBE0F901F9018951F920F920FB60F9289
:1017E00011242F933F934F935F936F937F938F9326
:1017F0009F93AF93BF93EF93FF93E0915024F091A9
:101800005124309709F00995FF91EF91BF91AF9165
:101810009F918F917F916F915F914F913F912F9108
:101820000F900FBE0F901F9018951F920F920FB63A
:101830000F9211242F933F934F935F936F937F9356
:101840008F939F93AF93BF93EF93FF93E0914E24B9
:10185000F0914F24309709F00995FF91EF91BF91D6
:10186000AF919F918F917F916F915F914F913F9138
:101870002F910F900FBE0F901F9018951F920F92EF
:101880000FB60F9211242F933F934F935F936F9353
:101890007F938F939F93AF93BF93EF93FF93E091C9
:1018A0004C24F0914D24309709F00995FF91EF9168
:1018B000BF91AF919F918F917F916F915F914F9168
:1018C0003F912F910F900FBE0F901F9018951F9270
:1018D0000F920FB60F9211242F933F934F935F9364
:1018E0006F937F938F939F93AF93BF93EF93FF93E8
:1018F000E0914A24F0914B24309709F00995FF912B
:10190000EF91BF91AF919F918F917F916F915F9177
:101910004F913F912F910F900FBE0F901F901895F0
:101920001F920F920FB60F9211242F933F934F9354
:101930005F936F937F938F939F93AF93BF93EF9337
:10194000FF93E0914824F0914924309709F00995DC
:10195000FF91EF91BF91AF919F918F917F916F9187
:101960005F914F913F912F910F900FBE0F901F905D
:1019700018951F920F920FB60F9211242F933F9339
:101980004F935F936F937F938F939F93AF93BF9387
:10199000EF93FF93E0914624F0914724309709F0AC
:1019A0000995FF91EF91BF91AF919F918F917F9199
:1019B0006F915F914F913F912F910F900FBE0F90BC
:1019C0001F9018951F920F920FB60F9211242F930C
:1019D0003F934F935F936F937F938F939F93AF93B7
:1019E000BF93EF93FF93E0914424F0914524309707
:1019F00009F00995FF91EF91BF91AF919F918F9160
:101A00007F916F915F914F913F912F910F900FBEFA
:101A10000F901F9018951F920F920FB60F921124DE
:101A20002F933F934F935F936F937F938F939F93E6
:101A3000AF93BF93EF93FF93E0914224F09143243F
:101A4000309709F00995FF91EF91BF91AF919F9168
:101A50008F917F916F915F914F913F912F910F9057
:101A60000FBE0F901F9018951F920F920FB60F92F6
:101A700011242F933F934F935F936F937F938F9393
:101A80009F93AF93BF93EF93FF93E0914024F09126
:101A90004124309709F00995FF91EF91BF91AF91E3
:101AA0009F918F917F916F915F914F913F912F9176
:101AB0000F900FBE0F901F901895CF93CFB7F8944B
:101AC000811528E0920711F461E005C0803428E018
:101AD000920739F462E083E00E94F02664E083E03C
:101AE0001AC0811529E0920711F461E005C0803425
:101AF00029E0920739F462E084E00E94F02664E075
:101B000084E009C081159A4081F461E085E00E947B
:101B1000F02664E085E00E94F0269FB7F89480915B
:101B20005E2A8F5F80935E2A9FBFCFBFCF910895BB
:101B3000811528E0920729F460937224709373242E
:101B40000895803428E0920729F460936624709306
:101B500067240895811529E0920729F460935E2493
:101B600070935F240895803429E0920729F46093EC
:101B7000522470935324089581159A4021F4609360
:101B80004A2470934B240895282F2F70082E000CA0
:101B9000990B392F331F3327331F832F90E0820F88
:101BA000911D820F911D23E0880F991F2A95E1F75F
:101BB00084599A4D08950F93E8ECF4E080818F7D6D
:101BC000808380818F7D8083E4E7F5E202E00593E6
:101BD000109276251092772500E2069300E4069392
:101BE000ECE6F5E200E2069300E40693ECE3F7E2AC
:101BF00014861586168617861286138610925D2522
:101C00000F9108950F9385E080935D25E5E7F5E258
:101C100004E00593EDE6F5E204E005930F910895E5
:101C20000F9383E080935D2510927625109277259F
:101C3000E4E7F5E202E006930F910895E09148276A
:101C4000F0914927309709F009940895282F2F70B3
:101C5000082E000C990B392F331F3327331F832F86
:101C600090E0820F911D820F911D029749E0489FDD
:101C70009001499F300D1124C9018B509B4D08954F
:101C80009091A025811108C0992381F02FB7F89475
:101C900090915E2A915007C0911108C02FB7F89417
:101CA00090915E2A9F5F90935E2A2FBF8093A0251C
:101CB00008958F929F92AF92BF92DF92EF92FF9220
:101CC0000F931F93CF93DF93D82EC0DFEC018D2DA0
:101CD0005BDF7C01DC011196EC91E770E150E730AD
:101CE00040F4F0E0EE0FFF1FE856FD4D008111813A
:101CF00002C008E010E0ED81FE812B813C8148812B
:101D0000D701D7FE4AC016968D919C9117978E0FDA
:101D10009F1F8D839E838217930771F1281B390BB8
:101D20002115B4E03B0740F02FEF33E0C901B801C3
:101D30000E94E529281B390B41FF0BC0C901B801DE
:101D40000E94E529AC0191E0452B09F090E0892F34
:101D500001C080E0988180FB91F99883F701168299
:101D600017822283338329813A818D819E81820F5C
:101D7000931F848395830EC041FF74C04D7F4883B9
:101D8000D70116961D921C92179712961D921C92BF
:101D90001397F70102E006937EC01296AD90BC90B7
:101DA000139742FF12C089809A80C901B8010E942E
:101DB000E529B0E4DB9EB00111246B5C7B4DAC01E6
:101DC000C4018E0F9F1F0E94C12B8D819E818A0DA1
:101DD0009B1D8D839E832B813C812817390710F42E
:101DE0002D833E83F70186819781A816B906D1F528
:101DF0008D819E8182179307A9F1281B390B21152C
:101E0000F4E03F0710F02FEF33E0C901B8010E9462
:101E1000E529281B390BD70112961D921C921397A6
:101E20002017310778F4888184608883B0E4DB9ED2
:101E3000C00111248B5C9B4DF7018483958306833D
:101E40001783A7CF49815A818D819E81840F951F69
:101E5000D70114968D939C93159716962D933C93CA
:101E6000179797CF888180FF16C08E7F8883EF8178
:101E7000F885309781F06D817E814D2D80E0DF9176
:101E8000CF911F910F91FF90EF90DF90BF90AF9097
:101E90009F908F900994DF91CF911F910F91FF90A8
:101EA000EF90DF90BF90AF909F908F9008950F9329
:101EB000CF93DF9380915D25833029F4BFDEDF91DE
:101EC000CF910F9178CE2091592530915A25C0910C
:101ED0004627D0914727C21BD30B61F580915B2524
:101EE00090915C25820F931F80935B2590935C25D6
:101EF00020914227309143272817390721F08091FC
:101F00007424882331F084E080935D25ECE6F5E2CB
:101F100036C0E0914A27F0914B27309799F0099508
:101F2000882381F01092592510925A25C091462796
:101F3000D0914727C034D10528F010927424C0E412
:101F4000D0E003C081E080937424C0937625D093C1
:101F500077258091592590915A25209144273091D9
:101F60004527280F391F2093782530937925C80FEE
:101F7000D91FC0935925D0935A25E4E7F5E202E032
:101F80000693DF91CF910F9108950F93CF93DF9335
:101F90001F92CDB7DEB78091CC0480FF66C021E0F0
:101FA0002093CC048CE695E2FC0100E80693E4E77C
:101FB000F5E200E806932093CA04FC0100E10693D1
:101FC00080915D25882329F08350823008F436DE25
:101FD000F2DD80916E2590916F25089709F047C03A
:101FE00088E0E9E1F5E2ACE3B7E201900D928A9571
:101FF000E1F78091C80480628093C8048091C8048E
:1020000080628093C8040E94C106811102C0FADD7B
:102010002EC090913C2797FF0EC010925B25109226
:102020005C251092592510925A2592E090935D25D7
:1020300089833DDF08C02091422730914327232B1D
:1020400021F48983EDDD898113C010925B25109204
:102050005C251092592510925A2591E090935D25A8
:10206000ECE6F5E202E0069303C080E001C081E007
:102070000F90DF91CF910F910895CF93CFB7F89440
:1020800081E0FEDDEAECF4E080E4808380E280839E
:10209000E1ECF4E0808181608083A9ECB4E08C9174
:1020A00082608C93E8ECF4E08081806480838C9182
:1020B00081608C93808180688083CFBFCF910895A9
:1020C000CF931092600080E30E94FC268091C004B0
:1020D00080648093C00481E080936000CFB7F8945F
:1020E00010926D251092752510927D2510928525F0
:1020F00010928D25109295258091F5248E7F8093E6
:10210000F5248091FE248E7F8093FE248091072504
:102110008E7F80930725809110258E7F80931025D8
:102120006AE170E082E00E9447278F3F09F48FE167
:102130008093FA046BE170E082E00E9447278F3FB2
:1021400009F48FE18093FB048091C0048260809346
:10215000C0048091C00480688093C0048091C00452
:1021600080618093C0048CE695E28093C6049093CE
:10217000C7048091C00480628093C0048FEF809375
:10218000C5048091C80481608093C8041092A02582
:102190009FB7F8948091622A8F5F8093622A9FBFD5
:1021A0006CDFCFBFCF91089580E008958093C30482
:1021B00008958091C304089580919C2590919D2558
:1021C000089580E090E00895ECE3F7E2808791873E
:1021D0006287738708950F931F93CF93DF931F92A6
:1021E000CDB7DEB78A016983CFDCFC018181807CB9
:1021F0006981811141C06370613019F020F090E86D
:1022000003C090EC01C090E400381105E9F058F4E7
:1022100000321105A9F000341105A1F000311105BB
:10222000C9F481E018C0011582E0180779F00F3F6A
:1022300083E0180769F00115114061F485E00BC0D7
:1022400082E009C083E007C084E005C086E003C0E7
:1022500087E001C080E0118226E02083892B818302
:102260008181807C803C21F481818770873031F0CE
:1022700081818062818302C080E001C081E00F9093
:10228000DF91CF911F910F9108957EDCFC01818138
:1022900082FB882780F90895CF93C82F75DCFC0155
:1022A000818182FF0FC091819B7F91838C2FCEDC37
:1022B000FC01908190FF06C09E7F90830780F0858F
:1022C000E02D099581E0CF9108958F929F92AF9272
:1022D000BF92DF92EF92FF920F931F93CF93DF9302
:1022E0001F92CDB7DEB7D82E5A0179016983AEDCD3
:1022F0004C018D2D49DC9C01DC0111968C911197CC
:10230000807C6981882309F45FC011968C911197B4
:10231000807C803C21F011968C9182FD55C09FB746
:10232000F894F401808180FF02C09FBF4DC081609E
:1023300080839FBFF401A182B282E382F48215827E
:1023400016820783108791E0611104C0E114F10443
:1023500009F090E0D4018C9190FB81F98B7F8C93F4
:10236000D7FE04C0F901168217822AC0D90111963E
:102370008C911197807C803CD1F41196EC91E770A0
:10238000E150E73040F4F0E0EE0FFF1FE856FD4D5E
:102390006081718102C068E070E0C7010E94E52998
:1023A000892B29F0F40180818E7F80830DC0D901B3
:1023B00012961D921C92139716961D921C921797B7
:1023C0008D2D77DC81E001C080E00F90DF91CF910F
:1023D0001F910F91FF90EF90DF90BF90AF909F9073
:1023E0008F900895EF92FF920F93CF93C82FCCDB7D
:1023F0007C018C2F2BDCDC01F70102E005939C9122
:1024000090FF1BC09E7F9C931796ED91FC911897AF
:10241000309799F0D701C7FF05C016966D917C9152
:10242000179704C012966D917C9113974C2F81E001
:10243000CF910F91FF90EF900994CF910F91FF9062
:10244000EF900895CF93C82FCDDF8C2F9DDBFC013B
:102450001182CF9108950F93CF93C82F95DBFC0184
:1024600091819460918301E006938C2FBBDF81E022
:10247000CF910F9108951F920F920FB60F921124D2
:102480000F932F933F934F935F936F937F938F930C
:102490009F93AF93BF93EF93FF938091CB0487FFFC
:1024A00006C080E88093CA040E949C067DC080918B
:1024B000CB0482FF18C084E08093CA048091742505
:1024C00086FF72C08091CC0481FD6EC05EDD8111FB
:1024D0006BC080915D25813011F4A2DB65C0843032
:1024E00009F062C021C08091CB0481FF26C082E048
:1024F0008093CA0480916C2586FF56C08091CC04DD
:1025000081FD52C042DD81114FC080915D25823036
:1025100041F484E080935D25ECE6F5E202E0069369
:1025200043C0833009F040C0E5E7F5E204E00593DD
:10253000EDE6F5E204E0059337C08091CB0484FF1B
:1025400021C080E18093CA0481E04CDF81E84ADF4A
:102550000E9480061092C30410926D2596E090931D
:102560006C2583E480936D251092752590937425D6
:102570008093752589E195E280937025909371256C
:102580001ADB12C08091CB0486FF05C080E48093E3
:10259000CA0480E008C08091CB0485FF05C080E2BA
:1025A0008093CA0481E06CDBFF91EF91BF91AF9102
:1025B0009F918F917F916F915F914F913F912F915B
:1025C0000F910F900FBE0F901F9018951F920F92B2
:1025D0000FB60F9211240F931F932F933F934F9396
:1025E0005F936F937F938F939F93AF93BF93CF939B
:1025F000DF93EF93FF938091CC0481FF1AC082E0B8
:102600008093CC048091C5048195880FECE6F5E2B7
:10261000E81BF109208131812C56354283E0369543
:1026200027958A95E1F7822F869520FD06C0C0E0A8
:1026300005C0ABDC882319F387C0C0E8C80F8C2F16
:10264000A3DAFC01208125FF7FC000E20693C111BF
:1026500075C080915D25843019F4F0DAACDA74C06D
:1026600000916E2510916F25809146279091472704
:10267000C0915925D0915A259E01200F311F8217F4
:10268000930718F48C010C1B1D0B8091442790912B
:102690004527A80169E175E28C0F9D1F0E94C12B9F
:1026A000C00FD11FC0935925D0935A25003411056E
:1026B00069F480915B2590915C258C0F9D1F209182
:1026C0004227309143278217930788F0C09346270B
:1026D000D0934727E0914A27F0914B27309729F074
:1026E0000995811102C08EDA2FC09ADA2DC080912F
:1026F0004627909147278C179D07D9F4E0914A27E8
:10270000F0914B27309779F30995882361F3209155
:102710005B2530915C258091592590915A25820F37
:10272000931F80935B2590935C25109259251092FE
:102730005A25ECE6F5E202E0069306C0C03811F433
:10274000B6DB02C08C2FB5DAFF91EF91DF91CF910C
:10275000BF91AF919F918F917F916F915F914F91B9
:102760003F912F911F910F910F900FBE0F901F90CF
:1027700018954BE150E060E070E08CE497E20C9437
:102780009D2E4BE150E060E070E08CE497E20E9407
:10279000922E6CE477E286EA92E20E94CA2B892BA1
:1027A00099F066EA72E28CE497E20E94D32B6BEA1E
:1027B00072E28EE597E20E94D32B6BEA72E285E526
:1027C00097E20E94D32BD5CF0895EF920F939EE30B
:1027D000989FF0011124E959F84DDF011D929A9557
:1027E000E9F7608341835283238334830583E68240
:1027F0000F91EF900895FC016623D9F0613089F5BF
:10280000A781B08512968C9112978F9311968C9117
:102810008F9380811F928F9388EB92E09F938F9389
:102820000E949A250F900F900F900F900F900F908D
:102830000895A781B08512968C9112978F93119667
:102840008C918F9380811F928F938EEA92E09F9359
:102850008F930E949A250F900F900F900F900F90DA
:102860000F900895EF920F9383E0E82E02E020E6A8
:1028700036E040E656E068E087E0A7DFEE24E39428
:1028800000E020E636E040E656E067E086E09DDFC7
:1028900097E0E92E06E020E436E040E456E066E00A
:1028A00085E093DF25E0E22E04E020E436E040E41A
:1028B00056E065E084E089DF33E0E32E02E020E4C7
:1028C00036E040E456E064E083E07FDFEE24E3940A
:1028D00000E020E436E040E456E063E082E075DFAB
:1028E00043E0E42E02E020E236E040E256E062E01F
:1028F00081E06BDFEE24E39400E020E236E040E28A
:1029000056E061E080E061DF95D4DC01EC91F0E01D
:10291000EE0FFF1FE95AF64D808391830E94D71D69
:10292000DC01EC91F0E0EE0FFF1FE95AF64D8083D9
:1029300091837DD7DC01EC91F0E0EE0FFF1FE95AA7
:10294000F64D8083918354D6DC01EC91F0E0EE0FDC
:10295000FF1FE95AF64D808391830E947C1EDC01A3
:10296000EC91F0E0EE0FFF1FE95AF64D8083918362
:10297000D5D3DC01EC91F0E0EE0FFF1FE95AF64DE4
:1029800080839183EDD5DC01EC91F0E0EE0FFF1F29
:10299000E95AF64D808391830E94501DDC01EC9131
:1029A000F0E0EE0FFF1FE95AF64D808391830E94FD
:1029B000811FDC01EC91F0E0EE0FFF1FE95AF64DAC
:1029C00080839183F0D6DC01EC91F0E0EE0FFF1FE5
:1029D000E95AF64D808391830E943823DC01EC9103
:1029E000F0E0EE0FFF1FE95AF64D80839183ACD4DF
:1029F000DC01EC91F0E0EE0FFF1FE95AF64D808309
:102A000091830F91EF900895FC01438154812681B9
:102A10006581818192810C9492240F931F93CF93AF
:102A2000DF9307E619E2F801C191D1918F01209758
:102A300029F0EF81F8850995811107C0FAE2073482
:102A40001F0789F780E090E001C0CE01DF91CF91B0
:102A50001F910F910895DF92EF92FF920F931F93B2
:102A6000CF93DF93C7E6D7E200E010E0EE24E394D3
:102A7000F12CDD24DA948F819885892B59F5CE01CC
:102A8000C3DFCBDF8F839887892B21F161E0CE01F3
:102A9000B2DEEF81F8850580F681E02D309711F0E8
:102AA000CE01099520910A23C701002E01C0880F8D
:102AB0000A94EAF7822B80930A23EF81F885018438
:102AC000F285E02D309711F0CE010995F801E05024
:102AD000F04ED0820F5F1F4FEE960830110559F669
:102AE000DF91CF911F910F91FF90EF90DF900895AC
:102AF0004F925F926F927F92AF92BF92CF92DF928E
:102B0000EF92FF920F931F93CF93DF932B013C0122
:102B10000091A125A02EB12C8EE3089F80011124E5
:102B2000E801C959D84DCE016FDFEF80F884E11478
:102B3000F10409F485C0D7011796ED91FC9118971F
:102B40000995811127C0EF81F88582818F9381815A
:102B50008F9388811F928F938EEA92E09F938F9339
:102B60000E949A2581E090E00090A12502C0880F84
:102B7000991F0A94E2F7809590910A238923809304
:102B80000A231F8218860F900F900F900F900F90BE
:102B90000F9056C0D7011B96ED91FC911C97309772
:102BA000B1F06E01BDE3CB0ED11CD6014C91442394
:102BB00071F0B8016458784DCE010995F601108284
:102BC000E091A125F0E0E050F04E8FEF8083D70137
:102BD00019968D919C911A97892B91F18EE38A9D7C
:102BE000F0018B9DF00D1124E959F84D81899289EE
:102BF000A389B489B301A201481B590B6A0B7B0B53
:102C0000D70113968D919C911497A0E0B0E04817DE
:102C100059076A077B07A0F0418A528A638A748A3F
:102C2000D7011996ED91FC911A97CE010995882349
:102C300039F0E091A125F0E0E050F04E8FEF808375
:102C40008091A1258F5F883018F48093A12502C060
:102C50001092A125DF91CF911F910F91FF90EF90DE
:102C6000DF90CF90BF90AF907F906F905F904F902C
:102C700008958EE597E29F938F9381EA92E09F9368
:102C80008F930E949A2585E597E29F938F9384E91D
:102C900092E09F938F930E949A258DB79EB70896D6
:102CA0008DBF9EBF08950F931F93CF93DF93CDB732
:102CB000DEB72D97CDBFDEBF8C879D87FC012081BD
:102CC000253689F407E617E2F80187819085892B7C
:102CD00019F061E0C8018FDD025C1F4FF9E2073592
:102CE0001F0791F7AEC0263709F044C01F9211E0CC
:102CF0001F931F921F9383E792E09F938F930E94ED
:102D00009A251F921F931F921F9380E692E09F9334
:102D10008F930E949A25CE0101960E9420278F81D1
:102D20001F928F938E811F928F938D811F928F930D
:102D30008C811F928F938B811F928F938A811F9218
:102D40008F9389811F928F938B851F928F938A8592
:102D50001F928F9389851F928F9388851F928F93DF
:102D600087E292E09F938F930E949A25CDBFDEBFAA
:102D700080DF67C02E36B1F502968C879D8763EBA6
:102D800072E2CE010C960E94E92BFC018081843610
:102D9000A9F0853729F563EB72E2CE010C960E940B
:102DA000E92B0097E9F048E050E0BC018EE597E29E
:102DB0000E94DA2B10926627DCDC12C063EB72E211
:102DC000CE010C960E94E92B009751F048E050E0AC
:102DD000BC0185E597E20E94DA2B10925D27C9DCE1
:102DE00048DF2FC0203749F502968C879D8763EB1B
:102DF00072E2CE010C960E94E92B0E94A42B811155
:102E00000EC081E192E09F938F930E949A2580915A
:102E100064068061809364060F900F9012C08CEF5F
:102E200091E09F938F930E949A25809164068F7EF4
:102E3000809364060F900F9004C0243611F40E9412
:102E4000C7252D96CDBFDEBFDF91CF911F910F918A
:102E500008952F923F924F925F926F927F928F923E
:102E60009F92AF92BF92CF92DF92EF92FF920F9319
:102E70001F93CF93DF93CDB7DEB76597CDBFDEBF8E
:102E80008A839B8381E0AA81BB8119968C93AE01D2
:102E90004F5F5F4F64E989E20E94FD24888B998B24
:102EA000AE014F5F5F4F66E989E20E94FD242C016D
:102EB000612C712CAE014F5F5F4F68E989E20E947F
:102EC000FD244C01A12CB12CAE014F5F5F4F6AE98C
:102ED00089E20E94FD249C0140E050E02887398768
:102EE0004A875B87382D292D9A2D8B2D84149504C4
:102EF000A604B70420F4342D252D962D872DC32E3E
:102F0000D22EE92EF82E88859985AA85BB85C8160C
:102F1000D906EA06FB0610F46C017D01382D292D37
:102F20009A2D8B2D481459046A047B0420F4342D07
:102F3000252D962D872D3C832D839E838F832C8179
:102F40003D814E815F8188859985AA85BB858217E1
:102F50009307A407B50720F48C839D83AE83BF83BA
:102F6000A30192018C819D81AE81BF81281B390B09
:102F70004A0B5B0BAFEFB0E00E941B2A6C877D878A
:102F80008E879F87A50194018C819D81AE81BF8131
:102F9000281B390B4A0B5B0BAFEFB0E00E941B2ADA
:102FA000A70196010E94F92929013A01288539854E
:102FB0004A855B858C819D81AE81BF81281B390B41
:102FC0004A0B5B0BAFEFB0E00E941B2AA7019601F2
:102FD0000E94F92949015A01AA81BB811C960D91D1
:102FE0001C911D971E962D903C901F976C857D859A
:102FF0008E859F85A70196010E94F929EA81FB81B0
:1030000082859385821B930B97FF03C091958195D1
:1030100091090697ACF40419150917FF03C011951F
:1030200001951109063011055CF42818390837FE9E
:1030300003C0319421943108F6E02F1631047CF15D
:1030400089898F9398899F939F928F925F924F92D5
:103050003F932F93AA81BB811796ED91FC9118970E
:1030600082818F9381818F938C911F928F9382ECB9
:1030700092E09F938F932A8B3B8B4C8B5D8B0E94AE
:103080009A252A893B89EA81FB81228733874486F6
:10309000558686869786CDBFDEBF81E001C080E081
:1030A0006596CDBFDEBFDF91CF911F910F91FF904D
:1030B000EF90DF90CF90BF90AF909F908F907F90D8
:1030C0006F905F904F903F902F900895CF93DF9334
:1030D0001F92CDB7DEB7BE016F5F7F4F89E20E94BE
:1030E0009F240F90DF91CF910895CF93DF931F928C
:1030F000CDB7DEB79E012F5F3F4F43E060E889E226
:103100000E9417259E012F5F3F4F45ED61E889E240
:103110000E9417250F90DF91CF91089588E590E2E6
:103120000895FF920F931F93CF93DF9300D0CDB7F5
:10313000DEB78B01F42E9E012F5F3F4FFB014081D4
:1031400062E085E10E941725F801808180FF16C0AA
:10315000F6E0FF1213C00E5F1F4F93E0F8014081AD
:103160000E5F1F4F9E012F5F3F4F692F85E19A83AE
:103170000E9417259A819F5F983081F70F900F90DA
:10318000DF91CF911F910F91FF900895EF92FF92E1
:103190000F931F93CF93DF931F92CDB7DEB78C01B0
:1031A000AE014F5F5F4F60E085E10E94E1247C014A
:1031B000D80119962D913C911A97281B390B37FF8E
:1031C00003C031952195310925303105DCF0FF929E
:1031D000EF92D8011796ED91FC91189782818F9309
:1031E00081818F938C911F928F9388ED92E09F93B2
:1031F0008F930E949A25F801E186F286CDBFDEBF4B
:1032000081E001C080E00F90DF91CF911F910F917D
:10321000FF90EF900895CF93DF931F92CDB7DEB765
:10322000BE016F5F7F4F85E10E949F240F90DF9169
:10323000CF91089585E690E20895AF92BF92DF9214
:10324000EF92FF920F931F93CF93DF931F92CDB70F
:10325000DEB78C01AE014F5F5F4F60E082E10E94FC
:10326000BA24D82EAE014F5F5F4F61E082E10E9429
:10327000E1247C01AE014F5F5F4F63E082E10E9479
:10328000E1245C018D2D8170D82ED80119968C9186
:1032900019971C962D913C911D971A964D915C9112
:1032A0001B974E195F0957FF03C05195419551096E
:1032B0004330510564F42A193B0937FF03C03195A7
:1032C000219531092330310514F48D1511F1BF9288
:1032D000AF92FF92EF921F92DF92D8011796ED9175
:1032E000FC91189782818F9381818F938C911F928B
:1032F0008F9385EE92E09F938F930E949A25F80119
:10330000D186E286F386A486B586CDBFDEBF81E096
:1033100001C080E00F90DF91CF911F910F91FF903E
:10332000EF90DF90BF90AF900895CF93DF931F92FF
:10333000CDB7DEB7BE016F5F7F4F82E10E949F2451
:103340000F90DF91CF91089582E790E208954F9218
:103350005F926F927F928F929F92AF92BF92CF9225
:10336000DF92EF92FF920F931F93CF93DF931F9201
:10337000CDB7DEB78C01FC011186AE014F5F5F4F08
:1033800064E989E30E94FD24B82EA92EAE014F5FA7
:103390005F4F66E989E30E94FD24982E892EAB2DAC
:1033A000BA2D2AE13AEC47E050E00E941B2A6C015A
:1033B000EE24FF24A92DB82D0E941B2A2C0166247F
:1033C0007724C114D104E104F10471F0C301B20106
:1033D0003AE0660F771F881F991F3A95D1F7A7012A
:1033E00096010E94F92903C020E030E0A901DA012A
:1033F000C9010196A11DB11DB695A7959795879511
:103400008B399105A105B105A0F0843C9105A1057A
:10341000B105A0F0873E9105A105B105A0F0853169
:103420009140A105B105A0F0E0E0F0E0A0E0B0E03F
:1034300013C0E1E7FDE3A8E4B1E20EC0E0E3FBE581
:10344000A7E3BAE209C0E9EBFDE2AFEEB8E104C0E0
:10345000EAE9F9E1AFEDBFE0A70196010E941B2A5E
:103460006B017C0120E8D21AE108F108DF01A30119
:1034700092010E941B2AC61AD70AE80AF90A6701B4
:10348000EE24FF24F801828593859601281B390BD1
:10349000C90137FF03C09195819591090697ECF01A
:1034A000FF92EF92DF92CF928F929F92AF92BF9254
:1034B0008AEC92E29F938F93F80180811F928F9301
:1034C00088EF92E09F938F930E949A25F801C2861D
:1034D000D386E486F586CDBFDEBF80E00F90DF9116
:1034E000CF911F910F91FF90EF90DF90CF90BF9001
:1034F000AF909F908F907F906F905F904F900895C6
:10350000CF93DF931F92CDB7DEB7BE016F5F7F4FC2
:1035100089E30E949F240F90DF91CF910895CF936C
:10352000DF931F92CDB7DEB79E012F5F3F4F43E081
:1035300060E889E30E9417259E012F5F3F4F4DEE03
:1035400061E889E30E9417259E012F5F3F4F40E00D
:1035500067E889E30E9417250F90DF91CF910895C6
:103560008FE790E20895CF92DF92EF92FF921F9340
:10357000CF93DF931F92CDB7DEB76B017B0111E0D4
:10358000F7014081F2E0EF0EF11C9E012F5F3F4FEB
:10359000612F80E60E9417251F5F193089F79E0171
:1035A0002F5F3F4FF601408969E180E60E941725B1
:1035B0009E012F5F3F4F4FEF6CE080E60E94172582
:1035C0000F90DF91CF911F91FF90EF90DF90CF9000
:1035D0000895CF93DF931F92CDB7DEB7BE016F5F23
:1035E0007F4F80E60E949F240F90DF91CF91089536
:1035F0008CE890E208956F927F928F929F92AF92A3
:10360000BF92CF92DF92EF92FF920F931F93CF93CF
:10361000DF931F92CDB7DEB78C01AE014F5F5F4FD6
:1036200068E28DE10E94FD245C01AE014F5F5F4FB7
:103630006AE28DE10E94FD246C01AE014F5F5F4F95
:103640006CE28DE10E94FD247C01AE014F5F5F4F73
:1036500068E08DE10E94FD24982E892EAE014F5F17
:103660005F4F6AE08DE10E94FD24782E692EAE0145
:103670004F5F5F4F6CE08DE10E94FD24D8011B96E7
:103680004D915C911C971D962D913C911E9719961A
:103690006D917C911A976A197B0977FF03C0719528
:1036A0006195710963337105A4F44C195D0957FFE5
:1036B00003C05195419551094333510554F42E19D6
:1036C0003F0937FF03C03195219531092333310577
:1036D0004CF19F938F936F927F928F929F92FF9264
:1036E000EF92DF92CF92BF92AF92D8011796ED91F1
:1036F000FC91189782818F9381818F938C911F9277
:103700008F938CE093E09F938F930E949A25F8010A
:10371000A186B286C386D486E586F686CDBFDEBF97
:1037200081E001C080E00F90DF91CF911F910F9158
:10373000FF90EF90DF90CF90BF90AF909F908F90D1
:103740007F906F900895CF93DF931F92CDB7DEB730
:10375000BE016F5F7F4F8DE10E949F240F90DF912C
:10376000CF910895CF93DF931F92CDB7DEB79E011F
:103770002F5F3F4F4FE360E28DE10E9417259E01CE
:103780002F5F3F4F48E064E28DE10E9417259E01C4
:103790002F5F3F4F40E066E28DE10E9417250F90BA
:1037A000DF91CF91089589E990E20895CF93DF9357
:1037B0001F92CDB7DEB7FB0130812181822F881F98
:1037C0008827881F41E0480F832F922F97FF03C05F
:1037D0009195819591098034910514F08FE390E0E3
:1037E0009C012B5F3F4F2B30310530F0880F991F24
:1037F000880F991F482B01C040E09E012F5F3F4F6B
:1038000060E084E60E9417250F90DF91CF91089524
:10381000CF93DF931F92CDB7DEB7BE016F5F7F4FAF
:1038200084E60E949F240F90DF91CF91089586EA4D
:1038300090E20895CF93DF931F92CDB7DEB79E013C
:103840002F5F3F4F42E060E083E60E9417259E0114
:103850002F5F3F4F40E869E183E60E9417250F90F4
:10386000DF91CF910895CF93DF931F92CDB7DEB74D
:10387000BE016F5F7F4F83E60E949F240F90DF9110
:10388000CF910895CF92DF92FF920F931F93CF9322
:10389000DF93CDB7DEB72C97CDBFDEBFFB01443041
:1038A00008F4F3C09E012F5F3F4F8AE0D9011D92BB
:1038B0008A95E9F7308181E037FF80E0228127FD9A
:1038C00002C050E001C052E0582B948197FD02C025
:1038D00080E001C084E0652F682B868187FD02C0EF
:1038E00050E001C058E0562B598351E036FF50E0BC
:1038F00026FD02C060E001C062E0562B96FD02C0CA
:1039000060E001C064E0652B86FD02C050E001C0AC
:1039100058E0562B5A8351E035FF50E025FD02C098
:1039200060E001C062E0562B95FD02C060E001C07E
:1039300064E0652B85FD02C050E001C058E0562BC5
:103940005B8351E034FF50E024FD02C060E001C021
:1039500062E0562B94FD02C060E001C064E0652B7C
:1039600084FD02C050E001C058E0562B5C8351E05A
:1039700033FF50E023FD02C060E001C062E0562B3F
:1039800093FD02C060E001C064E0652B83FD02C0CE
:1039900050E001C058E0562B5D8351E032FF50E00B
:1039A00022FD02C060E001C062E0562B92FD02C021
:1039B00060E001C064E0652B82FD02C050E001C000
:1039C00058E0562B5E8351E031FF50E021FD02C0EC
:1039D00060E001C062E0562B91FD02C060E001C0D2
:1039E00064E0652B81FD02C050E001C058E0562B19
:1039F0005F8351E030FF50E020FD02C020E001C0B5
:103A000022E0522B90FD02C090E001C094E0952B83
:103A100080FD02C080E001C088E0892B88874430A7
:103A200071F080859185019711F480E18987453097
:103A300031F082859385019711F480E28A87F42E14
:103A40008F01FE0131966F0191E0D6014D916D011C
:103A50009E01255F3F4F692F83E69C87E8D79C85B1
:103A60009F5F9B3091F7B6E0BF1540F49E01255F44
:103A70003F4FF801448569E183E6D9D79E01255F70
:103A80003F4F4FEF6CE083E6D2D72C96CDBFDEBF21
:103A9000DF91CF911F910F91FF90DF90CF9008950C
:103AA00083EB90E20895FF920F931F93CF93DF93E0
:103AB00000D0CDB7DEB78B01F42E9E012F5F3F4FB4
:103AC000FB01408162E086E1B2D7F801808180FF8E
:103AD00015C0F6E0FF1212C00E5F1F4F93E0F80111
:103AE00040810E5F1F4F9E012F5F3F4F692F86E180
:103AF0009A839DD79A819F5F983089F70F900F9096
:103B0000DF91CF911F910F91FF900895EF92FF9257
:103B10000F931F93CF93DF931F92CDB7DEB78C0126
:103B2000AE014F5F5F4F60E086E14BD77C01D8016B
:103B300019962D913C911A97281B390B37FF03C01A
:103B400031952195310925303105D4F0FF92EF925E
:103B5000D8011796ED91FC91189782818F938181FE
:103B60008F938C911F928F9388E293E09F938F9312
:103B7000E1D7F801E186F286CDBFDEBF81E001C06A
:103B800080E00F90DF91CF911F910F91FF90EF9008
:103B90000895CF93DF931F92CDB7DEB7BE016F5F5D
:103BA0007F4F86E1CCD60F90DF91CF91089580ECC6
:103BB00090E20895CF93DF931F92CDB7DEB79E01B9
:103BC0002F5F3F4F41E060E084E531D79E012F5FDA
:103BD0003F4F4FEF63E184E52AD79E012F5F3F4FB0
:103BE0004FEF64E184E523D79E012F5F3F4F4FEFF6
:103BF00065E184E51CD79E012F5F3F4F40E066E101
:103C000084E515D70F90DF91CF910895EF92FF9241
:103C10000F931F93CF93DF93CDB7DEB76097CDBFE0
:103C2000DEBFFB01842F4330F9F4F080E280048191
:103C300011E09E01205F3F4F4E2D612F84E5F7D6A6
:103C400061E0610F9E01205F3F4F4F2D84E5EFD66D
:103C500062E0610F9E01205F3F4F402F84E5E7D671
:103C60001D5F103131F729C04F3039F5AE014F5F7C
:103C70005F4FDA011D928A95E9F78E010D5F1F4FA4
:103C8000CB014E969801225031096281D9016C9383
:103C90002F5F3F4F6081D9016C932481D8012C9311
:103CA00036960D5F1F4FE817F90761F78E01005F29
:103CB0001F4F2FE061E084E5DAD69E01205F3F4F81
:103CC00040E066E184E5B3D66096CDBFDEBFDF910C
:103CD000CF911F910F91FF90EF900895CF93DF93B5
:103CE0001F92CDB7DEB7BE016F5F7F4F84E527D649
:103CF0000F90DF91CF9108958DEC90E208956F922F
:103D00007F928F929F92AF92BF92CF92DF92EF926B
:103D1000FF920F931F93CF93DF931F92CDB7DEB720
:103D20008C01AE014F5F5F4F60E08CE223D6E82E3E
:103D300080FF72C0AE014F5F5F4F63E08CE21AD626
:103D40008C73782E580189E0A80EB11C82E0C82E31
:103D5000D12CF12C88248394912C94010C2C01C03B
:103D6000220F0A94EAF72721D1F0AE014F5F5F4F8F
:103D700060E16C0D8CE2FED5682EAE014F5F5F4FA7
:103D800060E36C0D8CE2F6D591E068160CF490E0DF
:103D9000D5018C91981719F09C93FF24F394BFEFF1
:103DA000CB1ADB0AEFEFAE1ABE0AF6E0CF16D1044B
:103DB000A1F6FF2039F1D80119968C9119971F921D
:103DC0008F931A968C911A971F928F931B968C91B2
:103DD0001B971F928F931C968C911C971F928F9309
:103DE0001796ED91FC91189782818F9381818F9323
:103DF0008C911F928F9385E393E09F938F939AD634
:103E0000CDBFDEBF4E2D4E7F9E012F5F3F4F60E046
:103E10008CE20DD68F2D01C080E00F90DF91CF9105
:103E20001F910F91FF90EF90DF90CF90BF90AF90D8
:103E30009F908F907F906F900895CF93DF931F9204
:103E4000CDB7DEB79E012F5F3F4F40E060E08CE2D0
:103E5000EED59E012F5F3F4F40E360E28CE2E7D555
:103E60009E012F5F3F4F40E464E48CE2E0D59E0169
:103E70002F5F3F4F4CE361E28CE2D9D59E012F5F6B
:103E80003F4F48E064E28CE2D2D59E012F5F3F4F66
:103E900040E66FE18CE2CBD59E012F5F3F4F4CE3B4
:103EA00062E78CE2C4D59E012F5F3F4F40E068E29D
:103EB0008CE2BDD59E012F5F3F4F40E06AE28CE26D
:103EC000B6D59E012F5F3F4F40EC63E98CE2AFD542
:103ED0009E012F5F3F4F42E064E98CE2A8D50F902E
:103EE000DF91CF910895CF93DF931F92CDB7DEB7C7
:103EF000BE016F5F7F4F8CE222D50F90DF91CF9193
:103F000008958AED90E20895CF93DF931F92CDB785
:103F1000DEB79E012F5F3F4F49E464EF87E787D507
:103F20000F90DF91CF910895FF920F931F93CF933E
:103F3000DF931F92CDB7DEB7F82EAE014F5F5F4F14
:103F4000682F87E73ED58C0162E06F0DAE014F5FB1
:103F50005F4F87E70FD5A80160E070E094E0440F61
:103F6000551F661F771F9A95D1F782958F708A012A
:103F70009B01080F111D211D311DC901B8010F90B2
:103F8000DF91CF911F910F91FF900895CF93DF9311
:103F90001F92CDB7DEB7BE016F5F7F4F87E7CFD4EB
:103FA0000F90DF91CF910895CF93DF931F92CDB7FC
:103FB000DEB7682FAE014F5F5F4F87E71ED5BC01AC
:103FC00080E090E00F90DF91CF9108952F923F9283
:103FD0004F925F926F927F928F929F92AF92BF9219
:103FE000CF92DF92EF92FF920F931F93CF93DF93C5
:103FF000CDB7DEB7EB97CDBFDEBF888F998FAE010F
:104000004E5F5F4F63EF87E7B5D483FD1AC38AEF36
:104010008BDF6B017C01AE014F5F5F4F68E887E784
:10402000ECD42C01612C712C8AE8BEDF6E877F876F
:10403000888B998B4601570134E0B594A7949794E7
:1040400087943A95D1F784189508A608B7088CE8A4
:10405000ABDF6B837C838D839E83B701A601E3E096
:104060007595679557954795EA95D1F7D301C201A4
:10407000880F991FAA1FBB1F9A01AB01281B390B80
:104080004A0B5B0B6E857F85888999890E94D629AA
:104090006B017C01ABE0F694E794D794C794AA95A2
:1040A000D1F7A5019401C501B4010E94D6299B0155
:1040B000AC01BCE05595479537952795BA95D1F752
:1040C0006B817C818D819E810E94D629DC01CB0190
:1040D0001EE0B695A795979587951A95D1F7A701F4
:1040E0009601280F391F4A1F5B1F2E873F87488B79
:1040F000598B87EF19DF6CA77DA78EA79FA7CE846A
:10410000DF84E888F988FF0CCC08DC2C76012E854A
:104110003F85488959896C2D7C2D8C2D9C2D345FD1
:104120004140510961097109810991092B833B873C
:104130004C875D876A8B7B8B8C8B9D8B59016A01C9
:104140007B018C010E94252A2CA33DA34EA35FA3D3
:1041500068A779A78AA79BA788E926DF68AB79AB10
:104160008AAB9BAB86E920DF6CAB7DAB8EAB9FABA4
:1041700084E91ADF68AF79AF8AAF9BAF82E914DFB9
:104180002B013C0180E910DF8B019C015B0169017F
:10419000E12CF12C00E010E02B813B854C855D8506
:1041A0006A897B898C899D890E94252A0CE00E945E
:1041B000402B19014A016A8F7E8F8F8F98A3AE0121
:1041C0004F5F5F4F6EE887E718D48E8B9F8B93010C
:1041D00082015201690100E010E02CA13DA14EA135
:1041E0005FA168A579A58AA59BA50E94252A08E05C
:1041F0000E94592B51016401EA8CFE8C0F8D18A18D
:104200000E94772B70588F4F9F4FAE89BF895D01F9
:10421000C12CD12CE12CF12C00E010E00E94252AC9
:1042200001E20E94592B2E8B3A8F4E8F5F8F68A32D
:1042300079A38AA39BA3A0E00E94892B09F498C1CB
:1042400088A999A9AAA9BBA98C019D015C01690152
:1042500000E010E02CA13DA14EA15FA168A579A5C9
:104260008AA59BA50E94252A19012A013B014C0120
:104270008CA99DA9AEA9BFA98C019D015C01690112
:1042800000E010E02B813B854C855D856A897B8948
:104290008C899D890E94252A01E10E94402B5901A9
:1042A0006A017B018C019101A201B301C4010E944A
:1042B000772B19012A01662E7B838B879C8780E0F0
:1042C00090E0A0E1B0E02CA53DA54EA55FA5821B26
:1042D000930BA40BB50B6C017D01FF0CCC08DC2CFF
:1042E00076019C01AD016C2D7C2D8C2D9C2D0FE158
:1042F0000E94402B2D87732E4A01B62FA72FF82F2F
:10430000E92F48AD59AD6AAD7BAD5A016B019A01F9
:10431000A60160E070E080E090E003E20E94402BA4
:1043200059016A017B018C019101A201662D7B81FB
:104330008B859C850E94772B59016A017B018C013A
:104340002D85372DA4016B2F7A2F8F2F9E2F0E9442
:10435000802B722E832E942EB52FA62FF72FE82FA9
:10436000592E03E00E94402BA72CB82CC92CDB2E21
:10437000EA2EFF2E0E2F152D0E94802B59016A0167
:104380007B01682E192F03E00E94402B062D0E940E
:10439000802B03E00E94402BA72CB82CC92CDB2ECD
:1043A000EA2EFF2E0E2F152D0E94802B02E00E9478
:1043B000402B0E2F0E94802B01E00E94402B0E2FDD
:1043C0000E94802BAE88BA8CCE8CDF8CE8A0F9A03E
:1043D0000AA11BA10E94782A2B873C874D875A8B04
:1043E0006B8B7C8B8D8B9E8B8EE9DEDD6B017C0174
:1043F0002B853C854D855A896B897C898D899E8961
:104400000DE00E94592B322E432E542E652E762E0F
:10441000872E982E292E8CE9C7DD6A8F7B8F8C8F93
:104420009D8FA701960160E070E0CB01CB823C83B9
:104430004D835E836F83788789879A87A32CB42CFA
:10444000C52CD62CE72CF82C092D122D60E070E03D
:1044500080E090E0FAD7F9D709E10E94592B590181
:104460006A017B018C012B853C854D855A896B89BE
:104470007C898D899E890E94772B19012A013B0135
:104480004C016A8D7B8D8C8D9D8DAB01BC0180E0D4
:1044900090E0DC014B835C836D837E838F83988700
:1044A000A987BA87AB84BC84CD84DA88EB88FC8882
:1044B0000D891E899A01AB0160E070E080E090E018
:1044C000C4D703E10E94592B59016A017B018C0179
:1044D0009101A201B301C4010E94772B08E00E9460
:1044E000592B19012A013B014C018AE95DDD5B0171
:1044F0006C019B01A60160E070E080E090E004E0C8
:104500000E94402B59016A017B018C019101A2019B
:10451000B301C4010E94772BF22E032F142FB52F65
:10452000F62FE72FD82EE92EA0E00E94892B84F4E5
:1045300021503F4F4F4F5F4F6F4F7F4F8F4F9F4FD8
:10454000F22E032F142FB52FF62FE72FD82EE92E9A
:104550002F2D302F412F5B2F6F2F7E2F8D2D9E2DD6
:1045600008E00E94592BC22ED32EE42EF52E03C054
:10457000C12CD12C7601A88DB98D1B968D909D9064
:10458000AD90BC901E97A5E0B0E02E853F85488990
:10459000598951D72B013C01B0E84B0E511C611CCD
:1045A000711C452C562C672C772467FC7A94E88D77
:1045B000F98D818592859201281B390BC90137FF3E
:1045C00003C0919581959109069754F4C601881905
:1045D000990997FF03C0919581959109C39744F17B
:1045E000FF92EF92DF92CF927F926F925F924F9203
:1045F000A88DB98D1796ED91FC91189782818F93B4
:1046000081818F938C911F928F938BE493E09F9382
:104610008F9390D2E88DF98D418652866386748699
:10462000C386D486E586F686CDBFDEBF81E00AC0AC
:104630009E012E5F3F4F49E464EF87E7F8D180E0A9
:1046400001C080E0EB96CDBFDEBFDF91CF911F911F
:104650000F91FF90EF90DF90CF90BF90AF909F9021
:104660008F907F906F905F904F903F902F90089524
:1046700087EE90E20895E091582AF091592A81E05E
:1046800090E09C010090572A02C0220F331F0A9429
:10469000E2F72683218328E32A95F1F7E0915A2A4D
:1046A000F0915B2A00905C2A02C0880F991F0A943F
:1046B000E2F78683818388E38A95F1F70895E09194
:1046C0005A2AF0915B2A81E090E09C0100905C2ADC
:1046D00002C0220F331F0A94E2F7228328E32A95AF
:1046E000F1F7E091582AF091592A0090572A02C018
:1046F000880F991F0A94E2F7828388E38A95F1F77D
:104700000895FC0121E030E0C90102C0880F991F23
:104710006A95E2F7BC01828390E088E38A95F1F71D
:104720009F5F208530E026233723232B19F4973011
:10473000A1F702C0973019F482E0FA01808308954E
:10474000FC01A091582AB091592A21E030E0C9011A
:104750000090572A02C0880F991F0A94E2F7129618
:104760008C9388E38A95F1F7A0915A2AB0915B2A3D
:1047700000905C2A02C0220F331F0A94E2F71296BF
:104780002C9328E32A95F1F7A091582AB091592A41
:1047900018962C9130E00090572A02C03595279545
:1047A0000A94E2F720FF02C094E001C093E09083F6
:1047B000E0915A2AF0915B2A81E090E09C01009000
:1047C0005C2A02C0220F331F0A94E2F7268321835A
:1047D00028E32A95F1F7E091582AF091592A0090A0
:1047E000572A02C0880F991F0A94E2F786838183B3
:1047F00088E38A95F1F7089548E050E021E030E041
:10480000E091582AF091592A9091572AD90101C074
:10481000AA0F9A95EAF787FF02C0A28302C0A68377
:10482000A18398E39A95F1F7E0915A2AF0915B2AD7
:10483000D90100905C2A02C0AA0FBB1F0A94E2F7BC
:10484000A28398E39A95F1F7E0915A2AF0915B2AB6
:10485000D90100905C2A02C0AA0FBB1F0A94E2F79C
:10486000A683A18398E39A95F1F7880F41505109E7
:1048700039F6CB0165CFCF92DF92EF92FF920F9383
:104880001F93CF936C01E091582AF091592A81E04F
:1048900090E00090572A02C0880F991F0A94E2F70F
:1048A000828308E010E0C0E0EE24E394F12CA6013E
:1048B00060915C2A80915A2A90915B2A22DF88E3DA
:1048C0008A95F1F7E091582AF091592A208530E035
:1048D0000090572A02C0359527950A94E2F7217077
:1048E0003327CC0FC22BE0915A2AF0915B2AC701E3
:1048F00000905C2A02C0880F991F0A94E2F7868311
:10490000818388E38A95F1F70150110981F6C60188
:1049100017DF8C2FCF911F910F91FF90EF90DF90B9
:10492000CF9008958093582A9093592A6093572ADC
:1049300040935A2A50935B2A20935C2A08950F9340
:104940001F93CF93DF931F92CDB7DEB78B0189837F
:1049500092DEB8018981880F4FDFB1DE81E0F80176
:104960009081933009F080E00F90DF91CF911F91FB
:104970000F910895EF92FF920F931F93CF93DF93C0
:104980001F92CDB7DEB7062F7A01182F110F73DEF5
:10499000B701812F31DFB701802F2EDF90DE6BDE74
:1049A000B701812F816028DFC70165DF898387DE3A
:1049B00089810F90DF91CF911F910F91FF90EF9020
:1049C0000895EF92FF921F93CF93DF93182FD62F66
:1049D0007A01D0DFC82F61E06D0FA701812FCADFF8
:1049E0002C2F30E0322F2227A901482BCA01DF915A
:1049F000CF911F91FF90EF900895EF92FF921F9338
:104A0000CF93DF93182FC62F7A01B4DFD82F61E040
:104A10006C0FA701812FAEDF2D2F30E0A901582B9D
:104A2000CA01DF91CF911F91FF90EF900895EF920F
:104A3000FF921F93CF93DF9300D0CDB7DEB7162F31
:104A400079014A83898317DEB7018981880FD4DE13
:104A5000B701812FD1DEB7014A81842FCDDE0F90BF
:104A60000F90DF91CF911F91FF90EF9028CEAF92E2
:104A7000BF92CF92DF92EF92FF920F931F93CF934B
:104A8000DF9300D0CDB7DEB7F62E6A012A83898383
:104A9000F2DDB8018981880FAFDEB8018F2DACDE61
:104AA00076012A81A22EB12CC7018C199D098A1585
:104AB0009B0534F4B801F70181917F019DDEF4CFAD
:104AC0000F900F90DF91CF911F910F91FF90EF907A
:104AD000DF90CF90BF90AF90F2CDCF93C82F0E94C0
:104AE0006605882331F08C2FCC0F990BCF910C9455
:104AF000AF05CF910895EF92FF921F93CF93DF936D
:104B00001F92CDB7DEB7182F99830E946605998151
:104B1000882349F0E12EF92EF70181917F01882346
:104B200011F0DBDFF9CF0F90DF91CF911F91FF9054
:104B3000EF900895CF93DF93CDB7DEB70E9466055F
:104B4000882359F0AE01495F5F4F6D817E8182EA13
:104B500095E25FD682EA95E2CEDFDF91CF910895AC
:104B6000CF93DF9300D0CDB7DEB72091632A309189
:104B7000642A2115310511F427E63AE2CE010196A7
:104B8000821B930B0F900F90DF91CF910895AF92FE
:104B9000BF92CF92DF92EF92FF920F931F93CF932A
:104BA000DF9384E194E09F938F93C4DFD9DF9F93D9
:104BB0008F9384E094E09F938F93BCDFD1DF9F932A
:104BC0008F938AEE93E09F938F93B4DFC9DF9F9317
:104BD0008F938FED93E09F938F93ACDF6091342799
:104BE0007091352780913627909137279F938F9327
:104BF0007F936F9328EE33E040E050E0FAD35F9369
:104C00004F933F932F9389EB93E09F938F9392DF82
:104C1000409134275091352760913627709137277E
:104C20008091382790913927A0913A27B0913B275E
:104C30009A01AB01280F391F4A1F5B1F60E472E421
:104C40008FE090E0D6D35F934F933F932F938DE8FF
:104C500093E09F938F936EDF8EE793E09F938F9304
:104C600069DF07E617E28DB79EB780968DBF9EBFBE
:104C7000C0E0D0E084E7E82E83E0F82E9DE5C92E61
:104C800093E0D92E26E6A22E23E0B22EDF93CF9317
:104C9000FF92EF924FDFD8011796ED91FC91189794
:104CA0000F900F900F900F90309789F080811F9296
:104CB0008F9382818F9381818F93BF92AF923ADFDE
:104CC0000F900F900F900F900F900F9009C0DF93EF
:104CD000CF93DF92CF922EDF0F900F900F900F9017
:104CE0002196025C1F4FC830D10581F6DF91CF912C
:104CF0001F910F91FF90EF90DF90CF90BF90AF90FA
:104D000008959FB7F894A0E5B0E016968C91169799
:104D1000897F16968C931697E0E6F0E080E885830D
:104D20008BEB868316968C911697846016968C93DF
:104D30008081816080839FBF0895CF93DF9300D0EF
:104D400000D0CDB7DEB78FEF8093700080937100F5
:104D50008093720080937300809374008093750039
:104D60008093760064E081E490E09BD06CE170E099
:104D700082E08DD08C836DE170E082E088D08B83FF
:104D80008B819C81019621F480E493E28B839C8348
:104D90008B819C8189839A83809362008A8180932E
:104DA00063009FB7F8948091500082608093500018
:104DB0009FBF8091510081FFFCCFA3DF61E080E4C1
:104DC00090E06FD09FB7F894809150008E7F8093D1
:104DD00050009FBF2496CDBFDEBFDF91CF910895D5
:104DE0009FB7F894E82FF0E0E059FF4F609580817D
:104DF000682360839FBF0895CF93863011F0C0E091
:104E000001C0C8E18091510081FD0DC09FB7F894A9
:104E1000809150008260809350009FBF809151002C
:104E200081FFFCCF6EDF6C2F636084E490E039D0AB
:104E300060E480E0CF91D4CF682F70E082E027C09B
:104E4000CF93DF93EC0188E0F7DF888389E0F4DF1C
:104E500089838AE0F1DF8A838BE0EEDF8B838CE04D
:104E6000EBDF8C838DE0E8DF8D8380E1E5DF8E83EF
:104E700082E1E2DF8F8383E1DFDF888784E1DCDFAB
:104E8000898785E1D9DF8A87DF91CF9108954091A5
:104E9000CA01E62FF72F8093CA0184914093CA017B
:104EA00008951BBEFC0128ED24BF6083089508957A
:104EB0008091AE269091AF26A091B026B091B126F8
:104EC000C296A11DB11D8093AE269093AF26A093EC
:104ED000B026B093B1260C9452020E94C1139DEFEC
:104EE00088ED08B618BE84BF9093800008BE0E946B
:104EF0003214D7E0D093A200789410925D2A1092D9
:104F00005E2A10925F2A1092602A1092612AC1E0F4
:104F1000C093622A12DFCBDF8FEF8093000680E11F
:104F200080936006809164068F7E8093640688E19A
:104F300080937506D0938006C093860682E08093A6
:104F4000860684E0809386060E947E0680E098E0D4
:104F50000E945D0D68E577E280E098E00E94980D80
:104F600080910108887F8093010880EB94E0809312
:104F7000260890932708809106088C7F8093060866
:104F80008091060883608093060880910008807FE6
:104F9000816080930008F12CCBE4D4E0EE24E3940C
:104FA0000BE214E08091680685FD0BC08091B2266B
:104FB000811107C0DF93CF93BDDDE092B2260F9041
:104FC0000F908091680685FF0BC08091B2268823E0
:104FD00039F01F930F93AEDD1092B2260F900F9011
:104FE0008091B326882311F18090AE269090AF2651
:104FF000A090B026B090B12684EB96E20E945316A2
:105000001092B3268091AE269091AF26A091B02643
:10501000B091B12688199909AA09BB09809338274C
:1050200090933927A0933A27B0933B27F11002C001
:105030000E942B15F3948090AE269090AF26A090FE
:10504000B026B090B1266091AE267091AF268091C7
:10505000B0269091B1260E9478158091AE2690914D
:10506000AF26A091B026B091B12688199909AA0956
:10507000BB098093342790933527A0933627B093AC
:10508000372790CF089581E00895089508950895F1
:105090000F931F93CF93DF93FC0180818D3231F406
:1050A000615021E030E04FEF5FEF04C020E030E0DE
:1050B00041E050E06330D1F148F4613009F45FC061
:1050C000623009F06CC080E090E045C06430A9F027
:1050D000653009F064C0DF01A20FB31FAC910A2E46
:1050E000000CBB0BD097C0E1D7E2AC9FC001AD9FD5
:1050F000900DBC9F900D112402C080E090E0DF0174
:10510000A20FB31FA60FB11D1497AC910A2E000C6D
:10511000BB0BD09708EE13E0A09FE001A19FD00D3C
:10512000B09FD00D11248C0F9D1F02C080E090E035
:10513000DF01A20FB31FA60FB11D1397AC910A2E6A
:10514000000CBB0BD09774E67A9FE0017B9FD00DDB
:1051500011248C0F9D1FDF01A20FB31FA60FB11DDD
:105160001297AC910A2E000CBB0BD0977AE07A9F75
:10517000E0017B9FD00D11248C0F9D1F02C080E0A9
:1051800090E0E20FF31FE60FF11D31972081022E10
:10519000000C330B20533109820F931F02C080E0B3
:1051A00090E09C01249FC001259F900D349F900D9D
:1051B0001124DF91CF911F910F9108955F926F920B
:1051C0007F928F929F92AF92BF92CF92DF92EF9297
:1051D000FF920F931F93CF93DF9389E0E82E01E0B6
:1051E0009EE3992E22E0822EC3EAD6E216E038E052
:1051F000732E43E2C42E46E2D42E50E8F52E0E94D0
:10520000F204882309F4C2C00E9437059091AD26AC
:105210008D3009F03EC0923009F5A090AB26B090D9
:10522000AC266090AA2655245394560C5092AA2678
:105230006091A92683EA96E22BDFF501E60DF11DC8
:10524000E60DF11D858B968B1092A926FE01812F0C
:1052500011928A95E9F7F50155AE11C0993079F4AC
:105260008091B32681110BC0E3E2F6E2A4EBB6E233
:105270008F2D01900D928A95E1F70093B32610923D
:105280002226F6018F2D11928A95E9F71092AD260C
:10529000B6CFE091222621E02E0F20932226F0E0C7
:1052A000ED5DF94D8083923089F58C3209F560917E
:1052B000A926662301F16090AB26A090AC26B090A1
:1052C000AA2681E08B0D8093AA2683EA96E2E0DE8F
:1052D000E62DFA2DEB0DF11DEB0DF11D858B968B57
:1052E0001092A926FE01812F11928A95E9F787CFA6
:1052F000803209F484CFE091A92691E09E0F90932B
:10530000A926F0E0ED55F94D808379CF913059F51C
:10531000223031F4803209F472CF7092AD266FCF13
:105320002330D9F780538930C0F790E00197989ED9
:10533000F001999EF00D1124E959F84DE093AB2648
:10534000F093AC2687819085892B39F315AE809236
:10535000AD261092AA261092A926FE01812F119245
:105360008A95E9F74CCF91114ACF823739F4F894F6
:1053700088ED84BF81E08093790008C0833719F4F9
:105380000093AD263CCFE092AD2639CFDF91CF918F
:105390001F910F91FF90EF90DF90CF90BF90AF9053
:1053A0009F908F907F906F905F900895DB018F9317
:1053B0009F9341D0BF91AF91A29F800D911DA39F5C
:1053C000900DB29F900D11240895AA1BBB1B51E1B3
:1053D00007C0AA1FBB1FA617B70710F0A61BB70B65
:1053E000881F991F5A95A9F780959095BC01CD010A
:1053F0000895A1E21A2EAA1BBB1BFD010DC0AA1F16
:10540000BB1FEE1FFF1FA217B307E407F50720F02D
:10541000A21BB30BE40BF50B661F771F881F991FA8
:105420001A9469F760957095809590959B01AC01F1
:10543000BD01CF01089579D1A59F900DB49F900D26
:10544000A49F800D911D11240895DF93CF931F9386
:105450000F939A9DF02D219FF00D8B9DF00D8A9D4D
:10546000E02DF10D039FF00D029FE00DF11D4E9D0B
:10547000E00DF11D5E9DF00D4F9DF00D7F936F933C
:10548000BF92AF925F934F93D5014FD18B01AC0187
:10549000D7014BD1EB01E80FF91FD6011FD02F9197
:1054A0003F91D60142D1C60FD71FE81FF91FAF9118
:1054B000BF9114D02F913F9138D1C60FD71FE81F4D
:1054C000F91FD60132D1E60FF71F9801BE01CF01B7
:1054D00011240F911F91CF91DF91089526D1460F8E
:1054E000571FC81FD91F08F431960895689401C04A
:1054F000E894F92FF12B0AF027C0A0E0B0E0E2E831
:10550000FAE293C0092E05941AF479D0112392F48B
:10551000F0E80F26FFEFE094F09400951095B0941A
:10552000C094D094A194BF0ACF0ADF0AEF0AFF0A01
:105530000F0B1F0B13D007FC62D0CDB7DEB7ECE02A
:105540008DC0689401C0E8948F929F92CF93DF93AF
:1055500005D0DF91CF919F908F9008958824992452
:10556000F401E401B0E49F93AA279A158B049C04EC
:10557000ED05FE05CF05D007A10798F4AD2FDC2F70
:10558000CF2FFE2FE92D982C892E982F872F762F3D
:10559000652F542F432F322F2227B85031F7BF9158
:1055A00027C01B2EBF91BB27220F331F441F551F3F
:1055B000661F771F881F991F881C991CEE1FFF1FED
:1055C000CC1FDD1FAA1FBB1F8A149B04EC05FD0521
:1055D000CE05DF05A007B10748F08A189B08EC0943
:1055E000FD09CE09DF09A00BB10B21601A94E1F689
:1055F0002EF49401AF01BE01CD01000C0895609519
:1056000070958095909530954095509521953F4F98
:105610004F4F5F4F6F4F7F4F8F4F9F4F08952F9288
:105620003F924F925F926F927F928F929F92AF9232
:10563000BF92CF92DF92EF92FF920F931F93CF937F
:10564000DF93CDB7DEB7CA1BDB0BCDBFDEBF09943E
:105650002A88398848885F846E847D848C849B8402
:10566000AA84B984C884DF80EE80FD800C811B8110
:10567000AA81B981CE0FD11DCDBFDEBFED01089546
:105680000F93083090F0982F872F762F652F542F87
:10569000432F322F22270850F4CF220F331F441FED
:1056A000551F661F771F881F991F0A95B2F70F9124
:1056B000089597FB10F8169400080F93083098F09F
:1056C0000850232F342F452F562F672F782F892FDF
:1056D000902DF4CF05949795879577956795579575
:1056E0004795379527950A95AAF70F9108952A0DA2
:1056F0003B1D4C1D5D1D6E1D7F1D801F911F08955C
:105700002A193B094C095D096E097F09800B910B31
:1057100008950024A7FD00942A1730054005500580
:1057200060057005800590050895A29FB001B39FA4
:10573000C001A39F700D811D1124911DB29F700D9A
:10574000811D1124911D0895FC0188279927E89453
:1057500021912032E9F3293010F02E30C8F32B329A
:1057600039F02D3231F4689403C04BD0820F911D73
:10577000219120532A30C8F31EF4909581959F4FB4
:105780000895FB01DC0102C001900D924150504090
:10579000D8F70895FB01DC018D910190801901106B
:1057A000D9F3990B0895FB01DC0101900D920020C3
:1057B000E1F70895FB01DC014150504048F00190B1
:1057C0000D920020C9F701C01D9241505040E0F7F2
:1057D0000895FC01A081B181AD01109681F03D9149
:1057E000FB01019003160110E1F7C9F7002011F445
:1057F000D00102C01E921196FC01A083B183CA01A0
:1058000008957AE0979F902D879F802D910D112408
:105810000895AEE0B0E0EEE0FCE20FCF8C018EE048
:105820008C8309831A838FEF9FE78D839E83CE013C
:10583000019609D02F813885F801E20FF31F1082FD
:105840002E96E4E013CFACE0B0E0E8E2FCE2E7CE75
:105850007C016B018A01FC0116821782838181FF22
:10586000B0C1CE0101964C01F7019381F60193FD81
:10587000859193FF81916F01882309F49EC1853240
:1058800039F493FD859193FF81916F01853221F465
:10589000B70190E0B1D1E8CF512C312C20E020327B
:1058A000A0F48B3269F030F4803259F0833269F41D
:1058B00020612CC08D3239F0803339F4216026C04C
:1058C0002260246023C0286021C027FD27C030ED5E
:1058D000380F3A3078F426FF06C0FAE05F9E300DAC
:1058E0001124532E13C08AE0389E300D1124332E1C
:1058F00020620CC08E3221F426FD5FC1206406C0F8
:105900008C3611F4206802C0883641F4F60193FD0C
:10591000859193FF81916F018111C1CF982F9F7D58
:105920009554933028F40C5F1F4FFFE3F9830DC0AB
:10593000833631F0833771F0833509F057C021C0C9
:10594000F801808189830E5F1F4F44244394512CBA
:10595000540114C03801F2E06F0E711CF801A080F0
:10596000B18026FF03C0652D70E002C06FEF7FEFAE
:10597000C5012C8736D12C0183012C852F77222E4F
:1059800016C03801F2E06F0E711CF801A080B180E2
:1059900026FF03C0652D70E002C06FEF7FEFC501E9
:1059A0002C8714D12C012C852068222E830123FC06
:1059B00019C0832D90E048165906A0F4B70180E283
:1059C00090E01AD13A94F5CFF50127FC859127FE96
:1059D00081915F01B70190E00FD131103A94F1E06D
:1059E0004F1A51084114510479F7DEC0843611F082
:1059F000893631F5F80127FF07C060817181828106
:105A000093810C5F1F4F08C060817181072E000CCD
:105A1000880B990B0E5F1F4F2F76722E97FF09C0D0
:105A200090958095709561957F4F8F4F9F4F20681F
:105A3000722E2AE030E0A40117D1A82EA81843C086
:105A4000853729F42F7EB22E2AE030E025C0F22FD0
:105A5000F97FBF2E8F36C1F018F4883579F0ADC0CC
:105A6000803719F0883721F0A8C02F2F2061B22E7F
:105A7000B4FE0DC08B2D8460B82E09C024FF0AC06F
:105A80009F2F9660B92E06C028E030E005C020E1C7
:105A900030E002C020E132E0F801B7FE07C06081CB
:105AA0007181828193810C5F1F4F06C0608171817B
:105AB00080E090E00E5F1F4FA401D6D0A82EA8185A
:105AC000FB2DFF777F2E76FE0BC0372D3E7FA51472
:105AD00050F474FE0AC072FC08C0372D3E7E05C02B
